{
	"Library.sol": {
		"Library": {
			"abi": [
				{
					"inputs": [],
					"stateMutability": "nonpayable",
					"type": "constructor"
				},
				{
					"anonymous": false,
					"inputs": [
						{
							"indexed": true,
							"internalType": "address",
							"name": "previousOwner",
							"type": "address"
						},
						{
							"indexed": true,
							"internalType": "address",
							"name": "newOwner",
							"type": "address"
						}
					],
					"name": "OwnershipTransferred",
					"type": "event"
				},
				{
					"inputs": [],
					"name": "_getAllTimeBorrowers",
					"outputs": [
						{
							"internalType": "address[]",
							"name": "",
							"type": "address[]"
						}
					],
					"stateMutability": "view",
					"type": "function"
				},
				{
					"inputs": [],
					"name": "_getBooks",
					"outputs": [
						{
							"components": [
								{
									"internalType": "uint256",
									"name": "bookId",
									"type": "uint256"
								},
								{
									"internalType": "uint256",
									"name": "copies",
									"type": "uint256"
								},
								{
									"internalType": "address[]",
									"name": "usersHavingIt",
									"type": "address[]"
								},
								{
									"internalType": "string",
									"name": "name",
									"type": "string"
								}
							],
							"internalType": "struct Book[]",
							"name": "",
							"type": "tuple[]"
						}
					],
					"stateMutability": "view",
					"type": "function"
				},
				{
					"inputs": [
						{
							"internalType": "string",
							"name": "_name",
							"type": "string"
						},
						{
							"internalType": "uint256",
							"name": "_bookCopies",
							"type": "uint256"
						}
					],
					"name": "addBooks",
					"outputs": [],
					"stateMutability": "nonpayable",
					"type": "function"
				},
				{
					"inputs": [],
					"name": "getAvailableBooks",
					"outputs": [
						{
							"components": [
								{
									"internalType": "uint256",
									"name": "bookId",
									"type": "uint256"
								},
								{
									"internalType": "string",
									"name": "name",
									"type": "string"
								}
							],
							"internalType": "struct BookAndId[]",
							"name": "",
							"type": "tuple[]"
						}
					],
					"stateMutability": "view",
					"type": "function"
				},
				{
					"inputs": [],
					"name": "owner",
					"outputs": [
						{
							"internalType": "address",
							"name": "",
							"type": "address"
						}
					],
					"stateMutability": "view",
					"type": "function"
				},
				{
					"inputs": [],
					"name": "renounceOwnership",
					"outputs": [],
					"stateMutability": "nonpayable",
					"type": "function"
				},
				{
					"inputs": [
						{
							"internalType": "uint256",
							"name": "_desiredBookId",
							"type": "uint256"
						}
					],
					"name": "reserveBook",
					"outputs": [],
					"stateMutability": "nonpayable",
					"type": "function"
				},
				{
					"inputs": [
						{
							"internalType": "uint256",
							"name": "_bookId",
							"type": "uint256"
						}
					],
					"name": "returnBook",
					"outputs": [],
					"stateMutability": "nonpayable",
					"type": "function"
				},
				{
					"inputs": [
						{
							"internalType": "address",
							"name": "newOwner",
							"type": "address"
						}
					],
					"name": "transferOwnership",
					"outputs": [],
					"stateMutability": "nonpayable",
					"type": "function"
				}
			],
			"devdoc": {
				"kind": "dev",
				"methods": {
					"owner()": {
						"details": "Returns the address of the current owner."
					},
					"renounceOwnership()": {
						"details": "Leaves the contract without owner. It will not be possible to call `onlyOwner` functions. Can only be called by the current owner. NOTE: Renouncing ownership will leave the contract without an owner, thereby disabling any functionality that is only available to the owner."
					},
					"transferOwnership(address)": {
						"details": "Transfers ownership of the contract to a new account (`newOwner`). Can only be called by the current owner."
					}
				},
				"version": 1
			},
			"evm": {
				"assembly": "    /* \"Library.sol\":338:5985  contract Library is Ownable {... */\n  mstore(0x40, 0x80)\n    /* \"Library.sol\":577:625  constructor() {... */\n  callvalue\n  dup1\n  iszero\n  tag_1\n  jumpi\n  0x00\n  dup1\n  revert\ntag_1:\n  pop\n    /* \"https://github.com/OpenZeppelin/openzeppelin-contracts/blob/master/contracts/access/Ownable.sol\":936:968  _transferOwnership(_msgSender()) */\n  tag_5\n    /* \"https://github.com/OpenZeppelin/openzeppelin-contracts/blob/master/contracts/access/Ownable.sol\":955:967  _msgSender() */\n  tag_6\n    /* \"https://github.com/OpenZeppelin/openzeppelin-contracts/blob/master/contracts/access/Ownable.sol\":955:965  _msgSender */\n  shl(0x20, tag_7)\n    /* \"https://github.com/OpenZeppelin/openzeppelin-contracts/blob/master/contracts/access/Ownable.sol\":955:967  _msgSender() */\n  0x20\n  shr\n  jump\t// in\ntag_6:\n    /* \"https://github.com/OpenZeppelin/openzeppelin-contracts/blob/master/contracts/access/Ownable.sol\":936:954  _transferOwnership */\n  shl(0x20, tag_8)\n    /* \"https://github.com/OpenZeppelin/openzeppelin-contracts/blob/master/contracts/access/Ownable.sol\":936:968  _transferOwnership(_msgSender()) */\n  0x20\n  shr\n  jump\t// in\ntag_5:\n    /* \"Library.sol\":616:617  0 */\n  0x00\n    /* \"Library.sol\":602:613  bookIdNonce */\n  0x01\n    /* \"Library.sol\":602:617  bookIdNonce = 0 */\n  dup2\n  swap1\n  sstore\n  pop\n    /* \"Library.sol\":338:5985  contract Library is Ownable {... */\n  jump(tag_10)\n    /* \"https://github.com/OpenZeppelin/openzeppelin-contracts/blob/master/contracts/utils/Context.sol\":640:736  function _msgSender() internal view virtual returns (address) {... */\ntag_7:\n    /* \"https://github.com/OpenZeppelin/openzeppelin-contracts/blob/master/contracts/utils/Context.sol\":693:700  address */\n  0x00\n    /* \"https://github.com/OpenZeppelin/openzeppelin-contracts/blob/master/contracts/utils/Context.sol\":719:729  msg.sender */\n  caller\n    /* \"https://github.com/OpenZeppelin/openzeppelin-contracts/blob/master/contracts/utils/Context.sol\":712:729  return msg.sender */\n  swap1\n  pop\n    /* \"https://github.com/OpenZeppelin/openzeppelin-contracts/blob/master/contracts/utils/Context.sol\":640:736  function _msgSender() internal view virtual returns (address) {... */\n  swap1\n  jump\t// out\n    /* \"https://github.com/OpenZeppelin/openzeppelin-contracts/blob/master/contracts/access/Ownable.sol\":2426:2613  function _transferOwnership(address newOwner) internal virtual {... */\ntag_8:\n    /* \"https://github.com/OpenZeppelin/openzeppelin-contracts/blob/master/contracts/access/Ownable.sol\":2499:2515  address oldOwner */\n  0x00\n    /* \"https://github.com/OpenZeppelin/openzeppelin-contracts/blob/master/contracts/access/Ownable.sol\":2518:2524  _owner */\n  dup1\n  0x00\n  swap1\n  sload\n  swap1\n  0x0100\n  exp\n  swap1\n  div\n  0xffffffffffffffffffffffffffffffffffffffff\n  and\n    /* \"https://github.com/OpenZeppelin/openzeppelin-contracts/blob/master/contracts/access/Ownable.sol\":2499:2524  address oldOwner = _owner */\n  swap1\n  pop\n    /* \"https://github.com/OpenZeppelin/openzeppelin-contracts/blob/master/contracts/access/Ownable.sol\":2543:2551  newOwner */\n  dup2\n    /* \"https://github.com/OpenZeppelin/openzeppelin-contracts/blob/master/contracts/access/Ownable.sol\":2534:2540  _owner */\n  0x00\n  dup1\n    /* \"https://github.com/OpenZeppelin/openzeppelin-contracts/blob/master/contracts/access/Ownable.sol\":2534:2551  _owner = newOwner */\n  0x0100\n  exp\n  dup2\n  sload\n  dup2\n  0xffffffffffffffffffffffffffffffffffffffff\n  mul\n  not\n  and\n  swap1\n  dup4\n  0xffffffffffffffffffffffffffffffffffffffff\n  and\n  mul\n  or\n  swap1\n  sstore\n  pop\n    /* \"https://github.com/OpenZeppelin/openzeppelin-contracts/blob/master/contracts/access/Ownable.sol\":2597:2605  newOwner */\n  dup2\n    /* \"https://github.com/OpenZeppelin/openzeppelin-contracts/blob/master/contracts/access/Ownable.sol\":2566:2606  OwnershipTransferred(oldOwner, newOwner) */\n  0xffffffffffffffffffffffffffffffffffffffff\n  and\n    /* \"https://github.com/OpenZeppelin/openzeppelin-contracts/blob/master/contracts/access/Ownable.sol\":2587:2595  oldOwner */\n  dup2\n    /* \"https://github.com/OpenZeppelin/openzeppelin-contracts/blob/master/contracts/access/Ownable.sol\":2566:2606  OwnershipTransferred(oldOwner, newOwner) */\n  0xffffffffffffffffffffffffffffffffffffffff\n  and\n  0x8be0079c531659141344cd1fd0a4f28419497f9722a3daafe3b4186f6b6457e0\n  mload(0x40)\n  mload(0x40)\n  dup1\n  swap2\n  sub\n  swap1\n  log3\n    /* \"https://github.com/OpenZeppelin/openzeppelin-contracts/blob/master/contracts/access/Ownable.sol\":2489:2613  {... */\n  pop\n    /* \"https://github.com/OpenZeppelin/openzeppelin-contracts/blob/master/contracts/access/Ownable.sol\":2426:2613  function _transferOwnership(address newOwner) internal virtual {... */\n  pop\n  jump\t// out\n    /* \"Library.sol\":338:5985  contract Library is Ownable {... */\ntag_10:\n  dataSize(sub_0)\n  dup1\n  dataOffset(sub_0)\n  0x00\n  codecopy\n  0x00\n  return\nstop\n\nsub_0: assembly {\n        /* \"Library.sol\":338:5985  contract Library is Ownable {... */\n      mstore(0x40, 0x80)\n      callvalue\n      dup1\n      iszero\n      tag_1\n      jumpi\n      0x00\n      dup1\n      revert\n    tag_1:\n      pop\n      jumpi(tag_2, lt(calldatasize, 0x04))\n      shr(0xe0, calldataload(0x00))\n      dup1\n      0x8da5cb5b\n      gt\n      tag_12\n      jumpi\n      dup1\n      0x8da5cb5b\n      eq\n      tag_7\n      jumpi\n      dup1\n      0xca5140c9\n      eq\n      tag_8\n      jumpi\n      dup1\n      0xce966b2b\n      eq\n      tag_9\n      jumpi\n      dup1\n      0xd6c084d9\n      eq\n      tag_10\n      jumpi\n      dup1\n      0xf2fde38b\n      eq\n      tag_11\n      jumpi\n      jump(tag_2)\n    tag_12:\n      dup1\n      0x264f2ecf\n      eq\n      tag_3\n      jumpi\n      dup1\n      0x51fede2b\n      eq\n      tag_4\n      jumpi\n      dup1\n      0x6265f92f\n      eq\n      tag_5\n      jumpi\n      dup1\n      0x715018a6\n      eq\n      tag_6\n      jumpi\n    tag_2:\n      0x00\n      dup1\n      revert\n        /* \"Library.sol\":863:1175  function addBooks(string memory _name, uint _bookCopies) public onlyOwner {... */\n    tag_3:\n      tag_13\n      0x04\n      dup1\n      calldatasize\n      sub\n      dup2\n      add\n      swap1\n      tag_14\n      swap2\n      swap1\n      tag_15\n      jump\t// in\n    tag_14:\n      tag_16\n      jump\t// in\n    tag_13:\n      stop\n        /* \"Library.sol\":5771:5860  function _getBooks() view external returns(Book[] memory) {... */\n    tag_4:\n      tag_17\n      tag_18\n      jump\t// in\n    tag_17:\n      mload(0x40)\n      tag_19\n      swap2\n      swap1\n      tag_20\n      jump\t// in\n    tag_19:\n      mload(0x40)\n      dup1\n      swap2\n      sub\n      swap1\n      return\n        /* \"Library.sol\":5868:5980  function _getAllTimeBorrowers() view external returns(address[] memory) {... */\n    tag_5:\n      tag_21\n      tag_22\n      jump\t// in\n    tag_21:\n      mload(0x40)\n      tag_23\n      swap2\n      swap1\n      tag_24\n      jump\t// in\n    tag_23:\n      mload(0x40)\n      dup1\n      swap2\n      sub\n      swap1\n      return\n        /* \"https://github.com/OpenZeppelin/openzeppelin-contracts/blob/master/contracts/access/Ownable.sol\":1824:1925  function renounceOwnership() public virtual onlyOwner {... */\n    tag_6:\n      tag_25\n      tag_26\n      jump\t// in\n    tag_25:\n      stop\n        /* \"https://github.com/OpenZeppelin/openzeppelin-contracts/blob/master/contracts/access/Ownable.sol\":1201:1286  function owner() public view virtual returns (address) {... */\n    tag_7:\n      tag_27\n      tag_28\n      jump\t// in\n    tag_27:\n      mload(0x40)\n      tag_29\n      swap2\n      swap1\n      tag_30\n      jump\t// in\n    tag_29:\n      mload(0x40)\n      dup1\n      swap2\n      sub\n      swap1\n      return\n        /* \"Library.sol\":4188:5763  function returnBook(uint _bookId) public {... */\n    tag_8:\n      tag_31\n      0x04\n      dup1\n      calldatasize\n      sub\n      dup2\n      add\n      swap1\n      tag_32\n      swap2\n      swap1\n      tag_33\n      jump\t// in\n    tag_32:\n      tag_34\n      jump\t// in\n    tag_31:\n      stop\n        /* \"Library.sol\":2492:3691  function reserveBook(uint _desiredBookId) public {... */\n    tag_9:\n      tag_35\n      0x04\n      dup1\n      calldatasize\n      sub\n      dup2\n      add\n      swap1\n      tag_36\n      swap2\n      swap1\n      tag_33\n      jump\t// in\n    tag_36:\n      tag_37\n      jump\t// in\n    tag_35:\n      stop\n        /* \"Library.sol\":1514:1904  function getAvailableBooks() public view returns(BookAndId[] memory) {... */\n    tag_10:\n      tag_38\n      tag_39\n      jump\t// in\n    tag_38:\n      mload(0x40)\n      tag_40\n      swap2\n      swap1\n      tag_41\n      jump\t// in\n    tag_40:\n      mload(0x40)\n      dup1\n      swap2\n      sub\n      swap1\n      return\n        /* \"https://github.com/OpenZeppelin/openzeppelin-contracts/blob/master/contracts/access/Ownable.sol\":2074:2272  function transferOwnership(address newOwner) public virtual onlyOwner {... */\n    tag_11:\n      tag_42\n      0x04\n      dup1\n      calldatasize\n      sub\n      dup2\n      add\n      swap1\n      tag_43\n      swap2\n      swap1\n      tag_44\n      jump\t// in\n    tag_43:\n      tag_45\n      jump\t// in\n    tag_42:\n      stop\n        /* \"Library.sol\":863:1175  function addBooks(string memory _name, uint _bookCopies) public onlyOwner {... */\n    tag_16:\n        /* \"https://github.com/OpenZeppelin/openzeppelin-contracts/blob/master/contracts/access/Ownable.sol\":1094:1107  _checkOwner() */\n      tag_47\n        /* \"https://github.com/OpenZeppelin/openzeppelin-contracts/blob/master/contracts/access/Ownable.sol\":1094:1105  _checkOwner */\n      tag_48\n        /* \"https://github.com/OpenZeppelin/openzeppelin-contracts/blob/master/contracts/access/Ownable.sol\":1094:1107  _checkOwner() */\n      jump\t// in\n    tag_47:\n        /* \"Library.sol\":970:971  0 */\n      0x00\n        /* \"Library.sol\":956:967  _bookCopies */\n      dup2\n        /* \"Library.sol\":956:971  _bookCopies > 0 */\n      gt\n        /* \"Library.sol\":948:1026  require(_bookCopies > 0, \"The amount of books to be added should be positive\") */\n      tag_50\n      jumpi\n      mload(0x40)\n      0x08c379a000000000000000000000000000000000000000000000000000000000\n      dup2\n      mstore\n      0x04\n      add\n      tag_51\n      swap1\n      tag_52\n      jump\t// in\n    tag_51:\n      mload(0x40)\n      dup1\n      swap2\n      sub\n      swap1\n      revert\n    tag_50:\n        /* \"Library.sol\":1037:1066  address[] memory newAddresses */\n      0x60\n        /* \"Library.sol\":1077:1082  books */\n      0x04\n        /* \"Library.sol\":1088:1139  Book(bookIdNonce, _bookCopies, newAddresses, _name) */\n      mload(0x40)\n      dup1\n      0x80\n      add\n      0x40\n      mstore\n      dup1\n        /* \"Library.sol\":1093:1104  bookIdNonce */\n      sload(0x01)\n        /* \"Library.sol\":1088:1139  Book(bookIdNonce, _bookCopies, newAddresses, _name) */\n      dup2\n      mstore\n      0x20\n      add\n        /* \"Library.sol\":1106:1117  _bookCopies */\n      dup5\n        /* \"Library.sol\":1088:1139  Book(bookIdNonce, _bookCopies, newAddresses, _name) */\n      dup2\n      mstore\n      0x20\n      add\n        /* \"Library.sol\":1119:1131  newAddresses */\n      dup4\n        /* \"Library.sol\":1088:1139  Book(bookIdNonce, _bookCopies, newAddresses, _name) */\n      dup2\n      mstore\n      0x20\n      add\n        /* \"Library.sol\":1133:1138  _name */\n      dup6\n        /* \"Library.sol\":1088:1139  Book(bookIdNonce, _bookCopies, newAddresses, _name) */\n      dup2\n      mstore\n      pop\n        /* \"Library.sol\":1077:1140  books.push(Book(bookIdNonce, _bookCopies, newAddresses, _name)) */\n      swap1\n      dup1\n      0x01\n      dup2\n      sload\n      add\n      dup1\n      dup3\n      sstore\n      dup1\n      swap2\n      pop\n      pop\n      0x01\n      swap1\n      sub\n      swap1\n      0x00\n      mstore\n      keccak256(0x00, 0x20)\n      swap1\n      0x04\n      mul\n      add\n      0x00\n      swap1\n      swap2\n      swap1\n      swap2\n      swap1\n      swap2\n      pop\n      0x00\n      dup3\n      add\n      mload\n      dup2\n      0x00\n      add\n      sstore\n      0x20\n      dup3\n      add\n      mload\n      dup2\n      0x01\n      add\n      sstore\n      0x40\n      dup3\n      add\n      mload\n      dup2\n      0x02\n      add\n      swap1\n      dup1\n      mload\n      swap1\n      0x20\n      add\n      swap1\n      tag_54\n      swap3\n      swap2\n      swap1\n      tag_55\n      jump\t// in\n    tag_54:\n      pop\n      0x60\n      dup3\n      add\n      mload\n      dup2\n      0x03\n      add\n      swap1\n      dup2\n      tag_56\n      swap2\n      swap1\n      tag_57\n      jump\t// in\n    tag_56:\n      pop\n      pop\n      pop\n        /* \"Library.sol\":1166:1167  1 */\n      0x01\n        /* \"Library.sol\":1151:1162  bookIdNonce */\n      dup1\n      0x00\n        /* \"Library.sol\":1151:1167  bookIdNonce += 1 */\n      dup3\n      dup3\n      sload\n      tag_58\n      swap2\n      swap1\n      tag_59\n      jump\t// in\n    tag_58:\n      swap3\n      pop\n      pop\n      dup2\n      swap1\n      sstore\n      pop\n        /* \"Library.sol\":937:1175  {... */\n      pop\n        /* \"Library.sol\":863:1175  function addBooks(string memory _name, uint _bookCopies) public onlyOwner {... */\n      pop\n      pop\n      jump\t// out\n        /* \"Library.sol\":5771:5860  function _getBooks() view external returns(Book[] memory) {... */\n    tag_18:\n        /* \"Library.sol\":5814:5827  Book[] memory */\n      0x60\n        /* \"Library.sol\":5847:5852  books */\n      0x04\n        /* \"Library.sol\":5840:5852  return books */\n      dup1\n      sload\n      dup1\n      0x20\n      mul\n      0x20\n      add\n      mload(0x40)\n      swap1\n      dup2\n      add\n      0x40\n      mstore\n      dup1\n      swap3\n      swap2\n      swap1\n      dup2\n      dup2\n      mstore\n      0x20\n      add\n      0x00\n      swap1\n    tag_61:\n      dup3\n      dup3\n      lt\n      iszero\n      tag_62\n      jumpi\n      dup4\n      dup3\n      swap1\n      0x00\n      mstore\n      keccak256(0x00, 0x20)\n      swap1\n      0x04\n      mul\n      add\n      mload(0x40)\n      dup1\n      0x80\n      add\n      0x40\n      mstore\n      swap1\n      dup2\n      0x00\n      dup3\n      add\n      sload\n      dup2\n      mstore\n      0x20\n      add\n      0x01\n      dup3\n      add\n      sload\n      dup2\n      mstore\n      0x20\n      add\n      0x02\n      dup3\n      add\n      dup1\n      sload\n      dup1\n      0x20\n      mul\n      0x20\n      add\n      mload(0x40)\n      swap1\n      dup2\n      add\n      0x40\n      mstore\n      dup1\n      swap3\n      swap2\n      swap1\n      dup2\n      dup2\n      mstore\n      0x20\n      add\n      dup3\n      dup1\n      sload\n      dup1\n      iszero\n      tag_64\n      jumpi\n      0x20\n      mul\n      dup3\n      add\n      swap2\n      swap1\n      0x00\n      mstore\n      keccak256(0x00, 0x20)\n      swap1\n    tag_65:\n      dup2\n      0x00\n      swap1\n      sload\n      swap1\n      0x0100\n      exp\n      swap1\n      div\n      0xffffffffffffffffffffffffffffffffffffffff\n      and\n      0xffffffffffffffffffffffffffffffffffffffff\n      and\n      dup2\n      mstore\n      0x20\n      add\n      swap1\n      0x01\n      add\n      swap1\n      dup1\n      dup4\n      gt\n      tag_65\n      jumpi\n    tag_64:\n      pop\n      pop\n      pop\n      pop\n      pop\n      dup2\n      mstore\n      0x20\n      add\n      0x03\n      dup3\n      add\n      dup1\n      sload\n      tag_66\n      swap1\n      tag_67\n      jump\t// in\n    tag_66:\n      dup1\n      0x1f\n      add\n      0x20\n      dup1\n      swap2\n      div\n      mul\n      0x20\n      add\n      mload(0x40)\n      swap1\n      dup2\n      add\n      0x40\n      mstore\n      dup1\n      swap3\n      swap2\n      swap1\n      dup2\n      dup2\n      mstore\n      0x20\n      add\n      dup3\n      dup1\n      sload\n      tag_68\n      swap1\n      tag_67\n      jump\t// in\n    tag_68:\n      dup1\n      iszero\n      tag_69\n      jumpi\n      dup1\n      0x1f\n      lt\n      tag_70\n      jumpi\n      0x0100\n      dup1\n      dup4\n      sload\n      div\n      mul\n      dup4\n      mstore\n      swap2\n      0x20\n      add\n      swap2\n      jump(tag_69)\n    tag_70:\n      dup3\n      add\n      swap2\n      swap1\n      0x00\n      mstore\n      keccak256(0x00, 0x20)\n      swap1\n    tag_71:\n      dup2\n      sload\n      dup2\n      mstore\n      swap1\n      0x01\n      add\n      swap1\n      0x20\n      add\n      dup1\n      dup4\n      gt\n      tag_71\n      jumpi\n      dup3\n      swap1\n      sub\n      0x1f\n      and\n      dup3\n      add\n      swap2\n    tag_69:\n      pop\n      pop\n      pop\n      pop\n      pop\n      dup2\n      mstore\n      pop\n      pop\n      dup2\n      mstore\n      0x20\n      add\n      swap1\n      0x01\n      add\n      swap1\n      jump(tag_61)\n    tag_62:\n      pop\n      pop\n      pop\n      pop\n      swap1\n      pop\n        /* \"Library.sol\":5771:5860  function _getBooks() view external returns(Book[] memory) {... */\n      swap1\n      jump\t// out\n        /* \"Library.sol\":5868:5980  function _getAllTimeBorrowers() view external returns(address[] memory) {... */\n    tag_22:\n        /* \"Library.sol\":5922:5938  address[] memory */\n      0x60\n        /* \"Library.sol\":5958:5972  allTimeHistory */\n      0x02\n        /* \"Library.sol\":5951:5972  return allTimeHistory */\n      dup1\n      sload\n      dup1\n      0x20\n      mul\n      0x20\n      add\n      mload(0x40)\n      swap1\n      dup2\n      add\n      0x40\n      mstore\n      dup1\n      swap3\n      swap2\n      swap1\n      dup2\n      dup2\n      mstore\n      0x20\n      add\n      dup3\n      dup1\n      sload\n      dup1\n      iszero\n      tag_73\n      jumpi\n      0x20\n      mul\n      dup3\n      add\n      swap2\n      swap1\n      0x00\n      mstore\n      keccak256(0x00, 0x20)\n      swap1\n    tag_74:\n      dup2\n      0x00\n      swap1\n      sload\n      swap1\n      0x0100\n      exp\n      swap1\n      div\n      0xffffffffffffffffffffffffffffffffffffffff\n      and\n      0xffffffffffffffffffffffffffffffffffffffff\n      and\n      dup2\n      mstore\n      0x20\n      add\n      swap1\n      0x01\n      add\n      swap1\n      dup1\n      dup4\n      gt\n      tag_74\n      jumpi\n    tag_73:\n      pop\n      pop\n      pop\n      pop\n      pop\n      swap1\n      pop\n        /* \"Library.sol\":5868:5980  function _getAllTimeBorrowers() view external returns(address[] memory) {... */\n      swap1\n      jump\t// out\n        /* \"https://github.com/OpenZeppelin/openzeppelin-contracts/blob/master/contracts/access/Ownable.sol\":1824:1925  function renounceOwnership() public virtual onlyOwner {... */\n    tag_26:\n        /* \"https://github.com/OpenZeppelin/openzeppelin-contracts/blob/master/contracts/access/Ownable.sol\":1094:1107  _checkOwner() */\n      tag_76\n        /* \"https://github.com/OpenZeppelin/openzeppelin-contracts/blob/master/contracts/access/Ownable.sol\":1094:1105  _checkOwner */\n      tag_48\n        /* \"https://github.com/OpenZeppelin/openzeppelin-contracts/blob/master/contracts/access/Ownable.sol\":1094:1107  _checkOwner() */\n      jump\t// in\n    tag_76:\n        /* \"https://github.com/OpenZeppelin/openzeppelin-contracts/blob/master/contracts/access/Ownable.sol\":1888:1918  _transferOwnership(address(0)) */\n      tag_78\n        /* \"https://github.com/OpenZeppelin/openzeppelin-contracts/blob/master/contracts/access/Ownable.sol\":1915:1916  0 */\n      0x00\n        /* \"https://github.com/OpenZeppelin/openzeppelin-contracts/blob/master/contracts/access/Ownable.sol\":1888:1906  _transferOwnership */\n      tag_79\n        /* \"https://github.com/OpenZeppelin/openzeppelin-contracts/blob/master/contracts/access/Ownable.sol\":1888:1918  _transferOwnership(address(0)) */\n      jump\t// in\n    tag_78:\n        /* \"https://github.com/OpenZeppelin/openzeppelin-contracts/blob/master/contracts/access/Ownable.sol\":1824:1925  function renounceOwnership() public virtual onlyOwner {... */\n      jump\t// out\n        /* \"https://github.com/OpenZeppelin/openzeppelin-contracts/blob/master/contracts/access/Ownable.sol\":1201:1286  function owner() public view virtual returns (address) {... */\n    tag_28:\n        /* \"https://github.com/OpenZeppelin/openzeppelin-contracts/blob/master/contracts/access/Ownable.sol\":1247:1254  address */\n      0x00\n        /* \"https://github.com/OpenZeppelin/openzeppelin-contracts/blob/master/contracts/access/Ownable.sol\":1273:1279  _owner */\n      dup1\n      0x00\n      swap1\n      sload\n      swap1\n      0x0100\n      exp\n      swap1\n      div\n      0xffffffffffffffffffffffffffffffffffffffff\n      and\n        /* \"https://github.com/OpenZeppelin/openzeppelin-contracts/blob/master/contracts/access/Ownable.sol\":1266:1279  return _owner */\n      swap1\n      pop\n        /* \"https://github.com/OpenZeppelin/openzeppelin-contracts/blob/master/contracts/access/Ownable.sol\":1201:1286  function owner() public view virtual returns (address) {... */\n      swap1\n      jump\t// out\n        /* \"Library.sol\":4188:5763  function returnBook(uint _bookId) public {... */\n    tag_34:\n        /* \"Library.sol\":4240:4266  uint[] storage _takenBooks */\n      0x00\n        /* \"Library.sol\":4269:4280  userToBooks */\n      0x03\n        /* \"Library.sol\":4269:4292  userToBooks[msg.sender] */\n      0x00\n        /* \"Library.sol\":4281:4291  msg.sender */\n      caller\n        /* \"Library.sol\":4269:4292  userToBooks[msg.sender] */\n      0xffffffffffffffffffffffffffffffffffffffff\n      and\n      0xffffffffffffffffffffffffffffffffffffffff\n      and\n      dup2\n      mstore\n      0x20\n      add\n      swap1\n      dup2\n      mstore\n      0x20\n      add\n      0x00\n      keccak256\n        /* \"Library.sol\":4240:4292  uint[] storage _takenBooks = userToBooks[msg.sender] */\n      swap1\n      pop\n        /* \"Library.sol\":4332:4333  0 */\n      0x00\n        /* \"Library.sol\":4311:4322  _takenBooks */\n      dup2\n        /* \"Library.sol\":4311:4329  _takenBooks.length */\n      dup1\n      sload\n      swap1\n      pop\n        /* \"Library.sol\":4311:4333  _takenBooks.length > 0 */\n      gt\n        /* \"Library.sol\":4303:4365  require(_takenBooks.length > 0, \"User has no books to return\") */\n      tag_82\n      jumpi\n      mload(0x40)\n      0x08c379a000000000000000000000000000000000000000000000000000000000\n      dup2\n      mstore\n      0x04\n      add\n      tag_83\n      swap1\n      tag_84\n      jump\t// in\n    tag_83:\n      mload(0x40)\n      dup1\n      swap2\n      sub\n      swap1\n      revert\n    tag_82:\n        /* \"Library.sol\":4378:4396  bool doesBookExist */\n      0x00\n        /* \"Library.sol\":4415:4443  uint[] memory _newTakenBooks */\n      dup1\n        /* \"Library.sol\":4476:4477  1 */\n      0x01\n        /* \"Library.sol\":4457:4468  _takenBooks */\n      dup4\n        /* \"Library.sol\":4457:4475  _takenBooks.length */\n      dup1\n      sload\n      swap1\n      pop\n        /* \"Library.sol\":4457:4477  _takenBooks.length-1 */\n      tag_85\n      swap2\n      swap1\n      tag_86\n      jump\t// in\n    tag_85:\n        /* \"Library.sol\":4446:4478  new uint[](_takenBooks.length-1) */\n      0xffffffffffffffff\n      dup2\n      gt\n      iszero\n      tag_87\n      jumpi\n      tag_88\n      tag_89\n      jump\t// in\n    tag_88:\n    tag_87:\n      mload(0x40)\n      swap1\n      dup1\n      dup3\n      mstore\n      dup1\n      0x20\n      mul\n      0x20\n      add\n      dup3\n      add\n      0x40\n      mstore\n      dup1\n      iszero\n      tag_90\n      jumpi\n      dup2\n      0x20\n      add\n      0x20\n      dup3\n      mul\n      dup1\n      calldatasize\n      dup4\n      calldatacopy\n      dup1\n      dup3\n      add\n      swap2\n      pop\n      pop\n      swap1\n      pop\n    tag_90:\n      pop\n        /* \"Library.sol\":4415:4478  uint[] memory _newTakenBooks = new uint[](_takenBooks.length-1) */\n      swap1\n      pop\n        /* \"Library.sol\":4489:4501  uint counter */\n      0x00\n        /* \"Library.sol\":4520:4526  uint i */\n      dup1\n        /* \"Library.sol\":4516:4795  for(uint i = 0; i < _takenBooks.length; i++) {... */\n    tag_91:\n        /* \"Library.sol\":4536:4547  _takenBooks */\n      dup5\n        /* \"Library.sol\":4536:4554  _takenBooks.length */\n      dup1\n      sload\n      swap1\n      pop\n        /* \"Library.sol\":4532:4533  i */\n      dup2\n        /* \"Library.sol\":4532:4554  i < _takenBooks.length */\n      lt\n        /* \"Library.sol\":4516:4795  for(uint i = 0; i < _takenBooks.length; i++) {... */\n      iszero\n      tag_92\n      jumpi\n        /* \"Library.sol\":4597:4604  _bookId */\n      dup6\n        /* \"Library.sol\":4579:4590  _takenBooks */\n      dup6\n        /* \"Library.sol\":4591:4592  i */\n      dup3\n        /* \"Library.sol\":4579:4593  _takenBooks[i] */\n      dup2\n      sload\n      dup2\n      lt\n      tag_94\n      jumpi\n      tag_95\n      tag_96\n      jump\t// in\n    tag_95:\n    tag_94:\n      swap1\n      0x00\n      mstore\n      keccak256(0x00, 0x20)\n      add\n      sload\n        /* \"Library.sol\":4579:4604  _takenBooks[i] == _bookId */\n      sub\n        /* \"Library.sol\":4576:4784  if(_takenBooks[i] == _bookId) {... */\n      tag_98\n      jumpi\n        /* \"Library.sol\":4641:4645  true */\n      0x01\n        /* \"Library.sol\":4625:4645  doesBookExist = true */\n      swap4\n      pop\n        /* \"Library.sol\":4576:4784  if(_takenBooks[i] == _bookId) {... */\n      jump(tag_99)\n    tag_98:\n        /* \"Library.sol\":4713:4724  _takenBooks */\n      dup5\n        /* \"Library.sol\":4725:4726  i */\n      dup2\n        /* \"Library.sol\":4713:4727  _takenBooks[i] */\n      dup2\n      sload\n      dup2\n      lt\n      tag_100\n      jumpi\n      tag_101\n      tag_96\n      jump\t// in\n    tag_101:\n    tag_100:\n      swap1\n      0x00\n      mstore\n      keccak256(0x00, 0x20)\n      add\n      sload\n        /* \"Library.sol\":4686:4700  _newTakenBooks */\n      dup4\n        /* \"Library.sol\":4701:4708  counter */\n      dup4\n        /* \"Library.sol\":4686:4709  _newTakenBooks[counter] */\n      dup2\n      mload\n      dup2\n      lt\n      tag_103\n      jumpi\n      tag_104\n      tag_96\n      jump\t// in\n    tag_104:\n    tag_103:\n      0x20\n      mul\n      0x20\n      add\n      add\n        /* \"Library.sol\":4686:4728  _newTakenBooks[counter] = (_takenBooks[i]) */\n      dup2\n      dup2\n      mstore\n      pop\n      pop\n        /* \"Library.sol\":4767:4768  1 */\n      0x01\n        /* \"Library.sol\":4757:4764  counter */\n      dup3\n        /* \"Library.sol\":4757:4768  counter + 1 */\n      tag_105\n      swap2\n      swap1\n      tag_59\n      jump\t// in\n    tag_105:\n        /* \"Library.sol\":4747:4768  counter = counter + 1 */\n      swap2\n      pop\n        /* \"Library.sol\":4576:4784  if(_takenBooks[i] == _bookId) {... */\n    tag_99:\n        /* \"Library.sol\":4556:4559  i++ */\n      dup1\n      dup1\n      tag_106\n      swap1\n      tag_107\n      jump\t// in\n    tag_106:\n      swap2\n      pop\n      pop\n        /* \"Library.sol\":4516:4795  for(uint i = 0; i < _takenBooks.length; i++) {... */\n      jump(tag_91)\n    tag_92:\n      pop\n        /* \"Library.sol\":4830:4834  true */\n      0x01\n        /* \"Library.sol\":4813:4834  doesBookExist == true */\n      iszero\n      iszero\n        /* \"Library.sol\":4813:4826  doesBookExist */\n      dup4\n        /* \"Library.sol\":4813:4834  doesBookExist == true */\n      iszero\n      iszero\n      eq\n        /* \"Library.sol\":4805:4878  require(doesBookExist == true, \"User has not reserved book with such id\") */\n      tag_108\n      jumpi\n      mload(0x40)\n      0x08c379a000000000000000000000000000000000000000000000000000000000\n      dup2\n      mstore\n      0x04\n      add\n      tag_109\n      swap1\n      tag_110\n      jump\t// in\n    tag_109:\n      mload(0x40)\n      dup1\n      swap2\n      sub\n      swap1\n      revert\n    tag_108:\n        /* \"Library.sol\":4917:4931  _newTakenBooks */\n      dup2\n        /* \"Library.sol\":4891:4902  userToBooks */\n      0x03\n        /* \"Library.sol\":4891:4914  userToBooks[msg.sender] */\n      0x00\n        /* \"Library.sol\":4903:4913  msg.sender */\n      caller\n        /* \"Library.sol\":4891:4914  userToBooks[msg.sender] */\n      0xffffffffffffffffffffffffffffffffffffffff\n      and\n      0xffffffffffffffffffffffffffffffffffffffff\n      and\n      dup2\n      mstore\n      0x20\n      add\n      swap1\n      dup2\n      mstore\n      0x20\n      add\n      0x00\n      keccak256\n        /* \"Library.sol\":4891:4931  userToBooks[msg.sender] = _newTakenBooks */\n      swap1\n      dup1\n      mload\n      swap1\n      0x20\n      add\n      swap1\n      tag_111\n      swap3\n      swap2\n      swap1\n      tag_112\n      jump\t// in\n    tag_111:\n      pop\n        /* \"Library.sol\":4942:4956  bool bookFound */\n      0x00\n        /* \"Library.sol\":4979:4985  uint i */\n      dup1\n        /* \"Library.sol\":4975:5146  for(uint i = 0; i < books.length; i++) {... */\n    tag_113:\n        /* \"Library.sol\":4995:5000  books */\n      0x04\n        /* \"Library.sol\":4995:5007  books.length */\n      dup1\n      sload\n      swap1\n      pop\n        /* \"Library.sol\":4991:4992  i */\n      dup2\n        /* \"Library.sol\":4991:5007  i < books.length */\n      lt\n        /* \"Library.sol\":4975:5146  for(uint i = 0; i < books.length; i++) {... */\n      iszero\n      tag_114\n      jumpi\n        /* \"Library.sol\":5051:5058  _bookId */\n      dup7\n        /* \"Library.sol\":5032:5037  books */\n      0x04\n        /* \"Library.sol\":5038:5039  i */\n      dup3\n        /* \"Library.sol\":5032:5040  books[i] */\n      dup2\n      sload\n      dup2\n      lt\n      tag_116\n      jumpi\n      tag_117\n      tag_96\n      jump\t// in\n    tag_117:\n    tag_116:\n      swap1\n      0x00\n      mstore\n      keccak256(0x00, 0x20)\n      swap1\n      0x04\n      mul\n      add\n        /* \"Library.sol\":5032:5047  books[i].bookId */\n      0x00\n      add\n      sload\n        /* \"Library.sol\":5032:5058  books[i].bookId == _bookId */\n      sub\n        /* \"Library.sol\":5029:5135  if(books[i].bookId == _bookId) {... */\n      tag_119\n      jumpi\n        /* \"Library.sol\":5091:5095  true */\n      0x01\n        /* \"Library.sol\":5079:5095  bookFound = true */\n      swap2\n      pop\n        /* \"Library.sol\":5114:5119  break */\n      jump(tag_114)\n        /* \"Library.sol\":5029:5135  if(books[i].bookId == _bookId) {... */\n    tag_119:\n        /* \"Library.sol\":5009:5012  i++ */\n      dup1\n      dup1\n      tag_120\n      swap1\n      tag_107\n      jump\t// in\n    tag_120:\n      swap2\n      pop\n      pop\n        /* \"Library.sol\":4975:5146  for(uint i = 0; i < books.length; i++) {... */\n      jump(tag_113)\n    tag_114:\n      pop\n        /* \"Library.sol\":5164:5173  bookFound */\n      dup1\n        /* \"Library.sol\":5156:5199  require(bookFound, \"There is no such book\") */\n      tag_121\n      jumpi\n      mload(0x40)\n      0x08c379a000000000000000000000000000000000000000000000000000000000\n      dup2\n      mstore\n      0x04\n      add\n      tag_122\n      swap1\n      tag_123\n      jump\t// in\n    tag_122:\n      mload(0x40)\n      dup1\n      swap2\n      sub\n      swap1\n      revert\n    tag_121:\n        /* \"Library.sol\":5221:5246  Book storage returnedBook */\n      0x00\n        /* \"Library.sol\":5249:5254  books */\n      0x04\n        /* \"Library.sol\":5255:5262  _bookId */\n      dup8\n        /* \"Library.sol\":5249:5263  books[_bookId] */\n      dup2\n      sload\n      dup2\n      lt\n      tag_124\n      jumpi\n      tag_125\n      tag_96\n      jump\t// in\n    tag_125:\n    tag_124:\n      swap1\n      0x00\n      mstore\n      keccak256(0x00, 0x20)\n      swap1\n      0x04\n      mul\n      add\n        /* \"Library.sol\":5221:5263  Book storage returnedBook = books[_bookId] */\n      swap1\n      pop\n        /* \"Library.sol\":5274:5307  address[] memory newUsersHavingIt */\n      0x00\n        /* \"Library.sol\":5360:5361  1 */\n      0x01\n        /* \"Library.sol\":5324:5336  returnedBook */\n      dup3\n        /* \"Library.sol\":5324:5350  returnedBook.usersHavingIt */\n      0x02\n      add\n        /* \"Library.sol\":5324:5357  returnedBook.usersHavingIt.length */\n      dup1\n      sload\n      swap1\n      pop\n        /* \"Library.sol\":5324:5361  returnedBook.usersHavingIt.length - 1 */\n      tag_127\n      swap2\n      swap1\n      tag_86\n      jump\t// in\n    tag_127:\n        /* \"Library.sol\":5310:5362  new address[](returnedBook.usersHavingIt.length - 1) */\n      0xffffffffffffffff\n      dup2\n      gt\n      iszero\n      tag_128\n      jumpi\n      tag_129\n      tag_89\n      jump\t// in\n    tag_129:\n    tag_128:\n      mload(0x40)\n      swap1\n      dup1\n      dup3\n      mstore\n      dup1\n      0x20\n      mul\n      0x20\n      add\n      dup3\n      add\n      0x40\n      mstore\n      dup1\n      iszero\n      tag_130\n      jumpi\n      dup2\n      0x20\n      add\n      0x20\n      dup3\n      mul\n      dup1\n      calldatasize\n      dup4\n      calldatacopy\n      dup1\n      dup3\n      add\n      swap2\n      pop\n      pop\n      swap1\n      pop\n    tag_130:\n      pop\n        /* \"Library.sol\":5274:5362  address[] memory newUsersHavingIt = new address[](returnedBook.usersHavingIt.length - 1) */\n      swap1\n      pop\n        /* \"Library.sol\":5432:5433  0 */\n      0x00\n        /* \"Library.sol\":5422:5433  counter = 0 */\n      swap4\n      pop\n        /* \"Library.sol\":5450:5456  uint i */\n      0x00\n        /* \"Library.sol\":5446:5700  for(uint i = 0; i < returnedBook.usersHavingIt.length; i++) {... */\n    tag_131:\n        /* \"Library.sol\":5466:5478  returnedBook */\n      dup3\n        /* \"Library.sol\":5466:5492  returnedBook.usersHavingIt */\n      0x02\n      add\n        /* \"Library.sol\":5466:5499  returnedBook.usersHavingIt.length */\n      dup1\n      sload\n      swap1\n      pop\n        /* \"Library.sol\":5462:5463  i */\n      dup2\n        /* \"Library.sol\":5462:5499  i < returnedBook.usersHavingIt.length */\n      lt\n        /* \"Library.sol\":5446:5700  for(uint i = 0; i < returnedBook.usersHavingIt.length; i++) {... */\n      iszero\n      tag_132\n      jumpi\n        /* \"Library.sol\":5557:5567  msg.sender */\n      caller\n        /* \"Library.sol\":5524:5567  returnedBook.usersHavingIt[i] != msg.sender */\n      0xffffffffffffffffffffffffffffffffffffffff\n      and\n        /* \"Library.sol\":5524:5536  returnedBook */\n      dup4\n        /* \"Library.sol\":5524:5550  returnedBook.usersHavingIt */\n      0x02\n      add\n        /* \"Library.sol\":5551:5552  i */\n      dup3\n        /* \"Library.sol\":5524:5553  returnedBook.usersHavingIt[i] */\n      dup2\n      sload\n      dup2\n      lt\n      tag_134\n      jumpi\n      tag_135\n      tag_96\n      jump\t// in\n    tag_135:\n    tag_134:\n      swap1\n      0x00\n      mstore\n      keccak256(0x00, 0x20)\n      add\n      0x00\n      swap1\n      sload\n      swap1\n      0x0100\n      exp\n      swap1\n      div\n      0xffffffffffffffffffffffffffffffffffffffff\n      and\n        /* \"Library.sol\":5524:5567  returnedBook.usersHavingIt[i] != msg.sender */\n      0xffffffffffffffffffffffffffffffffffffffff\n      and\n      eq\n        /* \"Library.sol\":5521:5689  if(returnedBook.usersHavingIt[i] != msg.sender) {... */\n      tag_137\n      jumpi\n        /* \"Library.sol\":5616:5628  returnedBook */\n      dup3\n        /* \"Library.sol\":5616:5642  returnedBook.usersHavingIt */\n      0x02\n      add\n        /* \"Library.sol\":5643:5644  i */\n      dup2\n        /* \"Library.sol\":5616:5645  returnedBook.usersHavingIt[i] */\n      dup2\n      sload\n      dup2\n      lt\n      tag_138\n      jumpi\n      tag_139\n      tag_96\n      jump\t// in\n    tag_139:\n    tag_138:\n      swap1\n      0x00\n      mstore\n      keccak256(0x00, 0x20)\n      add\n      0x00\n      swap1\n      sload\n      swap1\n      0x0100\n      exp\n      swap1\n      div\n      0xffffffffffffffffffffffffffffffffffffffff\n      and\n        /* \"Library.sol\":5588:5604  newUsersHavingIt */\n      dup3\n        /* \"Library.sol\":5605:5612  counter */\n      dup7\n        /* \"Library.sol\":5588:5613  newUsersHavingIt[counter] */\n      dup2\n      mload\n      dup2\n      lt\n      tag_141\n      jumpi\n      tag_142\n      tag_96\n      jump\t// in\n    tag_142:\n    tag_141:\n      0x20\n      mul\n      0x20\n      add\n      add\n        /* \"Library.sol\":5588:5645  newUsersHavingIt[counter] = returnedBook.usersHavingIt[i] */\n      swap1\n      0xffffffffffffffffffffffffffffffffffffffff\n      and\n      swap1\n      dup2\n      0xffffffffffffffffffffffffffffffffffffffff\n      and\n      dup2\n      mstore\n      pop\n      pop\n        /* \"Library.sol\":5664:5673  counter++ */\n      dup5\n      dup1\n      tag_143\n      swap1\n      tag_107\n      jump\t// in\n    tag_143:\n      swap6\n      pop\n      pop\n        /* \"Library.sol\":5521:5689  if(returnedBook.usersHavingIt[i] != msg.sender) {... */\n    tag_137:\n        /* \"Library.sol\":5501:5504  i++ */\n      dup1\n      dup1\n      tag_144\n      swap1\n      tag_107\n      jump\t// in\n    tag_144:\n      swap2\n      pop\n      pop\n        /* \"Library.sol\":5446:5700  for(uint i = 0; i < returnedBook.usersHavingIt.length; i++) {... */\n      jump(tag_131)\n    tag_132:\n      pop\n        /* \"Library.sol\":5739:5755  newUsersHavingIt */\n      dup1\n        /* \"Library.sol\":5710:5722  returnedBook */\n      dup3\n        /* \"Library.sol\":5710:5736  returnedBook.usersHavingIt */\n      0x02\n      add\n        /* \"Library.sol\":5710:5755  returnedBook.usersHavingIt = newUsersHavingIt */\n      swap1\n      dup1\n      mload\n      swap1\n      0x20\n      add\n      swap1\n      tag_145\n      swap3\n      swap2\n      swap1\n      tag_55\n      jump\t// in\n    tag_145:\n      pop\n        /* \"Library.sol\":4229:5763  {... */\n      pop\n      pop\n      pop\n      pop\n      pop\n      pop\n      pop\n        /* \"Library.sol\":4188:5763  function returnBook(uint _bookId) public {... */\n      pop\n      jump\t// out\n        /* \"Library.sol\":2492:3691  function reserveBook(uint _desiredBookId) public {... */\n    tag_37:\n        /* \"Library.sol\":2552:2567  bool _bookFound */\n      0x00\n        /* \"Library.sol\":2590:2596  uint i */\n      dup1\n        /* \"Library.sol\":2586:2765  for(uint i = 0; i < books.length; i++) {... */\n    tag_147:\n        /* \"Library.sol\":2606:2611  books */\n      0x04\n        /* \"Library.sol\":2606:2618  books.length */\n      dup1\n      sload\n      swap1\n      pop\n        /* \"Library.sol\":2602:2603  i */\n      dup2\n        /* \"Library.sol\":2602:2618  i < books.length */\n      lt\n        /* \"Library.sol\":2586:2765  for(uint i = 0; i < books.length; i++) {... */\n      iszero\n      tag_148\n      jumpi\n        /* \"Library.sol\":2662:2676  _desiredBookId */\n      dup3\n        /* \"Library.sol\":2643:2648  books */\n      0x04\n        /* \"Library.sol\":2649:2650  i */\n      dup3\n        /* \"Library.sol\":2643:2651  books[i] */\n      dup2\n      sload\n      dup2\n      lt\n      tag_150\n      jumpi\n      tag_151\n      tag_96\n      jump\t// in\n    tag_151:\n    tag_150:\n      swap1\n      0x00\n      mstore\n      keccak256(0x00, 0x20)\n      swap1\n      0x04\n      mul\n      add\n        /* \"Library.sol\":2643:2658  books[i].bookId */\n      0x00\n      add\n      sload\n        /* \"Library.sol\":2643:2676  books[i].bookId == _desiredBookId */\n      sub\n        /* \"Library.sol\":2640:2754  if(books[i].bookId == _desiredBookId) {... */\n      tag_153\n      jumpi\n        /* \"Library.sol\":2710:2714  true */\n      0x01\n        /* \"Library.sol\":2697:2714  _bookFound = true */\n      swap2\n      pop\n        /* \"Library.sol\":2733:2738  break */\n      jump(tag_148)\n        /* \"Library.sol\":2640:2754  if(books[i].bookId == _desiredBookId) {... */\n    tag_153:\n        /* \"Library.sol\":2620:2623  i++ */\n      dup1\n      dup1\n      tag_154\n      swap1\n      tag_107\n      jump\t// in\n    tag_154:\n      swap2\n      pop\n      pop\n        /* \"Library.sol\":2586:2765  for(uint i = 0; i < books.length; i++) {... */\n      jump(tag_147)\n    tag_148:\n      pop\n        /* \"Library.sol\":2783:2793  _bookFound */\n      dup1\n        /* \"Library.sol\":2775:2819  require(_bookFound, \"There is no such book\") */\n      tag_155\n      jumpi\n      mload(0x40)\n      0x08c379a000000000000000000000000000000000000000000000000000000000\n      dup2\n      mstore\n      0x04\n      add\n      tag_156\n      swap1\n      tag_123\n      jump\t// in\n    tag_156:\n      mload(0x40)\n      dup1\n      swap2\n      sub\n      swap1\n      revert\n    tag_155:\n        /* \"Library.sol\":2833:2858  Book storage _desiredBook */\n      0x00\n        /* \"Library.sol\":2861:2866  books */\n      0x04\n        /* \"Library.sol\":2867:2881  _desiredBookId */\n      dup4\n        /* \"Library.sol\":2861:2882  books[_desiredBookId] */\n      dup2\n      sload\n      dup2\n      lt\n      tag_157\n      jumpi\n      tag_158\n      tag_96\n      jump\t// in\n    tag_158:\n    tag_157:\n      swap1\n      0x00\n      mstore\n      keccak256(0x00, 0x20)\n      swap1\n      0x04\n      mul\n      add\n        /* \"Library.sol\":2833:2882  Book storage _desiredBook = books[_desiredBookId] */\n      swap1\n      pop\n        /* \"Library.sol\":2923:2935  _desiredBook */\n      dup1\n        /* \"Library.sol\":2923:2949  _desiredBook.usersHavingIt */\n      0x02\n      add\n        /* \"Library.sol\":2923:2956  _desiredBook.usersHavingIt.length */\n      dup1\n      sload\n      swap1\n      pop\n        /* \"Library.sol\":2901:2913  _desiredBook */\n      dup2\n        /* \"Library.sol\":2901:2920  _desiredBook.copies */\n      0x01\n      add\n      sload\n        /* \"Library.sol\":2901:2956  _desiredBook.copies > _desiredBook.usersHavingIt.length */\n      gt\n        /* \"Library.sol\":2893:2981  require(_desiredBook.copies > _desiredBook.usersHavingIt.length, \"All copies are taken\") */\n      tag_160\n      jumpi\n      mload(0x40)\n      0x08c379a000000000000000000000000000000000000000000000000000000000\n      dup2\n      mstore\n      0x04\n      add\n      tag_161\n      swap1\n      tag_162\n      jump\t// in\n    tag_161:\n      mload(0x40)\n      dup1\n      swap2\n      sub\n      swap1\n      revert\n    tag_160:\n        /* \"Library.sol\":2994:3020  uint[] storage _takenBooks */\n      0x00\n        /* \"Library.sol\":3023:3034  userToBooks */\n      0x03\n        /* \"Library.sol\":3023:3046  userToBooks[msg.sender] */\n      0x00\n        /* \"Library.sol\":3035:3045  msg.sender */\n      caller\n        /* \"Library.sol\":3023:3046  userToBooks[msg.sender] */\n      0xffffffffffffffffffffffffffffffffffffffff\n      and\n      0xffffffffffffffffffffffffffffffffffffffff\n      and\n      dup2\n      mstore\n      0x20\n      add\n      swap1\n      dup2\n      mstore\n      0x20\n      add\n      0x00\n      keccak256\n        /* \"Library.sol\":2994:3046  uint[] storage _takenBooks = userToBooks[msg.sender] */\n      swap1\n      pop\n        /* \"Library.sol\":3061:3067  uint i */\n      0x00\n        /* \"Library.sol\":3057:3249  for(uint i = 0; i < _takenBooks.length; i++) {... */\n    tag_163:\n        /* \"Library.sol\":3077:3088  _takenBooks */\n      dup2\n        /* \"Library.sol\":3077:3095  _takenBooks.length */\n      dup1\n      sload\n      swap1\n      pop\n        /* \"Library.sol\":3073:3074  i */\n      dup2\n        /* \"Library.sol\":3073:3095  i < _takenBooks.length */\n      lt\n        /* \"Library.sol\":3057:3249  for(uint i = 0; i < _takenBooks.length; i++) {... */\n      iszero\n      tag_164\n      jumpi\n        /* \"Library.sol\":3138:3152  _desiredBookId */\n      dup5\n        /* \"Library.sol\":3120:3131  _takenBooks */\n      dup3\n        /* \"Library.sol\":3132:3133  i */\n      dup3\n        /* \"Library.sol\":3120:3134  _takenBooks[i] */\n      dup2\n      sload\n      dup2\n      lt\n      tag_166\n      jumpi\n      tag_167\n      tag_96\n      jump\t// in\n    tag_167:\n    tag_166:\n      swap1\n      0x00\n      mstore\n      keccak256(0x00, 0x20)\n      add\n      sload\n        /* \"Library.sol\":3120:3152  _takenBooks[i] == _desiredBookId */\n      sub\n        /* \"Library.sol\":3117:3238  if(_takenBooks[i] == _desiredBookId) {... */\n      tag_169\n      jumpi\n        /* \"Library.sol\":3173:3222  revert(\"The user already has a copy of the book\") */\n      mload(0x40)\n      0x08c379a000000000000000000000000000000000000000000000000000000000\n      dup2\n      mstore\n      0x04\n      add\n      tag_170\n      swap1\n      tag_171\n      jump\t// in\n    tag_170:\n      mload(0x40)\n      dup1\n      swap2\n      sub\n      swap1\n      revert\n        /* \"Library.sol\":3117:3238  if(_takenBooks[i] == _desiredBookId) {... */\n    tag_169:\n        /* \"Library.sol\":3097:3100  i++ */\n      dup1\n      dup1\n      tag_172\n      swap1\n      tag_107\n      jump\t// in\n    tag_172:\n      swap2\n      pop\n      pop\n        /* \"Library.sol\":3057:3249  for(uint i = 0; i < _takenBooks.length; i++) {... */\n      jump(tag_163)\n    tag_164:\n      pop\n        /* \"Library.sol\":3259:3271  _desiredBook */\n      dup2\n        /* \"Library.sol\":3259:3285  _desiredBook.usersHavingIt */\n      0x02\n      add\n        /* \"Library.sol\":3291:3301  msg.sender */\n      caller\n        /* \"Library.sol\":3259:3302  _desiredBook.usersHavingIt.push(msg.sender) */\n      swap1\n      dup1\n      0x01\n      dup2\n      sload\n      add\n      dup1\n      dup3\n      sstore\n      dup1\n      swap2\n      pop\n      pop\n      0x01\n      swap1\n      sub\n      swap1\n      0x00\n      mstore\n      keccak256(0x00, 0x20)\n      add\n      0x00\n      swap1\n      swap2\n      swap1\n      swap2\n      swap1\n      swap2\n      0x0100\n      exp\n      dup2\n      sload\n      dup2\n      0xffffffffffffffffffffffffffffffffffffffff\n      mul\n      not\n      and\n      swap1\n      dup4\n      0xffffffffffffffffffffffffffffffffffffffff\n      and\n      mul\n      or\n      swap1\n      sstore\n      pop\n        /* \"Library.sol\":3313:3324  _takenBooks */\n      dup1\n        /* \"Library.sol\":3330:3344  _desiredBookId */\n      dup5\n        /* \"Library.sol\":3313:3345  _takenBooks.push(_desiredBookId) */\n      swap1\n      dup1\n      0x01\n      dup2\n      sload\n      add\n      dup1\n      dup3\n      sstore\n      dup1\n      swap2\n      pop\n      pop\n      0x01\n      swap1\n      sub\n      swap1\n      0x00\n      mstore\n      keccak256(0x00, 0x20)\n      add\n      0x00\n      swap1\n      swap2\n      swap1\n      swap2\n      swap1\n      swap2\n      pop\n      sstore\n        /* \"Library.sol\":3358:3377  bool _firstTimeUser */\n      0x00\n        /* \"Library.sol\":3402:3408  uint i */\n      dup1\n        /* \"Library.sol\":3398:3588  for(uint i = 0; i < allTimeHistory.length; i++) {... */\n    tag_175:\n        /* \"Library.sol\":3418:3432  allTimeHistory */\n      0x02\n        /* \"Library.sol\":3418:3439  allTimeHistory.length */\n      dup1\n      sload\n      swap1\n      pop\n        /* \"Library.sol\":3414:3415  i */\n      dup2\n        /* \"Library.sol\":3414:3439  i < allTimeHistory.length */\n      lt\n        /* \"Library.sol\":3398:3588  for(uint i = 0; i < allTimeHistory.length; i++) {... */\n      iszero\n      tag_176\n      jumpi\n        /* \"Library.sol\":3485:3495  msg.sender */\n      caller\n        /* \"Library.sol\":3464:3495  allTimeHistory[i] == msg.sender */\n      0xffffffffffffffffffffffffffffffffffffffff\n      and\n        /* \"Library.sol\":3464:3478  allTimeHistory */\n      0x02\n        /* \"Library.sol\":3479:3480  i */\n      dup3\n        /* \"Library.sol\":3464:3481  allTimeHistory[i] */\n      dup2\n      sload\n      dup2\n      lt\n      tag_178\n      jumpi\n      tag_179\n      tag_96\n      jump\t// in\n    tag_179:\n    tag_178:\n      swap1\n      0x00\n      mstore\n      keccak256(0x00, 0x20)\n      add\n      0x00\n      swap1\n      sload\n      swap1\n      0x0100\n      exp\n      swap1\n      div\n      0xffffffffffffffffffffffffffffffffffffffff\n      and\n        /* \"Library.sol\":3464:3495  allTimeHistory[i] == msg.sender */\n      0xffffffffffffffffffffffffffffffffffffffff\n      and\n      sub\n        /* \"Library.sol\":3461:3577  if(allTimeHistory[i] == msg.sender) {... */\n      tag_181\n      jumpi\n        /* \"Library.sol\":3533:3537  true */\n      0x01\n        /* \"Library.sol\":3516:3537  _firstTimeUser = true */\n      swap2\n      pop\n        /* \"Library.sol\":3556:3561  break */\n      jump(tag_176)\n        /* \"Library.sol\":3461:3577  if(allTimeHistory[i] == msg.sender) {... */\n    tag_181:\n        /* \"Library.sol\":3441:3444  i++ */\n      dup1\n      dup1\n      tag_182\n      swap1\n      tag_107\n      jump\t// in\n    tag_182:\n      swap2\n      pop\n      pop\n        /* \"Library.sol\":3398:3588  for(uint i = 0; i < allTimeHistory.length; i++) {... */\n      jump(tag_175)\n    tag_176:\n      pop\n        /* \"Library.sol\":3619:3624  false */\n      0x00\n        /* \"Library.sol\":3601:3624  _firstTimeUser == false */\n      iszero\n      iszero\n        /* \"Library.sol\":3601:3615  _firstTimeUser */\n      dup2\n        /* \"Library.sol\":3601:3624  _firstTimeUser == false */\n      iszero\n      iszero\n      sub\n        /* \"Library.sol\":3598:3684  if(_firstTimeUser == false) {... */\n      tag_183\n      jumpi\n        /* \"Library.sol\":3641:3655  allTimeHistory */\n      0x02\n        /* \"Library.sol\":3661:3671  msg.sender */\n      caller\n        /* \"Library.sol\":3641:3672  allTimeHistory.push(msg.sender) */\n      swap1\n      dup1\n      0x01\n      dup2\n      sload\n      add\n      dup1\n      dup3\n      sstore\n      dup1\n      swap2\n      pop\n      pop\n      0x01\n      swap1\n      sub\n      swap1\n      0x00\n      mstore\n      keccak256(0x00, 0x20)\n      add\n      0x00\n      swap1\n      swap2\n      swap1\n      swap2\n      swap1\n      swap2\n      0x0100\n      exp\n      dup2\n      sload\n      dup2\n      0xffffffffffffffffffffffffffffffffffffffff\n      mul\n      not\n      and\n      swap1\n      dup4\n      0xffffffffffffffffffffffffffffffffffffffff\n      and\n      mul\n      or\n      swap1\n      sstore\n      pop\n        /* \"Library.sol\":3598:3684  if(_firstTimeUser == false) {... */\n    tag_183:\n        /* \"Library.sol\":2541:3691  {... */\n      pop\n      pop\n      pop\n      pop\n        /* \"Library.sol\":2492:3691  function reserveBook(uint _desiredBookId) public {... */\n      pop\n      jump\t// out\n        /* \"Library.sol\":1514:1904  function getAvailableBooks() public view returns(BookAndId[] memory) {... */\n    tag_39:\n        /* \"Library.sol\":1563:1581  BookAndId[] memory */\n      0x60\n        /* \"Library.sol\":1594:1619  BookAndId[] memory result */\n      0x00\n        /* \"Library.sol\":1638:1643  books */\n      0x04\n        /* \"Library.sol\":1638:1650  books.length */\n      dup1\n      sload\n      swap1\n      pop\n        /* \"Library.sol\":1622:1651  new BookAndId[](books.length) */\n      0xffffffffffffffff\n      dup2\n      gt\n      iszero\n      tag_186\n      jumpi\n      tag_187\n      tag_89\n      jump\t// in\n    tag_187:\n    tag_186:\n      mload(0x40)\n      swap1\n      dup1\n      dup3\n      mstore\n      dup1\n      0x20\n      mul\n      0x20\n      add\n      dup3\n      add\n      0x40\n      mstore\n      dup1\n      iszero\n      tag_188\n      jumpi\n      dup2\n      0x20\n      add\n    tag_189:\n      tag_190\n      tag_191\n      jump\t// in\n    tag_190:\n      dup2\n      mstore\n      0x20\n      add\n      swap1\n      0x01\n      swap1\n      sub\n      swap1\n      dup2\n      tag_189\n      jumpi\n      swap1\n      pop\n    tag_188:\n      pop\n        /* \"Library.sol\":1594:1651  BookAndId[] memory result = new BookAndId[](books.length) */\n      swap1\n      pop\n        /* \"Library.sol\":1666:1672  uint i */\n      0x00\n        /* \"Library.sol\":1662:1863  for(uint i=0; i<books.length; i++) {... */\n    tag_192:\n        /* \"Library.sol\":1678:1683  books */\n      0x04\n        /* \"Library.sol\":1678:1690  books.length */\n      dup1\n      sload\n      swap1\n      pop\n        /* \"Library.sol\":1676:1677  i */\n      dup2\n        /* \"Library.sol\":1676:1690  i<books.length */\n      lt\n        /* \"Library.sol\":1662:1863  for(uint i=0; i<books.length; i++) {... */\n      iszero\n      tag_193\n      jumpi\n        /* \"Library.sol\":1733:1738  books */\n      0x04\n        /* \"Library.sol\":1739:1740  i */\n      dup2\n        /* \"Library.sol\":1733:1741  books[i] */\n      dup2\n      sload\n      dup2\n      lt\n      tag_195\n      jumpi\n      tag_196\n      tag_96\n      jump\t// in\n    tag_196:\n    tag_195:\n      swap1\n      0x00\n      mstore\n      keccak256(0x00, 0x20)\n      swap1\n      0x04\n      mul\n      add\n        /* \"Library.sol\":1733:1755  books[i].usersHavingIt */\n      0x02\n      add\n        /* \"Library.sol\":1733:1762  books[i].usersHavingIt.length */\n      dup1\n      sload\n      swap1\n      pop\n        /* \"Library.sol\":1715:1720  books */\n      0x04\n        /* \"Library.sol\":1721:1722  i */\n      dup3\n        /* \"Library.sol\":1715:1723  books[i] */\n      dup2\n      sload\n      dup2\n      lt\n      tag_198\n      jumpi\n      tag_199\n      tag_96\n      jump\t// in\n    tag_199:\n    tag_198:\n      swap1\n      0x00\n      mstore\n      keccak256(0x00, 0x20)\n      swap1\n      0x04\n      mul\n      add\n        /* \"Library.sol\":1715:1730  books[i].copies */\n      0x01\n      add\n      sload\n        /* \"Library.sol\":1715:1762  books[i].copies > books[i].usersHavingIt.length */\n      gt\n        /* \"Library.sol\":1712:1852  if(books[i].copies > books[i].usersHavingIt.length) {... */\n      iszero\n      tag_201\n      jumpi\n        /* \"Library.sol\":1795:1836  BookAndId(books[i].bookId, books[i].name) */\n      mload(0x40)\n      dup1\n      0x40\n      add\n      0x40\n      mstore\n      dup1\n        /* \"Library.sol\":1805:1810  books */\n      0x04\n        /* \"Library.sol\":1811:1812  i */\n      dup4\n        /* \"Library.sol\":1805:1813  books[i] */\n      dup2\n      sload\n      dup2\n      lt\n      tag_202\n      jumpi\n      tag_203\n      tag_96\n      jump\t// in\n    tag_203:\n    tag_202:\n      swap1\n      0x00\n      mstore\n      keccak256(0x00, 0x20)\n      swap1\n      0x04\n      mul\n      add\n        /* \"Library.sol\":1805:1820  books[i].bookId */\n      0x00\n      add\n      sload\n        /* \"Library.sol\":1795:1836  BookAndId(books[i].bookId, books[i].name) */\n      dup2\n      mstore\n      0x20\n      add\n        /* \"Library.sol\":1822:1827  books */\n      0x04\n        /* \"Library.sol\":1828:1829  i */\n      dup4\n        /* \"Library.sol\":1822:1830  books[i] */\n      dup2\n      sload\n      dup2\n      lt\n      tag_205\n      jumpi\n      tag_206\n      tag_96\n      jump\t// in\n    tag_206:\n    tag_205:\n      swap1\n      0x00\n      mstore\n      keccak256(0x00, 0x20)\n      swap1\n      0x04\n      mul\n      add\n        /* \"Library.sol\":1822:1835  books[i].name */\n      0x03\n      add\n        /* \"Library.sol\":1795:1836  BookAndId(books[i].bookId, books[i].name) */\n      dup1\n      sload\n      tag_208\n      swap1\n      tag_67\n      jump\t// in\n    tag_208:\n      dup1\n      0x1f\n      add\n      0x20\n      dup1\n      swap2\n      div\n      mul\n      0x20\n      add\n      mload(0x40)\n      swap1\n      dup2\n      add\n      0x40\n      mstore\n      dup1\n      swap3\n      swap2\n      swap1\n      dup2\n      dup2\n      mstore\n      0x20\n      add\n      dup3\n      dup1\n      sload\n      tag_209\n      swap1\n      tag_67\n      jump\t// in\n    tag_209:\n      dup1\n      iszero\n      tag_210\n      jumpi\n      dup1\n      0x1f\n      lt\n      tag_211\n      jumpi\n      0x0100\n      dup1\n      dup4\n      sload\n      div\n      mul\n      dup4\n      mstore\n      swap2\n      0x20\n      add\n      swap2\n      jump(tag_210)\n    tag_211:\n      dup3\n      add\n      swap2\n      swap1\n      0x00\n      mstore\n      keccak256(0x00, 0x20)\n      swap1\n    tag_212:\n      dup2\n      sload\n      dup2\n      mstore\n      swap1\n      0x01\n      add\n      swap1\n      0x20\n      add\n      dup1\n      dup4\n      gt\n      tag_212\n      jumpi\n      dup3\n      swap1\n      sub\n      0x1f\n      and\n      dup3\n      add\n      swap2\n    tag_210:\n      pop\n      pop\n      pop\n      pop\n      pop\n      dup2\n      mstore\n      pop\n        /* \"Library.sol\":1783:1789  result */\n      dup3\n        /* \"Library.sol\":1790:1791  i */\n      dup3\n        /* \"Library.sol\":1783:1792  result[i] */\n      dup2\n      mload\n      dup2\n      lt\n      tag_213\n      jumpi\n      tag_214\n      tag_96\n      jump\t// in\n    tag_214:\n    tag_213:\n      0x20\n      mul\n      0x20\n      add\n      add\n        /* \"Library.sol\":1783:1836  result[i] = BookAndId(books[i].bookId, books[i].name) */\n      dup2\n      swap1\n      mstore\n      pop\n        /* \"Library.sol\":1712:1852  if(books[i].copies > books[i].usersHavingIt.length) {... */\n    tag_201:\n        /* \"Library.sol\":1692:1695  i++ */\n      dup1\n      dup1\n      tag_215\n      swap1\n      tag_107\n      jump\t// in\n    tag_215:\n      swap2\n      pop\n      pop\n        /* \"Library.sol\":1662:1863  for(uint i=0; i<books.length; i++) {... */\n      jump(tag_192)\n    tag_193:\n      pop\n        /* \"Library.sol\":1890:1896  result */\n      dup1\n        /* \"Library.sol\":1883:1896  return result */\n      swap2\n      pop\n      pop\n        /* \"Library.sol\":1514:1904  function getAvailableBooks() public view returns(BookAndId[] memory) {... */\n      swap1\n      jump\t// out\n        /* \"https://github.com/OpenZeppelin/openzeppelin-contracts/blob/master/contracts/access/Ownable.sol\":2074:2272  function transferOwnership(address newOwner) public virtual onlyOwner {... */\n    tag_45:\n        /* \"https://github.com/OpenZeppelin/openzeppelin-contracts/blob/master/contracts/access/Ownable.sol\":1094:1107  _checkOwner() */\n      tag_217\n        /* \"https://github.com/OpenZeppelin/openzeppelin-contracts/blob/master/contracts/access/Ownable.sol\":1094:1105  _checkOwner */\n      tag_48\n        /* \"https://github.com/OpenZeppelin/openzeppelin-contracts/blob/master/contracts/access/Ownable.sol\":1094:1107  _checkOwner() */\n      jump\t// in\n    tag_217:\n        /* \"https://github.com/OpenZeppelin/openzeppelin-contracts/blob/master/contracts/access/Ownable.sol\":2182:2183  0 */\n      0x00\n        /* \"https://github.com/OpenZeppelin/openzeppelin-contracts/blob/master/contracts/access/Ownable.sol\":2162:2184  newOwner != address(0) */\n      0xffffffffffffffffffffffffffffffffffffffff\n      and\n        /* \"https://github.com/OpenZeppelin/openzeppelin-contracts/blob/master/contracts/access/Ownable.sol\":2162:2170  newOwner */\n      dup2\n        /* \"https://github.com/OpenZeppelin/openzeppelin-contracts/blob/master/contracts/access/Ownable.sol\":2162:2184  newOwner != address(0) */\n      0xffffffffffffffffffffffffffffffffffffffff\n      and\n      sub\n        /* \"https://github.com/OpenZeppelin/openzeppelin-contracts/blob/master/contracts/access/Ownable.sol\":2154:2227  require(newOwner != address(0), \"Ownable: new owner is the zero address\") */\n      tag_219\n      jumpi\n      mload(0x40)\n      0x08c379a000000000000000000000000000000000000000000000000000000000\n      dup2\n      mstore\n      0x04\n      add\n      tag_220\n      swap1\n      tag_221\n      jump\t// in\n    tag_220:\n      mload(0x40)\n      dup1\n      swap2\n      sub\n      swap1\n      revert\n    tag_219:\n        /* \"https://github.com/OpenZeppelin/openzeppelin-contracts/blob/master/contracts/access/Ownable.sol\":2237:2265  _transferOwnership(newOwner) */\n      tag_222\n        /* \"https://github.com/OpenZeppelin/openzeppelin-contracts/blob/master/contracts/access/Ownable.sol\":2256:2264  newOwner */\n      dup2\n        /* \"https://github.com/OpenZeppelin/openzeppelin-contracts/blob/master/contracts/access/Ownable.sol\":2237:2255  _transferOwnership */\n      tag_79\n        /* \"https://github.com/OpenZeppelin/openzeppelin-contracts/blob/master/contracts/access/Ownable.sol\":2237:2265  _transferOwnership(newOwner) */\n      jump\t// in\n    tag_222:\n        /* \"https://github.com/OpenZeppelin/openzeppelin-contracts/blob/master/contracts/access/Ownable.sol\":2074:2272  function transferOwnership(address newOwner) public virtual onlyOwner {... */\n      pop\n      jump\t// out\n        /* \"https://github.com/OpenZeppelin/openzeppelin-contracts/blob/master/contracts/access/Ownable.sol\":1359:1489  function _checkOwner() internal view virtual {... */\n    tag_48:\n        /* \"https://github.com/OpenZeppelin/openzeppelin-contracts/blob/master/contracts/access/Ownable.sol\":1433:1445  _msgSender() */\n      tag_224\n        /* \"https://github.com/OpenZeppelin/openzeppelin-contracts/blob/master/contracts/access/Ownable.sol\":1433:1443  _msgSender */\n      tag_225\n        /* \"https://github.com/OpenZeppelin/openzeppelin-contracts/blob/master/contracts/access/Ownable.sol\":1433:1445  _msgSender() */\n      jump\t// in\n    tag_224:\n        /* \"https://github.com/OpenZeppelin/openzeppelin-contracts/blob/master/contracts/access/Ownable.sol\":1422:1445  owner() == _msgSender() */\n      0xffffffffffffffffffffffffffffffffffffffff\n      and\n        /* \"https://github.com/OpenZeppelin/openzeppelin-contracts/blob/master/contracts/access/Ownable.sol\":1422:1429  owner() */\n      tag_226\n        /* \"https://github.com/OpenZeppelin/openzeppelin-contracts/blob/master/contracts/access/Ownable.sol\":1422:1427  owner */\n      tag_28\n        /* \"https://github.com/OpenZeppelin/openzeppelin-contracts/blob/master/contracts/access/Ownable.sol\":1422:1429  owner() */\n      jump\t// in\n    tag_226:\n        /* \"https://github.com/OpenZeppelin/openzeppelin-contracts/blob/master/contracts/access/Ownable.sol\":1422:1445  owner() == _msgSender() */\n      0xffffffffffffffffffffffffffffffffffffffff\n      and\n      eq\n        /* \"https://github.com/OpenZeppelin/openzeppelin-contracts/blob/master/contracts/access/Ownable.sol\":1414:1482  require(owner() == _msgSender(), \"Ownable: caller is not the owner\") */\n      tag_227\n      jumpi\n      mload(0x40)\n      0x08c379a000000000000000000000000000000000000000000000000000000000\n      dup2\n      mstore\n      0x04\n      add\n      tag_228\n      swap1\n      tag_229\n      jump\t// in\n    tag_228:\n      mload(0x40)\n      dup1\n      swap2\n      sub\n      swap1\n      revert\n    tag_227:\n        /* \"https://github.com/OpenZeppelin/openzeppelin-contracts/blob/master/contracts/access/Ownable.sol\":1359:1489  function _checkOwner() internal view virtual {... */\n      jump\t// out\n        /* \"https://github.com/OpenZeppelin/openzeppelin-contracts/blob/master/contracts/access/Ownable.sol\":2426:2613  function _transferOwnership(address newOwner) internal virtual {... */\n    tag_79:\n        /* \"https://github.com/OpenZeppelin/openzeppelin-contracts/blob/master/contracts/access/Ownable.sol\":2499:2515  address oldOwner */\n      0x00\n        /* \"https://github.com/OpenZeppelin/openzeppelin-contracts/blob/master/contracts/access/Ownable.sol\":2518:2524  _owner */\n      dup1\n      0x00\n      swap1\n      sload\n      swap1\n      0x0100\n      exp\n      swap1\n      div\n      0xffffffffffffffffffffffffffffffffffffffff\n      and\n        /* \"https://github.com/OpenZeppelin/openzeppelin-contracts/blob/master/contracts/access/Ownable.sol\":2499:2524  address oldOwner = _owner */\n      swap1\n      pop\n        /* \"https://github.com/OpenZeppelin/openzeppelin-contracts/blob/master/contracts/access/Ownable.sol\":2543:2551  newOwner */\n      dup2\n        /* \"https://github.com/OpenZeppelin/openzeppelin-contracts/blob/master/contracts/access/Ownable.sol\":2534:2540  _owner */\n      0x00\n      dup1\n        /* \"https://github.com/OpenZeppelin/openzeppelin-contracts/blob/master/contracts/access/Ownable.sol\":2534:2551  _owner = newOwner */\n      0x0100\n      exp\n      dup2\n      sload\n      dup2\n      0xffffffffffffffffffffffffffffffffffffffff\n      mul\n      not\n      and\n      swap1\n      dup4\n      0xffffffffffffffffffffffffffffffffffffffff\n      and\n      mul\n      or\n      swap1\n      sstore\n      pop\n        /* \"https://github.com/OpenZeppelin/openzeppelin-contracts/blob/master/contracts/access/Ownable.sol\":2597:2605  newOwner */\n      dup2\n        /* \"https://github.com/OpenZeppelin/openzeppelin-contracts/blob/master/contracts/access/Ownable.sol\":2566:2606  OwnershipTransferred(oldOwner, newOwner) */\n      0xffffffffffffffffffffffffffffffffffffffff\n      and\n        /* \"https://github.com/OpenZeppelin/openzeppelin-contracts/blob/master/contracts/access/Ownable.sol\":2587:2595  oldOwner */\n      dup2\n        /* \"https://github.com/OpenZeppelin/openzeppelin-contracts/blob/master/contracts/access/Ownable.sol\":2566:2606  OwnershipTransferred(oldOwner, newOwner) */\n      0xffffffffffffffffffffffffffffffffffffffff\n      and\n      0x8be0079c531659141344cd1fd0a4f28419497f9722a3daafe3b4186f6b6457e0\n      mload(0x40)\n      mload(0x40)\n      dup1\n      swap2\n      sub\n      swap1\n      log3\n        /* \"https://github.com/OpenZeppelin/openzeppelin-contracts/blob/master/contracts/access/Ownable.sol\":2489:2613  {... */\n      pop\n        /* \"https://github.com/OpenZeppelin/openzeppelin-contracts/blob/master/contracts/access/Ownable.sol\":2426:2613  function _transferOwnership(address newOwner) internal virtual {... */\n      pop\n      jump\t// out\n        /* \"https://github.com/OpenZeppelin/openzeppelin-contracts/blob/master/contracts/utils/Context.sol\":640:736  function _msgSender() internal view virtual returns (address) {... */\n    tag_225:\n        /* \"https://github.com/OpenZeppelin/openzeppelin-contracts/blob/master/contracts/utils/Context.sol\":693:700  address */\n      0x00\n        /* \"https://github.com/OpenZeppelin/openzeppelin-contracts/blob/master/contracts/utils/Context.sol\":719:729  msg.sender */\n      caller\n        /* \"https://github.com/OpenZeppelin/openzeppelin-contracts/blob/master/contracts/utils/Context.sol\":712:729  return msg.sender */\n      swap1\n      pop\n        /* \"https://github.com/OpenZeppelin/openzeppelin-contracts/blob/master/contracts/utils/Context.sol\":640:736  function _msgSender() internal view virtual returns (address) {... */\n      swap1\n      jump\t// out\n    tag_55:\n      dup3\n      dup1\n      sload\n      dup3\n      dup3\n      sstore\n      swap1\n      0x00\n      mstore\n      keccak256(0x00, 0x20)\n      swap1\n      dup2\n      add\n      swap3\n      dup3\n      iszero\n      tag_232\n      jumpi\n      swap2\n      0x20\n      mul\n      dup3\n      add\n    tag_233:\n      dup3\n      dup2\n      gt\n      iszero\n      tag_234\n      jumpi\n      dup3\n      mload\n      dup3\n      exp(0x0100, 0x00)\n      dup2\n      sload\n      dup2\n      0xffffffffffffffffffffffffffffffffffffffff\n      mul\n      not\n      and\n      swap1\n      dup4\n      0xffffffffffffffffffffffffffffffffffffffff\n      and\n      mul\n      or\n      swap1\n      sstore\n      pop\n      swap2\n      0x20\n      add\n      swap2\n      swap1\n      0x01\n      add\n      swap1\n      jump(tag_233)\n    tag_234:\n    tag_232:\n      pop\n      swap1\n      pop\n      tag_235\n      swap2\n      swap1\n      tag_236\n      jump\t// in\n    tag_235:\n      pop\n      swap1\n      jump\t// out\n    tag_112:\n      dup3\n      dup1\n      sload\n      dup3\n      dup3\n      sstore\n      swap1\n      0x00\n      mstore\n      keccak256(0x00, 0x20)\n      swap1\n      dup2\n      add\n      swap3\n      dup3\n      iszero\n      tag_237\n      jumpi\n      swap2\n      0x20\n      mul\n      dup3\n      add\n    tag_238:\n      dup3\n      dup2\n      gt\n      iszero\n      tag_239\n      jumpi\n      dup3\n      mload\n      dup3\n      sstore\n      swap2\n      0x20\n      add\n      swap2\n      swap1\n      0x01\n      add\n      swap1\n      jump(tag_238)\n    tag_239:\n    tag_237:\n      pop\n      swap1\n      pop\n      tag_240\n      swap2\n      swap1\n      tag_236\n      jump\t// in\n    tag_240:\n      pop\n      swap1\n      jump\t// out\n    tag_191:\n      mload(0x40)\n      dup1\n      0x40\n      add\n      0x40\n      mstore\n      dup1\n      0x00\n      dup2\n      mstore\n      0x20\n      add\n      0x60\n      dup2\n      mstore\n      pop\n      swap1\n      jump\t// out\n    tag_236:\n    tag_241:\n      dup1\n      dup3\n      gt\n      iszero\n      tag_242\n      jumpi\n      0x00\n      dup2\n      0x00\n      swap1\n      sstore\n      pop\n      0x01\n      add\n      jump(tag_241)\n    tag_242:\n      pop\n      swap1\n      jump\t// out\n        /* \"#utility.yul\":7:82   */\n    tag_243:\n        /* \"#utility.yul\":40:46   */\n      0x00\n        /* \"#utility.yul\":73:75   */\n      0x40\n        /* \"#utility.yul\":67:76   */\n      mload\n        /* \"#utility.yul\":57:76   */\n      swap1\n      pop\n        /* \"#utility.yul\":7:82   */\n      swap1\n      jump\t// out\n        /* \"#utility.yul\":88:205   */\n    tag_244:\n        /* \"#utility.yul\":197:198   */\n      0x00\n        /* \"#utility.yul\":194:195   */\n      dup1\n        /* \"#utility.yul\":187:199   */\n      revert\n        /* \"#utility.yul\":211:328   */\n    tag_245:\n        /* \"#utility.yul\":320:321   */\n      0x00\n        /* \"#utility.yul\":317:318   */\n      dup1\n        /* \"#utility.yul\":310:322   */\n      revert\n        /* \"#utility.yul\":334:451   */\n    tag_246:\n        /* \"#utility.yul\":443:444   */\n      0x00\n        /* \"#utility.yul\":440:441   */\n      dup1\n        /* \"#utility.yul\":433:445   */\n      revert\n        /* \"#utility.yul\":457:574   */\n    tag_247:\n        /* \"#utility.yul\":566:567   */\n      0x00\n        /* \"#utility.yul\":563:564   */\n      dup1\n        /* \"#utility.yul\":556:568   */\n      revert\n        /* \"#utility.yul\":580:682   */\n    tag_248:\n        /* \"#utility.yul\":621:627   */\n      0x00\n        /* \"#utility.yul\":672:674   */\n      0x1f\n        /* \"#utility.yul\":668:675   */\n      not\n        /* \"#utility.yul\":663:665   */\n      0x1f\n        /* \"#utility.yul\":656:661   */\n      dup4\n        /* \"#utility.yul\":652:666   */\n      add\n        /* \"#utility.yul\":648:676   */\n      and\n        /* \"#utility.yul\":638:676   */\n      swap1\n      pop\n        /* \"#utility.yul\":580:682   */\n      swap2\n      swap1\n      pop\n      jump\t// out\n        /* \"#utility.yul\":688:868   */\n    tag_89:\n        /* \"#utility.yul\":736:813   */\n      0x4e487b7100000000000000000000000000000000000000000000000000000000\n        /* \"#utility.yul\":733:734   */\n      0x00\n        /* \"#utility.yul\":726:814   */\n      mstore\n        /* \"#utility.yul\":833:837   */\n      0x41\n        /* \"#utility.yul\":830:831   */\n      0x04\n        /* \"#utility.yul\":823:838   */\n      mstore\n        /* \"#utility.yul\":857:861   */\n      0x24\n        /* \"#utility.yul\":854:855   */\n      0x00\n        /* \"#utility.yul\":847:862   */\n      revert\n        /* \"#utility.yul\":874:1155   */\n    tag_249:\n        /* \"#utility.yul\":957:984   */\n      tag_334\n        /* \"#utility.yul\":979:983   */\n      dup3\n        /* \"#utility.yul\":957:984   */\n      tag_248\n      jump\t// in\n    tag_334:\n        /* \"#utility.yul\":949:955   */\n      dup2\n        /* \"#utility.yul\":945:985   */\n      add\n        /* \"#utility.yul\":1087:1093   */\n      dup2\n        /* \"#utility.yul\":1075:1085   */\n      dup2\n        /* \"#utility.yul\":1072:1094   */\n      lt\n        /* \"#utility.yul\":1051:1069   */\n      0xffffffffffffffff\n        /* \"#utility.yul\":1039:1049   */\n      dup3\n        /* \"#utility.yul\":1036:1070   */\n      gt\n        /* \"#utility.yul\":1033:1095   */\n      or\n        /* \"#utility.yul\":1030:1118   */\n      iszero\n      tag_335\n      jumpi\n        /* \"#utility.yul\":1098:1116   */\n      tag_336\n      tag_89\n      jump\t// in\n    tag_336:\n        /* \"#utility.yul\":1030:1118   */\n    tag_335:\n        /* \"#utility.yul\":1138:1148   */\n      dup1\n        /* \"#utility.yul\":1134:1136   */\n      0x40\n        /* \"#utility.yul\":1127:1149   */\n      mstore\n        /* \"#utility.yul\":917:1155   */\n      pop\n        /* \"#utility.yul\":874:1155   */\n      pop\n      pop\n      jump\t// out\n        /* \"#utility.yul\":1161:1290   */\n    tag_250:\n        /* \"#utility.yul\":1195:1201   */\n      0x00\n        /* \"#utility.yul\":1222:1242   */\n      tag_338\n      tag_243\n      jump\t// in\n    tag_338:\n        /* \"#utility.yul\":1212:1242   */\n      swap1\n      pop\n        /* \"#utility.yul\":1251:1284   */\n      tag_339\n        /* \"#utility.yul\":1279:1283   */\n      dup3\n        /* \"#utility.yul\":1271:1277   */\n      dup3\n        /* \"#utility.yul\":1251:1284   */\n      tag_249\n      jump\t// in\n    tag_339:\n        /* \"#utility.yul\":1161:1290   */\n      swap2\n      swap1\n      pop\n      jump\t// out\n        /* \"#utility.yul\":1296:1604   */\n    tag_251:\n        /* \"#utility.yul\":1358:1362   */\n      0x00\n        /* \"#utility.yul\":1448:1466   */\n      0xffffffffffffffff\n        /* \"#utility.yul\":1440:1446   */\n      dup3\n        /* \"#utility.yul\":1437:1467   */\n      gt\n        /* \"#utility.yul\":1434:1490   */\n      iszero\n      tag_341\n      jumpi\n        /* \"#utility.yul\":1470:1488   */\n      tag_342\n      tag_89\n      jump\t// in\n    tag_342:\n        /* \"#utility.yul\":1434:1490   */\n    tag_341:\n        /* \"#utility.yul\":1508:1537   */\n      tag_343\n        /* \"#utility.yul\":1530:1536   */\n      dup3\n        /* \"#utility.yul\":1508:1537   */\n      tag_248\n      jump\t// in\n    tag_343:\n        /* \"#utility.yul\":1500:1537   */\n      swap1\n      pop\n        /* \"#utility.yul\":1592:1596   */\n      0x20\n        /* \"#utility.yul\":1586:1590   */\n      dup2\n        /* \"#utility.yul\":1582:1597   */\n      add\n        /* \"#utility.yul\":1574:1597   */\n      swap1\n      pop\n        /* \"#utility.yul\":1296:1604   */\n      swap2\n      swap1\n      pop\n      jump\t// out\n        /* \"#utility.yul\":1610:1756   */\n    tag_252:\n        /* \"#utility.yul\":1707:1713   */\n      dup3\n        /* \"#utility.yul\":1702:1705   */\n      dup2\n        /* \"#utility.yul\":1697:1700   */\n      dup4\n        /* \"#utility.yul\":1684:1714   */\n      calldatacopy\n        /* \"#utility.yul\":1748:1749   */\n      0x00\n        /* \"#utility.yul\":1739:1745   */\n      dup4\n        /* \"#utility.yul\":1734:1737   */\n      dup4\n        /* \"#utility.yul\":1730:1746   */\n      add\n        /* \"#utility.yul\":1723:1750   */\n      mstore\n        /* \"#utility.yul\":1610:1756   */\n      pop\n      pop\n      pop\n      jump\t// out\n        /* \"#utility.yul\":1762:2187   */\n    tag_253:\n        /* \"#utility.yul\":1840:1845   */\n      0x00\n        /* \"#utility.yul\":1865:1931   */\n      tag_346\n        /* \"#utility.yul\":1881:1930   */\n      tag_347\n        /* \"#utility.yul\":1923:1929   */\n      dup5\n        /* \"#utility.yul\":1881:1930   */\n      tag_251\n      jump\t// in\n    tag_347:\n        /* \"#utility.yul\":1865:1931   */\n      tag_250\n      jump\t// in\n    tag_346:\n        /* \"#utility.yul\":1856:1931   */\n      swap1\n      pop\n        /* \"#utility.yul\":1954:1960   */\n      dup3\n        /* \"#utility.yul\":1947:1952   */\n      dup2\n        /* \"#utility.yul\":1940:1961   */\n      mstore\n        /* \"#utility.yul\":1992:1996   */\n      0x20\n        /* \"#utility.yul\":1985:1990   */\n      dup2\n        /* \"#utility.yul\":1981:1997   */\n      add\n        /* \"#utility.yul\":2030:2033   */\n      dup5\n        /* \"#utility.yul\":2021:2027   */\n      dup5\n        /* \"#utility.yul\":2016:2019   */\n      dup5\n        /* \"#utility.yul\":2012:2028   */\n      add\n        /* \"#utility.yul\":2009:2034   */\n      gt\n        /* \"#utility.yul\":2006:2118   */\n      iszero\n      tag_348\n      jumpi\n        /* \"#utility.yul\":2037:2116   */\n      tag_349\n      tag_247\n      jump\t// in\n    tag_349:\n        /* \"#utility.yul\":2006:2118   */\n    tag_348:\n        /* \"#utility.yul\":2127:2181   */\n      tag_350\n        /* \"#utility.yul\":2174:2180   */\n      dup5\n        /* \"#utility.yul\":2169:2172   */\n      dup3\n        /* \"#utility.yul\":2164:2167   */\n      dup6\n        /* \"#utility.yul\":2127:2181   */\n      tag_252\n      jump\t// in\n    tag_350:\n        /* \"#utility.yul\":1846:2187   */\n      pop\n        /* \"#utility.yul\":1762:2187   */\n      swap4\n      swap3\n      pop\n      pop\n      pop\n      jump\t// out\n        /* \"#utility.yul\":2207:2547   */\n    tag_254:\n        /* \"#utility.yul\":2263:2268   */\n      0x00\n        /* \"#utility.yul\":2312:2315   */\n      dup3\n        /* \"#utility.yul\":2305:2309   */\n      0x1f\n        /* \"#utility.yul\":2297:2303   */\n      dup4\n        /* \"#utility.yul\":2293:2310   */\n      add\n        /* \"#utility.yul\":2289:2316   */\n      slt\n        /* \"#utility.yul\":2279:2401   */\n      tag_352\n      jumpi\n        /* \"#utility.yul\":2320:2399   */\n      tag_353\n      tag_246\n      jump\t// in\n    tag_353:\n        /* \"#utility.yul\":2279:2401   */\n    tag_352:\n        /* \"#utility.yul\":2437:2443   */\n      dup2\n        /* \"#utility.yul\":2424:2444   */\n      calldataload\n        /* \"#utility.yul\":2462:2541   */\n      tag_354\n        /* \"#utility.yul\":2537:2540   */\n      dup5\n        /* \"#utility.yul\":2529:2535   */\n      dup3\n        /* \"#utility.yul\":2522:2526   */\n      0x20\n        /* \"#utility.yul\":2514:2520   */\n      dup7\n        /* \"#utility.yul\":2510:2527   */\n      add\n        /* \"#utility.yul\":2462:2541   */\n      tag_253\n      jump\t// in\n    tag_354:\n        /* \"#utility.yul\":2453:2541   */\n      swap2\n      pop\n        /* \"#utility.yul\":2269:2547   */\n      pop\n        /* \"#utility.yul\":2207:2547   */\n      swap3\n      swap2\n      pop\n      pop\n      jump\t// out\n        /* \"#utility.yul\":2553:2630   */\n    tag_255:\n        /* \"#utility.yul\":2590:2597   */\n      0x00\n        /* \"#utility.yul\":2619:2624   */\n      dup2\n        /* \"#utility.yul\":2608:2624   */\n      swap1\n      pop\n        /* \"#utility.yul\":2553:2630   */\n      swap2\n      swap1\n      pop\n      jump\t// out\n        /* \"#utility.yul\":2636:2758   */\n    tag_256:\n        /* \"#utility.yul\":2709:2733   */\n      tag_357\n        /* \"#utility.yul\":2727:2732   */\n      dup2\n        /* \"#utility.yul\":2709:2733   */\n      tag_255\n      jump\t// in\n    tag_357:\n        /* \"#utility.yul\":2702:2707   */\n      dup2\n        /* \"#utility.yul\":2699:2734   */\n      eq\n        /* \"#utility.yul\":2689:2752   */\n      tag_358\n      jumpi\n        /* \"#utility.yul\":2748:2749   */\n      0x00\n        /* \"#utility.yul\":2745:2746   */\n      dup1\n        /* \"#utility.yul\":2738:2750   */\n      revert\n        /* \"#utility.yul\":2689:2752   */\n    tag_358:\n        /* \"#utility.yul\":2636:2758   */\n      pop\n      jump\t// out\n        /* \"#utility.yul\":2764:2903   */\n    tag_257:\n        /* \"#utility.yul\":2810:2815   */\n      0x00\n        /* \"#utility.yul\":2848:2854   */\n      dup2\n        /* \"#utility.yul\":2835:2855   */\n      calldataload\n        /* \"#utility.yul\":2826:2855   */\n      swap1\n      pop\n        /* \"#utility.yul\":2864:2897   */\n      tag_360\n        /* \"#utility.yul\":2891:2896   */\n      dup2\n        /* \"#utility.yul\":2864:2897   */\n      tag_256\n      jump\t// in\n    tag_360:\n        /* \"#utility.yul\":2764:2903   */\n      swap3\n      swap2\n      pop\n      pop\n      jump\t// out\n        /* \"#utility.yul\":2909:3563   */\n    tag_15:\n        /* \"#utility.yul\":2987:2993   */\n      0x00\n        /* \"#utility.yul\":2995:3001   */\n      dup1\n        /* \"#utility.yul\":3044:3046   */\n      0x40\n        /* \"#utility.yul\":3032:3041   */\n      dup4\n        /* \"#utility.yul\":3023:3030   */\n      dup6\n        /* \"#utility.yul\":3019:3042   */\n      sub\n        /* \"#utility.yul\":3015:3047   */\n      slt\n        /* \"#utility.yul\":3012:3131   */\n      iszero\n      tag_362\n      jumpi\n        /* \"#utility.yul\":3050:3129   */\n      tag_363\n      tag_244\n      jump\t// in\n    tag_363:\n        /* \"#utility.yul\":3012:3131   */\n    tag_362:\n        /* \"#utility.yul\":3198:3199   */\n      0x00\n        /* \"#utility.yul\":3187:3196   */\n      dup4\n        /* \"#utility.yul\":3183:3200   */\n      add\n        /* \"#utility.yul\":3170:3201   */\n      calldataload\n        /* \"#utility.yul\":3228:3246   */\n      0xffffffffffffffff\n        /* \"#utility.yul\":3220:3226   */\n      dup2\n        /* \"#utility.yul\":3217:3247   */\n      gt\n        /* \"#utility.yul\":3214:3331   */\n      iszero\n      tag_364\n      jumpi\n        /* \"#utility.yul\":3250:3329   */\n      tag_365\n      tag_245\n      jump\t// in\n    tag_365:\n        /* \"#utility.yul\":3214:3331   */\n    tag_364:\n        /* \"#utility.yul\":3355:3418   */\n      tag_366\n        /* \"#utility.yul\":3410:3417   */\n      dup6\n        /* \"#utility.yul\":3401:3407   */\n      dup3\n        /* \"#utility.yul\":3390:3399   */\n      dup7\n        /* \"#utility.yul\":3386:3408   */\n      add\n        /* \"#utility.yul\":3355:3418   */\n      tag_254\n      jump\t// in\n    tag_366:\n        /* \"#utility.yul\":3345:3418   */\n      swap3\n      pop\n        /* \"#utility.yul\":3141:3428   */\n      pop\n        /* \"#utility.yul\":3467:3469   */\n      0x20\n        /* \"#utility.yul\":3493:3546   */\n      tag_367\n        /* \"#utility.yul\":3538:3545   */\n      dup6\n        /* \"#utility.yul\":3529:3535   */\n      dup3\n        /* \"#utility.yul\":3518:3527   */\n      dup7\n        /* \"#utility.yul\":3514:3536   */\n      add\n        /* \"#utility.yul\":3493:3546   */\n      tag_257\n      jump\t// in\n    tag_367:\n        /* \"#utility.yul\":3483:3546   */\n      swap2\n      pop\n        /* \"#utility.yul\":3438:3556   */\n      pop\n        /* \"#utility.yul\":2909:3563   */\n      swap3\n      pop\n      swap3\n      swap1\n      pop\n      jump\t// out\n        /* \"#utility.yul\":3569:3703   */\n    tag_258:\n        /* \"#utility.yul\":3656:3662   */\n      0x00\n        /* \"#utility.yul\":3690:3695   */\n      dup2\n        /* \"#utility.yul\":3684:3696   */\n      mload\n        /* \"#utility.yul\":3674:3696   */\n      swap1\n      pop\n        /* \"#utility.yul\":3569:3703   */\n      swap2\n      swap1\n      pop\n      jump\t// out\n        /* \"#utility.yul\":3709:3913   */\n    tag_259:\n        /* \"#utility.yul\":3828:3839   */\n      0x00\n        /* \"#utility.yul\":3862:3868   */\n      dup3\n        /* \"#utility.yul\":3857:3860   */\n      dup3\n        /* \"#utility.yul\":3850:3869   */\n      mstore\n        /* \"#utility.yul\":3902:3906   */\n      0x20\n        /* \"#utility.yul\":3897:3900   */\n      dup3\n        /* \"#utility.yul\":3893:3907   */\n      add\n        /* \"#utility.yul\":3878:3907   */\n      swap1\n      pop\n        /* \"#utility.yul\":3709:3913   */\n      swap3\n      swap2\n      pop\n      pop\n      jump\t// out\n        /* \"#utility.yul\":3919:4071   */\n    tag_260:\n        /* \"#utility.yul\":4006:4010   */\n      0x00\n        /* \"#utility.yul\":4029:4032   */\n      dup2\n        /* \"#utility.yul\":4021:4032   */\n      swap1\n      pop\n        /* \"#utility.yul\":4059:4063   */\n      0x20\n        /* \"#utility.yul\":4054:4057   */\n      dup3\n        /* \"#utility.yul\":4050:4064   */\n      add\n        /* \"#utility.yul\":4042:4064   */\n      swap1\n      pop\n        /* \"#utility.yul\":3919:4071   */\n      swap2\n      swap1\n      pop\n      jump\t// out\n        /* \"#utility.yul\":4077:4185   */\n    tag_261:\n        /* \"#utility.yul\":4154:4178   */\n      tag_372\n        /* \"#utility.yul\":4172:4177   */\n      dup2\n        /* \"#utility.yul\":4154:4178   */\n      tag_255\n      jump\t// in\n    tag_372:\n        /* \"#utility.yul\":4149:4152   */\n      dup3\n        /* \"#utility.yul\":4142:4179   */\n      mstore\n        /* \"#utility.yul\":4077:4185   */\n      pop\n      pop\n      jump\t// out\n        /* \"#utility.yul\":4191:4305   */\n    tag_262:\n        /* \"#utility.yul\":4258:4264   */\n      0x00\n        /* \"#utility.yul\":4292:4297   */\n      dup2\n        /* \"#utility.yul\":4286:4298   */\n      mload\n        /* \"#utility.yul\":4276:4298   */\n      swap1\n      pop\n        /* \"#utility.yul\":4191:4305   */\n      swap2\n      swap1\n      pop\n      jump\t// out\n        /* \"#utility.yul\":4311:4485   */\n    tag_263:\n        /* \"#utility.yul\":4400:4411   */\n      0x00\n        /* \"#utility.yul\":4434:4440   */\n      dup3\n        /* \"#utility.yul\":4429:4432   */\n      dup3\n        /* \"#utility.yul\":4422:4441   */\n      mstore\n        /* \"#utility.yul\":4474:4478   */\n      0x20\n        /* \"#utility.yul\":4469:4472   */\n      dup3\n        /* \"#utility.yul\":4465:4479   */\n      add\n        /* \"#utility.yul\":4450:4479   */\n      swap1\n      pop\n        /* \"#utility.yul\":4311:4485   */\n      swap3\n      swap2\n      pop\n      pop\n      jump\t// out\n        /* \"#utility.yul\":4491:4623   */\n    tag_264:\n        /* \"#utility.yul\":4558:4562   */\n      0x00\n        /* \"#utility.yul\":4581:4584   */\n      dup2\n        /* \"#utility.yul\":4573:4584   */\n      swap1\n      pop\n        /* \"#utility.yul\":4611:4615   */\n      0x20\n        /* \"#utility.yul\":4606:4609   */\n      dup3\n        /* \"#utility.yul\":4602:4616   */\n      add\n        /* \"#utility.yul\":4594:4616   */\n      swap1\n      pop\n        /* \"#utility.yul\":4491:4623   */\n      swap2\n      swap1\n      pop\n      jump\t// out\n        /* \"#utility.yul\":4629:4755   */\n    tag_265:\n        /* \"#utility.yul\":4666:4673   */\n      0x00\n        /* \"#utility.yul\":4706:4748   */\n      0xffffffffffffffffffffffffffffffffffffffff\n        /* \"#utility.yul\":4699:4704   */\n      dup3\n        /* \"#utility.yul\":4695:4749   */\n      and\n        /* \"#utility.yul\":4684:4749   */\n      swap1\n      pop\n        /* \"#utility.yul\":4629:4755   */\n      swap2\n      swap1\n      pop\n      jump\t// out\n        /* \"#utility.yul\":4761:4857   */\n    tag_266:\n        /* \"#utility.yul\":4798:4805   */\n      0x00\n        /* \"#utility.yul\":4827:4851   */\n      tag_378\n        /* \"#utility.yul\":4845:4850   */\n      dup3\n        /* \"#utility.yul\":4827:4851   */\n      tag_265\n      jump\t// in\n    tag_378:\n        /* \"#utility.yul\":4816:4851   */\n      swap1\n      pop\n        /* \"#utility.yul\":4761:4857   */\n      swap2\n      swap1\n      pop\n      jump\t// out\n        /* \"#utility.yul\":4863:4971   */\n    tag_267:\n        /* \"#utility.yul\":4940:4964   */\n      tag_380\n        /* \"#utility.yul\":4958:4963   */\n      dup2\n        /* \"#utility.yul\":4940:4964   */\n      tag_266\n      jump\t// in\n    tag_380:\n        /* \"#utility.yul\":4935:4938   */\n      dup3\n        /* \"#utility.yul\":4928:4965   */\n      mstore\n        /* \"#utility.yul\":4863:4971   */\n      pop\n      pop\n      jump\t// out\n        /* \"#utility.yul\":4977:5156   */\n    tag_268:\n        /* \"#utility.yul\":5046:5056   */\n      0x00\n        /* \"#utility.yul\":5067:5113   */\n      tag_382\n        /* \"#utility.yul\":5109:5112   */\n      dup4\n        /* \"#utility.yul\":5101:5107   */\n      dup4\n        /* \"#utility.yul\":5067:5113   */\n      tag_267\n      jump\t// in\n    tag_382:\n        /* \"#utility.yul\":5145:5149   */\n      0x20\n        /* \"#utility.yul\":5140:5143   */\n      dup4\n        /* \"#utility.yul\":5136:5150   */\n      add\n        /* \"#utility.yul\":5122:5150   */\n      swap1\n      pop\n        /* \"#utility.yul\":4977:5156   */\n      swap3\n      swap2\n      pop\n      pop\n      jump\t// out\n        /* \"#utility.yul\":5162:5275   */\n    tag_269:\n        /* \"#utility.yul\":5232:5236   */\n      0x00\n        /* \"#utility.yul\":5264:5268   */\n      0x20\n        /* \"#utility.yul\":5259:5262   */\n      dup3\n        /* \"#utility.yul\":5255:5269   */\n      add\n        /* \"#utility.yul\":5247:5269   */\n      swap1\n      pop\n        /* \"#utility.yul\":5162:5275   */\n      swap2\n      swap1\n      pop\n      jump\t// out\n        /* \"#utility.yul\":5311:6023   */\n    tag_270:\n        /* \"#utility.yul\":5420:5423   */\n      0x00\n        /* \"#utility.yul\":5449:5503   */\n      tag_385\n        /* \"#utility.yul\":5497:5502   */\n      dup3\n        /* \"#utility.yul\":5449:5503   */\n      tag_262\n      jump\t// in\n    tag_385:\n        /* \"#utility.yul\":5519:5595   */\n      tag_386\n        /* \"#utility.yul\":5588:5594   */\n      dup2\n        /* \"#utility.yul\":5583:5586   */\n      dup6\n        /* \"#utility.yul\":5519:5595   */\n      tag_263\n      jump\t// in\n    tag_386:\n        /* \"#utility.yul\":5512:5595   */\n      swap4\n      pop\n        /* \"#utility.yul\":5619:5675   */\n      tag_387\n        /* \"#utility.yul\":5669:5674   */\n      dup4\n        /* \"#utility.yul\":5619:5675   */\n      tag_264\n      jump\t// in\n    tag_387:\n        /* \"#utility.yul\":5698:5705   */\n      dup1\n        /* \"#utility.yul\":5729:5730   */\n      0x00\n        /* \"#utility.yul\":5714:5998   */\n    tag_388:\n        /* \"#utility.yul\":5739:5745   */\n      dup4\n        /* \"#utility.yul\":5736:5737   */\n      dup2\n        /* \"#utility.yul\":5733:5746   */\n      lt\n        /* \"#utility.yul\":5714:5998   */\n      iszero\n      tag_390\n      jumpi\n        /* \"#utility.yul\":5815:5821   */\n      dup2\n        /* \"#utility.yul\":5809:5822   */\n      mload\n        /* \"#utility.yul\":5842:5905   */\n      tag_391\n        /* \"#utility.yul\":5901:5904   */\n      dup9\n        /* \"#utility.yul\":5886:5899   */\n      dup3\n        /* \"#utility.yul\":5842:5905   */\n      tag_268\n      jump\t// in\n    tag_391:\n        /* \"#utility.yul\":5835:5905   */\n      swap8\n      pop\n        /* \"#utility.yul\":5928:5988   */\n      tag_392\n        /* \"#utility.yul\":5981:5987   */\n      dup4\n        /* \"#utility.yul\":5928:5988   */\n      tag_269\n      jump\t// in\n    tag_392:\n        /* \"#utility.yul\":5918:5988   */\n      swap3\n      pop\n        /* \"#utility.yul\":5774:5998   */\n      pop\n        /* \"#utility.yul\":5761:5762   */\n      0x01\n        /* \"#utility.yul\":5758:5759   */\n      dup2\n        /* \"#utility.yul\":5754:5763   */\n      add\n        /* \"#utility.yul\":5749:5763   */\n      swap1\n      pop\n        /* \"#utility.yul\":5714:5998   */\n      jump(tag_388)\n    tag_390:\n        /* \"#utility.yul\":5718:5732   */\n      pop\n        /* \"#utility.yul\":6014:6017   */\n      dup6\n        /* \"#utility.yul\":6007:6017   */\n      swap4\n      pop\n        /* \"#utility.yul\":5425:6023   */\n      pop\n      pop\n      pop\n        /* \"#utility.yul\":5311:6023   */\n      swap3\n      swap2\n      pop\n      pop\n      jump\t// out\n        /* \"#utility.yul\":6029:6128   */\n    tag_271:\n        /* \"#utility.yul\":6081:6087   */\n      0x00\n        /* \"#utility.yul\":6115:6120   */\n      dup2\n        /* \"#utility.yul\":6109:6121   */\n      mload\n        /* \"#utility.yul\":6099:6121   */\n      swap1\n      pop\n        /* \"#utility.yul\":6029:6128   */\n      swap2\n      swap1\n      pop\n      jump\t// out\n        /* \"#utility.yul\":6134:6293   */\n    tag_272:\n        /* \"#utility.yul\":6208:6219   */\n      0x00\n        /* \"#utility.yul\":6242:6248   */\n      dup3\n        /* \"#utility.yul\":6237:6240   */\n      dup3\n        /* \"#utility.yul\":6230:6249   */\n      mstore\n        /* \"#utility.yul\":6282:6286   */\n      0x20\n        /* \"#utility.yul\":6277:6280   */\n      dup3\n        /* \"#utility.yul\":6273:6287   */\n      add\n        /* \"#utility.yul\":6258:6287   */\n      swap1\n      pop\n        /* \"#utility.yul\":6134:6293   */\n      swap3\n      swap2\n      pop\n      pop\n      jump\t// out\n        /* \"#utility.yul\":6299:6545   */\n    tag_273:\n        /* \"#utility.yul\":6380:6381   */\n      0x00\n        /* \"#utility.yul\":6390:6503   */\n    tag_396:\n        /* \"#utility.yul\":6404:6410   */\n      dup4\n        /* \"#utility.yul\":6401:6402   */\n      dup2\n        /* \"#utility.yul\":6398:6411   */\n      lt\n        /* \"#utility.yul\":6390:6503   */\n      iszero\n      tag_398\n      jumpi\n        /* \"#utility.yul\":6489:6490   */\n      dup1\n        /* \"#utility.yul\":6484:6487   */\n      dup3\n        /* \"#utility.yul\":6480:6491   */\n      add\n        /* \"#utility.yul\":6474:6492   */\n      mload\n        /* \"#utility.yul\":6470:6471   */\n      dup2\n        /* \"#utility.yul\":6465:6468   */\n      dup5\n        /* \"#utility.yul\":6461:6472   */\n      add\n        /* \"#utility.yul\":6454:6493   */\n      mstore\n        /* \"#utility.yul\":6426:6428   */\n      0x20\n        /* \"#utility.yul\":6423:6424   */\n      dup2\n        /* \"#utility.yul\":6419:6429   */\n      add\n        /* \"#utility.yul\":6414:6429   */\n      swap1\n      pop\n        /* \"#utility.yul\":6390:6503   */\n      jump(tag_396)\n    tag_398:\n        /* \"#utility.yul\":6537:6538   */\n      0x00\n        /* \"#utility.yul\":6528:6534   */\n      dup5\n        /* \"#utility.yul\":6523:6526   */\n      dup5\n        /* \"#utility.yul\":6519:6535   */\n      add\n        /* \"#utility.yul\":6512:6539   */\n      mstore\n        /* \"#utility.yul\":6361:6545   */\n      pop\n        /* \"#utility.yul\":6299:6545   */\n      pop\n      pop\n      pop\n      jump\t// out\n        /* \"#utility.yul\":6551:6908   */\n    tag_274:\n        /* \"#utility.yul\":6629:6632   */\n      0x00\n        /* \"#utility.yul\":6657:6696   */\n      tag_400\n        /* \"#utility.yul\":6690:6695   */\n      dup3\n        /* \"#utility.yul\":6657:6696   */\n      tag_271\n      jump\t// in\n    tag_400:\n        /* \"#utility.yul\":6712:6773   */\n      tag_401\n        /* \"#utility.yul\":6766:6772   */\n      dup2\n        /* \"#utility.yul\":6761:6764   */\n      dup6\n        /* \"#utility.yul\":6712:6773   */\n      tag_272\n      jump\t// in\n    tag_401:\n        /* \"#utility.yul\":6705:6773   */\n      swap4\n      pop\n        /* \"#utility.yul\":6782:6847   */\n      tag_402\n        /* \"#utility.yul\":6840:6846   */\n      dup2\n        /* \"#utility.yul\":6835:6838   */\n      dup6\n        /* \"#utility.yul\":6828:6832   */\n      0x20\n        /* \"#utility.yul\":6821:6826   */\n      dup7\n        /* \"#utility.yul\":6817:6833   */\n      add\n        /* \"#utility.yul\":6782:6847   */\n      tag_273\n      jump\t// in\n    tag_402:\n        /* \"#utility.yul\":6872:6901   */\n      tag_403\n        /* \"#utility.yul\":6894:6900   */\n      dup2\n        /* \"#utility.yul\":6872:6901   */\n      tag_248\n      jump\t// in\n    tag_403:\n        /* \"#utility.yul\":6867:6870   */\n      dup5\n        /* \"#utility.yul\":6863:6902   */\n      add\n        /* \"#utility.yul\":6856:6902   */\n      swap2\n      pop\n        /* \"#utility.yul\":6633:6908   */\n      pop\n        /* \"#utility.yul\":6551:6908   */\n      swap3\n      swap2\n      pop\n      pop\n      jump\t// out\n        /* \"#utility.yul\":6948:7996   */\n    tag_275:\n        /* \"#utility.yul\":7047:7050   */\n      0x00\n        /* \"#utility.yul\":7083:7087   */\n      0x80\n        /* \"#utility.yul\":7078:7081   */\n      dup4\n        /* \"#utility.yul\":7074:7088   */\n      add\n        /* \"#utility.yul\":7172:7176   */\n      0x00\n        /* \"#utility.yul\":7165:7170   */\n      dup4\n        /* \"#utility.yul\":7161:7177   */\n      add\n        /* \"#utility.yul\":7155:7178   */\n      mload\n        /* \"#utility.yul\":7191:7254   */\n      tag_405\n        /* \"#utility.yul\":7248:7252   */\n      0x00\n        /* \"#utility.yul\":7243:7246   */\n      dup7\n        /* \"#utility.yul\":7239:7253   */\n      add\n        /* \"#utility.yul\":7225:7237   */\n      dup3\n        /* \"#utility.yul\":7191:7254   */\n      tag_261\n      jump\t// in\n    tag_405:\n        /* \"#utility.yul\":7098:7264   */\n      pop\n        /* \"#utility.yul\":7348:7352   */\n      0x20\n        /* \"#utility.yul\":7341:7346   */\n      dup4\n        /* \"#utility.yul\":7337:7353   */\n      add\n        /* \"#utility.yul\":7331:7354   */\n      mload\n        /* \"#utility.yul\":7367:7430   */\n      tag_406\n        /* \"#utility.yul\":7424:7428   */\n      0x20\n        /* \"#utility.yul\":7419:7422   */\n      dup7\n        /* \"#utility.yul\":7415:7429   */\n      add\n        /* \"#utility.yul\":7401:7413   */\n      dup3\n        /* \"#utility.yul\":7367:7430   */\n      tag_261\n      jump\t// in\n    tag_406:\n        /* \"#utility.yul\":7274:7440   */\n      pop\n        /* \"#utility.yul\":7531:7535   */\n      0x40\n        /* \"#utility.yul\":7524:7529   */\n      dup4\n        /* \"#utility.yul\":7520:7536   */\n      add\n        /* \"#utility.yul\":7514:7537   */\n      mload\n        /* \"#utility.yul\":7584:7587   */\n      dup5\n        /* \"#utility.yul\":7578:7582   */\n      dup3\n        /* \"#utility.yul\":7574:7588   */\n      sub\n        /* \"#utility.yul\":7567:7571   */\n      0x40\n        /* \"#utility.yul\":7562:7565   */\n      dup7\n        /* \"#utility.yul\":7558:7572   */\n      add\n        /* \"#utility.yul\":7551:7589   */\n      mstore\n        /* \"#utility.yul\":7610:7713   */\n      tag_407\n        /* \"#utility.yul\":7708:7712   */\n      dup3\n        /* \"#utility.yul\":7694:7706   */\n      dup3\n        /* \"#utility.yul\":7610:7713   */\n      tag_270\n      jump\t// in\n    tag_407:\n        /* \"#utility.yul\":7602:7713   */\n      swap2\n      pop\n        /* \"#utility.yul\":7450:7724   */\n      pop\n        /* \"#utility.yul\":7806:7810   */\n      0x60\n        /* \"#utility.yul\":7799:7804   */\n      dup4\n        /* \"#utility.yul\":7795:7811   */\n      add\n        /* \"#utility.yul\":7789:7812   */\n      mload\n        /* \"#utility.yul\":7859:7862   */\n      dup5\n        /* \"#utility.yul\":7853:7857   */\n      dup3\n        /* \"#utility.yul\":7849:7863   */\n      sub\n        /* \"#utility.yul\":7842:7846   */\n      0x60\n        /* \"#utility.yul\":7837:7840   */\n      dup7\n        /* \"#utility.yul\":7833:7847   */\n      add\n        /* \"#utility.yul\":7826:7864   */\n      mstore\n        /* \"#utility.yul\":7885:7958   */\n      tag_408\n        /* \"#utility.yul\":7953:7957   */\n      dup3\n        /* \"#utility.yul\":7939:7951   */\n      dup3\n        /* \"#utility.yul\":7885:7958   */\n      tag_274\n      jump\t// in\n    tag_408:\n        /* \"#utility.yul\":7877:7958   */\n      swap2\n      pop\n        /* \"#utility.yul\":7734:7969   */\n      pop\n        /* \"#utility.yul\":7986:7990   */\n      dup1\n        /* \"#utility.yul\":7979:7990   */\n      swap2\n      pop\n        /* \"#utility.yul\":7052:7996   */\n      pop\n        /* \"#utility.yul\":6948:7996   */\n      swap3\n      swap2\n      pop\n      pop\n      jump\t// out\n        /* \"#utility.yul\":8002:8238   */\n    tag_276:\n        /* \"#utility.yul\":8111:8121   */\n      0x00\n        /* \"#utility.yul\":8146:8232   */\n      tag_410\n        /* \"#utility.yul\":8228:8231   */\n      dup4\n        /* \"#utility.yul\":8220:8226   */\n      dup4\n        /* \"#utility.yul\":8146:8232   */\n      tag_275\n      jump\t// in\n    tag_410:\n        /* \"#utility.yul\":8132:8232   */\n      swap1\n      pop\n        /* \"#utility.yul\":8002:8238   */\n      swap3\n      swap2\n      pop\n      pop\n      jump\t// out\n        /* \"#utility.yul\":8244:8377   */\n    tag_277:\n        /* \"#utility.yul\":8334:8338   */\n      0x00\n        /* \"#utility.yul\":8366:8370   */\n      0x20\n        /* \"#utility.yul\":8361:8364   */\n      dup3\n        /* \"#utility.yul\":8357:8371   */\n      add\n        /* \"#utility.yul\":8349:8371   */\n      swap1\n      pop\n        /* \"#utility.yul\":8244:8377   */\n      swap2\n      swap1\n      pop\n      jump\t// out\n        /* \"#utility.yul\":8421:9492   */\n    tag_278:\n        /* \"#utility.yul\":8580:8583   */\n      0x00\n        /* \"#utility.yul\":8609:8683   */\n      tag_413\n        /* \"#utility.yul\":8677:8682   */\n      dup3\n        /* \"#utility.yul\":8609:8683   */\n      tag_258\n      jump\t// in\n    tag_413:\n        /* \"#utility.yul\":8699:8805   */\n      tag_414\n        /* \"#utility.yul\":8798:8804   */\n      dup2\n        /* \"#utility.yul\":8793:8796   */\n      dup6\n        /* \"#utility.yul\":8699:8805   */\n      tag_259\n      jump\t// in\n    tag_414:\n        /* \"#utility.yul\":8692:8805   */\n      swap4\n      pop\n        /* \"#utility.yul\":8831:8834   */\n      dup4\n        /* \"#utility.yul\":8876:8880   */\n      0x20\n        /* \"#utility.yul\":8868:8874   */\n      dup3\n        /* \"#utility.yul\":8864:8881   */\n      mul\n        /* \"#utility.yul\":8859:8862   */\n      dup6\n        /* \"#utility.yul\":8855:8882   */\n      add\n        /* \"#utility.yul\":8906:8982   */\n      tag_415\n        /* \"#utility.yul\":8976:8981   */\n      dup6\n        /* \"#utility.yul\":8906:8982   */\n      tag_260\n      jump\t// in\n    tag_415:\n        /* \"#utility.yul\":9005:9012   */\n      dup1\n        /* \"#utility.yul\":9036:9037   */\n      0x00\n        /* \"#utility.yul\":9021:9447   */\n    tag_416:\n        /* \"#utility.yul\":9046:9052   */\n      dup6\n        /* \"#utility.yul\":9043:9044   */\n      dup2\n        /* \"#utility.yul\":9040:9053   */\n      lt\n        /* \"#utility.yul\":9021:9447   */\n      iszero\n      tag_418\n      jumpi\n        /* \"#utility.yul\":9117:9126   */\n      dup5\n        /* \"#utility.yul\":9111:9115   */\n      dup5\n        /* \"#utility.yul\":9107:9127   */\n      sub\n        /* \"#utility.yul\":9102:9105   */\n      dup10\n        /* \"#utility.yul\":9095:9128   */\n      mstore\n        /* \"#utility.yul\":9168:9174   */\n      dup2\n        /* \"#utility.yul\":9162:9175   */\n      mload\n        /* \"#utility.yul\":9196:9300   */\n      tag_419\n        /* \"#utility.yul\":9295:9299   */\n      dup6\n        /* \"#utility.yul\":9280:9293   */\n      dup3\n        /* \"#utility.yul\":9196:9300   */\n      tag_276\n      jump\t// in\n    tag_419:\n        /* \"#utility.yul\":9188:9300   */\n      swap5\n      pop\n        /* \"#utility.yul\":9323:9403   */\n      tag_420\n        /* \"#utility.yul\":9396:9402   */\n      dup4\n        /* \"#utility.yul\":9323:9403   */\n      tag_277\n      jump\t// in\n    tag_420:\n        /* \"#utility.yul\":9313:9403   */\n      swap3\n      pop\n        /* \"#utility.yul\":9432:9436   */\n      0x20\n        /* \"#utility.yul\":9427:9430   */\n      dup11\n        /* \"#utility.yul\":9423:9437   */\n      add\n        /* \"#utility.yul\":9416:9437   */\n      swap10\n      pop\n        /* \"#utility.yul\":9081:9447   */\n      pop\n        /* \"#utility.yul\":9068:9069   */\n      0x01\n        /* \"#utility.yul\":9065:9066   */\n      dup2\n        /* \"#utility.yul\":9061:9070   */\n      add\n        /* \"#utility.yul\":9056:9070   */\n      swap1\n      pop\n        /* \"#utility.yul\":9021:9447   */\n      jump(tag_416)\n    tag_418:\n        /* \"#utility.yul\":9025:9039   */\n      pop\n        /* \"#utility.yul\":9463:9467   */\n      dup3\n        /* \"#utility.yul\":9456:9467   */\n      swap8\n      pop\n        /* \"#utility.yul\":9483:9486   */\n      dup8\n        /* \"#utility.yul\":9476:9486   */\n      swap6\n      pop\n        /* \"#utility.yul\":8585:9492   */\n      pop\n      pop\n      pop\n      pop\n      pop\n        /* \"#utility.yul\":8421:9492   */\n      swap3\n      swap2\n      pop\n      pop\n      jump\t// out\n        /* \"#utility.yul\":9498:9951   */\n    tag_20:\n        /* \"#utility.yul\":9681:9685   */\n      0x00\n        /* \"#utility.yul\":9719:9721   */\n      0x20\n        /* \"#utility.yul\":9708:9717   */\n      dup3\n        /* \"#utility.yul\":9704:9722   */\n      add\n        /* \"#utility.yul\":9696:9722   */\n      swap1\n      pop\n        /* \"#utility.yul\":9768:9777   */\n      dup2\n        /* \"#utility.yul\":9762:9766   */\n      dup2\n        /* \"#utility.yul\":9758:9778   */\n      sub\n        /* \"#utility.yul\":9754:9755   */\n      0x00\n        /* \"#utility.yul\":9743:9752   */\n      dup4\n        /* \"#utility.yul\":9739:9756   */\n      add\n        /* \"#utility.yul\":9732:9779   */\n      mstore\n        /* \"#utility.yul\":9796:9944   */\n      tag_422\n        /* \"#utility.yul\":9939:9943   */\n      dup2\n        /* \"#utility.yul\":9930:9936   */\n      dup5\n        /* \"#utility.yul\":9796:9944   */\n      tag_278\n      jump\t// in\n    tag_422:\n        /* \"#utility.yul\":9788:9944   */\n      swap1\n      pop\n        /* \"#utility.yul\":9498:9951   */\n      swap3\n      swap2\n      pop\n      pop\n      jump\t// out\n        /* \"#utility.yul\":9957:10141   */\n    tag_279:\n        /* \"#utility.yul\":10056:10067   */\n      0x00\n        /* \"#utility.yul\":10090:10096   */\n      dup3\n        /* \"#utility.yul\":10085:10088   */\n      dup3\n        /* \"#utility.yul\":10078:10097   */\n      mstore\n        /* \"#utility.yul\":10130:10134   */\n      0x20\n        /* \"#utility.yul\":10125:10128   */\n      dup3\n        /* \"#utility.yul\":10121:10135   */\n      add\n        /* \"#utility.yul\":10106:10135   */\n      swap1\n      pop\n        /* \"#utility.yul\":9957:10141   */\n      swap3\n      swap2\n      pop\n      pop\n      jump\t// out\n        /* \"#utility.yul\":10177:10909   */\n    tag_280:\n        /* \"#utility.yul\":10296:10299   */\n      0x00\n        /* \"#utility.yul\":10325:10379   */\n      tag_425\n        /* \"#utility.yul\":10373:10378   */\n      dup3\n        /* \"#utility.yul\":10325:10379   */\n      tag_262\n      jump\t// in\n    tag_425:\n        /* \"#utility.yul\":10395:10481   */\n      tag_426\n        /* \"#utility.yul\":10474:10480   */\n      dup2\n        /* \"#utility.yul\":10469:10472   */\n      dup6\n        /* \"#utility.yul\":10395:10481   */\n      tag_279\n      jump\t// in\n    tag_426:\n        /* \"#utility.yul\":10388:10481   */\n      swap4\n      pop\n        /* \"#utility.yul\":10505:10561   */\n      tag_427\n        /* \"#utility.yul\":10555:10560   */\n      dup4\n        /* \"#utility.yul\":10505:10561   */\n      tag_264\n      jump\t// in\n    tag_427:\n        /* \"#utility.yul\":10584:10591   */\n      dup1\n        /* \"#utility.yul\":10615:10616   */\n      0x00\n        /* \"#utility.yul\":10600:10884   */\n    tag_428:\n        /* \"#utility.yul\":10625:10631   */\n      dup4\n        /* \"#utility.yul\":10622:10623   */\n      dup2\n        /* \"#utility.yul\":10619:10632   */\n      lt\n        /* \"#utility.yul\":10600:10884   */\n      iszero\n      tag_430\n      jumpi\n        /* \"#utility.yul\":10701:10707   */\n      dup2\n        /* \"#utility.yul\":10695:10708   */\n      mload\n        /* \"#utility.yul\":10728:10791   */\n      tag_431\n        /* \"#utility.yul\":10787:10790   */\n      dup9\n        /* \"#utility.yul\":10772:10785   */\n      dup3\n        /* \"#utility.yul\":10728:10791   */\n      tag_268\n      jump\t// in\n    tag_431:\n        /* \"#utility.yul\":10721:10791   */\n      swap8\n      pop\n        /* \"#utility.yul\":10814:10874   */\n      tag_432\n        /* \"#utility.yul\":10867:10873   */\n      dup4\n        /* \"#utility.yul\":10814:10874   */\n      tag_269\n      jump\t// in\n    tag_432:\n        /* \"#utility.yul\":10804:10874   */\n      swap3\n      pop\n        /* \"#utility.yul\":10660:10884   */\n      pop\n        /* \"#utility.yul\":10647:10648   */\n      0x01\n        /* \"#utility.yul\":10644:10645   */\n      dup2\n        /* \"#utility.yul\":10640:10649   */\n      add\n        /* \"#utility.yul\":10635:10649   */\n      swap1\n      pop\n        /* \"#utility.yul\":10600:10884   */\n      jump(tag_428)\n    tag_430:\n        /* \"#utility.yul\":10604:10618   */\n      pop\n        /* \"#utility.yul\":10900:10903   */\n      dup6\n        /* \"#utility.yul\":10893:10903   */\n      swap4\n      pop\n        /* \"#utility.yul\":10301:10909   */\n      pop\n      pop\n      pop\n        /* \"#utility.yul\":10177:10909   */\n      swap3\n      swap2\n      pop\n      pop\n      jump\t// out\n        /* \"#utility.yul\":10915:11288   */\n    tag_24:\n        /* \"#utility.yul\":11058:11062   */\n      0x00\n        /* \"#utility.yul\":11096:11098   */\n      0x20\n        /* \"#utility.yul\":11085:11094   */\n      dup3\n        /* \"#utility.yul\":11081:11099   */\n      add\n        /* \"#utility.yul\":11073:11099   */\n      swap1\n      pop\n        /* \"#utility.yul\":11145:11154   */\n      dup2\n        /* \"#utility.yul\":11139:11143   */\n      dup2\n        /* \"#utility.yul\":11135:11155   */\n      sub\n        /* \"#utility.yul\":11131:11132   */\n      0x00\n        /* \"#utility.yul\":11120:11129   */\n      dup4\n        /* \"#utility.yul\":11116:11133   */\n      add\n        /* \"#utility.yul\":11109:11156   */\n      mstore\n        /* \"#utility.yul\":11173:11281   */\n      tag_434\n        /* \"#utility.yul\":11276:11280   */\n      dup2\n        /* \"#utility.yul\":11267:11273   */\n      dup5\n        /* \"#utility.yul\":11173:11281   */\n      tag_280\n      jump\t// in\n    tag_434:\n        /* \"#utility.yul\":11165:11281   */\n      swap1\n      pop\n        /* \"#utility.yul\":10915:11288   */\n      swap3\n      swap2\n      pop\n      pop\n      jump\t// out\n        /* \"#utility.yul\":11294:11412   */\n    tag_281:\n        /* \"#utility.yul\":11381:11405   */\n      tag_436\n        /* \"#utility.yul\":11399:11404   */\n      dup2\n        /* \"#utility.yul\":11381:11405   */\n      tag_266\n      jump\t// in\n    tag_436:\n        /* \"#utility.yul\":11376:11379   */\n      dup3\n        /* \"#utility.yul\":11369:11406   */\n      mstore\n        /* \"#utility.yul\":11294:11412   */\n      pop\n      pop\n      jump\t// out\n        /* \"#utility.yul\":11418:11640   */\n    tag_30:\n        /* \"#utility.yul\":11511:11515   */\n      0x00\n        /* \"#utility.yul\":11549:11551   */\n      0x20\n        /* \"#utility.yul\":11538:11547   */\n      dup3\n        /* \"#utility.yul\":11534:11552   */\n      add\n        /* \"#utility.yul\":11526:11552   */\n      swap1\n      pop\n        /* \"#utility.yul\":11562:11633   */\n      tag_438\n        /* \"#utility.yul\":11630:11631   */\n      0x00\n        /* \"#utility.yul\":11619:11628   */\n      dup4\n        /* \"#utility.yul\":11615:11632   */\n      add\n        /* \"#utility.yul\":11606:11612   */\n      dup5\n        /* \"#utility.yul\":11562:11633   */\n      tag_281\n      jump\t// in\n    tag_438:\n        /* \"#utility.yul\":11418:11640   */\n      swap3\n      swap2\n      pop\n      pop\n      jump\t// out\n        /* \"#utility.yul\":11646:11975   */\n    tag_33:\n        /* \"#utility.yul\":11705:11711   */\n      0x00\n        /* \"#utility.yul\":11754:11756   */\n      0x20\n        /* \"#utility.yul\":11742:11751   */\n      dup3\n        /* \"#utility.yul\":11733:11740   */\n      dup5\n        /* \"#utility.yul\":11729:11752   */\n      sub\n        /* \"#utility.yul\":11725:11757   */\n      slt\n        /* \"#utility.yul\":11722:11841   */\n      iszero\n      tag_440\n      jumpi\n        /* \"#utility.yul\":11760:11839   */\n      tag_441\n      tag_244\n      jump\t// in\n    tag_441:\n        /* \"#utility.yul\":11722:11841   */\n    tag_440:\n        /* \"#utility.yul\":11880:11881   */\n      0x00\n        /* \"#utility.yul\":11905:11958   */\n      tag_442\n        /* \"#utility.yul\":11950:11957   */\n      dup5\n        /* \"#utility.yul\":11941:11947   */\n      dup3\n        /* \"#utility.yul\":11930:11939   */\n      dup6\n        /* \"#utility.yul\":11926:11948   */\n      add\n        /* \"#utility.yul\":11905:11958   */\n      tag_257\n      jump\t// in\n    tag_442:\n        /* \"#utility.yul\":11895:11958   */\n      swap2\n      pop\n        /* \"#utility.yul\":11851:11968   */\n      pop\n        /* \"#utility.yul\":11646:11975   */\n      swap3\n      swap2\n      pop\n      pop\n      jump\t// out\n        /* \"#utility.yul\":11981:12120   */\n    tag_282:\n        /* \"#utility.yul\":12073:12079   */\n      0x00\n        /* \"#utility.yul\":12107:12112   */\n      dup2\n        /* \"#utility.yul\":12101:12113   */\n      mload\n        /* \"#utility.yul\":12091:12113   */\n      swap1\n      pop\n        /* \"#utility.yul\":11981:12120   */\n      swap2\n      swap1\n      pop\n      jump\t// out\n        /* \"#utility.yul\":12126:12335   */\n    tag_283:\n        /* \"#utility.yul\":12250:12261   */\n      0x00\n        /* \"#utility.yul\":12284:12290   */\n      dup3\n        /* \"#utility.yul\":12279:12282   */\n      dup3\n        /* \"#utility.yul\":12272:12291   */\n      mstore\n        /* \"#utility.yul\":12324:12328   */\n      0x20\n        /* \"#utility.yul\":12319:12322   */\n      dup3\n        /* \"#utility.yul\":12315:12329   */\n      add\n        /* \"#utility.yul\":12300:12329   */\n      swap1\n      pop\n        /* \"#utility.yul\":12126:12335   */\n      swap3\n      swap2\n      pop\n      pop\n      jump\t// out\n        /* \"#utility.yul\":12341:12498   */\n    tag_284:\n        /* \"#utility.yul\":12433:12437   */\n      0x00\n        /* \"#utility.yul\":12456:12459   */\n      dup2\n        /* \"#utility.yul\":12448:12459   */\n      swap1\n      pop\n        /* \"#utility.yul\":12486:12490   */\n      0x20\n        /* \"#utility.yul\":12481:12484   */\n      dup3\n        /* \"#utility.yul\":12477:12491   */\n      add\n        /* \"#utility.yul\":12469:12491   */\n      swap1\n      pop\n        /* \"#utility.yul\":12341:12498   */\n      swap2\n      swap1\n      pop\n      jump\t// out\n        /* \"#utility.yul\":12548:13146   */\n    tag_285:\n        /* \"#utility.yul\":12657:12660   */\n      0x00\n        /* \"#utility.yul\":12693:12697   */\n      0x40\n        /* \"#utility.yul\":12688:12691   */\n      dup4\n        /* \"#utility.yul\":12684:12698   */\n      add\n        /* \"#utility.yul\":12782:12786   */\n      0x00\n        /* \"#utility.yul\":12775:12780   */\n      dup4\n        /* \"#utility.yul\":12771:12787   */\n      add\n        /* \"#utility.yul\":12765:12788   */\n      mload\n        /* \"#utility.yul\":12801:12864   */\n      tag_447\n        /* \"#utility.yul\":12858:12862   */\n      0x00\n        /* \"#utility.yul\":12853:12856   */\n      dup7\n        /* \"#utility.yul\":12849:12863   */\n      add\n        /* \"#utility.yul\":12835:12847   */\n      dup3\n        /* \"#utility.yul\":12801:12864   */\n      tag_261\n      jump\t// in\n    tag_447:\n        /* \"#utility.yul\":12708:12874   */\n      pop\n        /* \"#utility.yul\":12956:12960   */\n      0x20\n        /* \"#utility.yul\":12949:12954   */\n      dup4\n        /* \"#utility.yul\":12945:12961   */\n      add\n        /* \"#utility.yul\":12939:12962   */\n      mload\n        /* \"#utility.yul\":13009:13012   */\n      dup5\n        /* \"#utility.yul\":13003:13007   */\n      dup3\n        /* \"#utility.yul\":12999:13013   */\n      sub\n        /* \"#utility.yul\":12992:12996   */\n      0x20\n        /* \"#utility.yul\":12987:12990   */\n      dup7\n        /* \"#utility.yul\":12983:12997   */\n      add\n        /* \"#utility.yul\":12976:13014   */\n      mstore\n        /* \"#utility.yul\":13035:13108   */\n      tag_448\n        /* \"#utility.yul\":13103:13107   */\n      dup3\n        /* \"#utility.yul\":13089:13101   */\n      dup3\n        /* \"#utility.yul\":13035:13108   */\n      tag_274\n      jump\t// in\n    tag_448:\n        /* \"#utility.yul\":13027:13108   */\n      swap2\n      pop\n        /* \"#utility.yul\":12884:13119   */\n      pop\n        /* \"#utility.yul\":13136:13140   */\n      dup1\n        /* \"#utility.yul\":13129:13140   */\n      swap2\n      pop\n        /* \"#utility.yul\":12662:13146   */\n      pop\n        /* \"#utility.yul\":12548:13146   */\n      swap3\n      swap2\n      pop\n      pop\n      jump\t// out\n        /* \"#utility.yul\":13152:13408   */\n    tag_286:\n        /* \"#utility.yul\":13271:13281   */\n      0x00\n        /* \"#utility.yul\":13306:13402   */\n      tag_450\n        /* \"#utility.yul\":13398:13401   */\n      dup4\n        /* \"#utility.yul\":13390:13396   */\n      dup4\n        /* \"#utility.yul\":13306:13402   */\n      tag_285\n      jump\t// in\n    tag_450:\n        /* \"#utility.yul\":13292:13402   */\n      swap1\n      pop\n        /* \"#utility.yul\":13152:13408   */\n      swap3\n      swap2\n      pop\n      pop\n      jump\t// out\n        /* \"#utility.yul\":13414:13552   */\n    tag_287:\n        /* \"#utility.yul\":13509:13513   */\n      0x00\n        /* \"#utility.yul\":13541:13545   */\n      0x20\n        /* \"#utility.yul\":13536:13539   */\n      dup3\n        /* \"#utility.yul\":13532:13546   */\n      add\n        /* \"#utility.yul\":13524:13546   */\n      swap1\n      pop\n        /* \"#utility.yul\":13414:13552   */\n      swap2\n      swap1\n      pop\n      jump\t// out\n        /* \"#utility.yul\":13606:14717   */\n    tag_288:\n        /* \"#utility.yul\":13775:13778   */\n      0x00\n        /* \"#utility.yul\":13804:13883   */\n      tag_453\n        /* \"#utility.yul\":13877:13882   */\n      dup3\n        /* \"#utility.yul\":13804:13883   */\n      tag_282\n      jump\t// in\n    tag_453:\n        /* \"#utility.yul\":13899:14010   */\n      tag_454\n        /* \"#utility.yul\":14003:14009   */\n      dup2\n        /* \"#utility.yul\":13998:14001   */\n      dup6\n        /* \"#utility.yul\":13899:14010   */\n      tag_283\n      jump\t// in\n    tag_454:\n        /* \"#utility.yul\":13892:14010   */\n      swap4\n      pop\n        /* \"#utility.yul\":14036:14039   */\n      dup4\n        /* \"#utility.yul\":14081:14085   */\n      0x20\n        /* \"#utility.yul\":14073:14079   */\n      dup3\n        /* \"#utility.yul\":14069:14086   */\n      mul\n        /* \"#utility.yul\":14064:14067   */\n      dup6\n        /* \"#utility.yul\":14060:14087   */\n      add\n        /* \"#utility.yul\":14111:14192   */\n      tag_455\n        /* \"#utility.yul\":14186:14191   */\n      dup6\n        /* \"#utility.yul\":14111:14192   */\n      tag_284\n      jump\t// in\n    tag_455:\n        /* \"#utility.yul\":14215:14222   */\n      dup1\n        /* \"#utility.yul\":14246:14247   */\n      0x00\n        /* \"#utility.yul\":14231:14672   */\n    tag_456:\n        /* \"#utility.yul\":14256:14262   */\n      dup6\n        /* \"#utility.yul\":14253:14254   */\n      dup2\n        /* \"#utility.yul\":14250:14263   */\n      lt\n        /* \"#utility.yul\":14231:14672   */\n      iszero\n      tag_458\n      jumpi\n        /* \"#utility.yul\":14327:14336   */\n      dup5\n        /* \"#utility.yul\":14321:14325   */\n      dup5\n        /* \"#utility.yul\":14317:14337   */\n      sub\n        /* \"#utility.yul\":14312:14315   */\n      dup10\n        /* \"#utility.yul\":14305:14338   */\n      mstore\n        /* \"#utility.yul\":14378:14384   */\n      dup2\n        /* \"#utility.yul\":14372:14385   */\n      mload\n        /* \"#utility.yul\":14406:14520   */\n      tag_459\n        /* \"#utility.yul\":14515:14519   */\n      dup6\n        /* \"#utility.yul\":14500:14513   */\n      dup3\n        /* \"#utility.yul\":14406:14520   */\n      tag_286\n      jump\t// in\n    tag_459:\n        /* \"#utility.yul\":14398:14520   */\n      swap5\n      pop\n        /* \"#utility.yul\":14543:14628   */\n      tag_460\n        /* \"#utility.yul\":14621:14627   */\n      dup4\n        /* \"#utility.yul\":14543:14628   */\n      tag_287\n      jump\t// in\n    tag_460:\n        /* \"#utility.yul\":14533:14628   */\n      swap3\n      pop\n        /* \"#utility.yul\":14657:14661   */\n      0x20\n        /* \"#utility.yul\":14652:14655   */\n      dup11\n        /* \"#utility.yul\":14648:14662   */\n      add\n        /* \"#utility.yul\":14641:14662   */\n      swap10\n      pop\n        /* \"#utility.yul\":14291:14672   */\n      pop\n        /* \"#utility.yul\":14278:14279   */\n      0x01\n        /* \"#utility.yul\":14275:14276   */\n      dup2\n        /* \"#utility.yul\":14271:14280   */\n      add\n        /* \"#utility.yul\":14266:14280   */\n      swap1\n      pop\n        /* \"#utility.yul\":14231:14672   */\n      jump(tag_456)\n    tag_458:\n        /* \"#utility.yul\":14235:14249   */\n      pop\n        /* \"#utility.yul\":14688:14692   */\n      dup3\n        /* \"#utility.yul\":14681:14692   */\n      swap8\n      pop\n        /* \"#utility.yul\":14708:14711   */\n      dup8\n        /* \"#utility.yul\":14701:14711   */\n      swap6\n      pop\n        /* \"#utility.yul\":13780:14717   */\n      pop\n      pop\n      pop\n      pop\n      pop\n        /* \"#utility.yul\":13606:14717   */\n      swap3\n      swap2\n      pop\n      pop\n      jump\t// out\n        /* \"#utility.yul\":14723:15196   */\n    tag_41:\n        /* \"#utility.yul\":14916:14920   */\n      0x00\n        /* \"#utility.yul\":14954:14956   */\n      0x20\n        /* \"#utility.yul\":14943:14952   */\n      dup3\n        /* \"#utility.yul\":14939:14957   */\n      add\n        /* \"#utility.yul\":14931:14957   */\n      swap1\n      pop\n        /* \"#utility.yul\":15003:15012   */\n      dup2\n        /* \"#utility.yul\":14997:15001   */\n      dup2\n        /* \"#utility.yul\":14993:15013   */\n      sub\n        /* \"#utility.yul\":14989:14990   */\n      0x00\n        /* \"#utility.yul\":14978:14987   */\n      dup4\n        /* \"#utility.yul\":14974:14991   */\n      add\n        /* \"#utility.yul\":14967:15014   */\n      mstore\n        /* \"#utility.yul\":15031:15189   */\n      tag_462\n        /* \"#utility.yul\":15184:15188   */\n      dup2\n        /* \"#utility.yul\":15175:15181   */\n      dup5\n        /* \"#utility.yul\":15031:15189   */\n      tag_288\n      jump\t// in\n    tag_462:\n        /* \"#utility.yul\":15023:15189   */\n      swap1\n      pop\n        /* \"#utility.yul\":14723:15196   */\n      swap3\n      swap2\n      pop\n      pop\n      jump\t// out\n        /* \"#utility.yul\":15202:15324   */\n    tag_289:\n        /* \"#utility.yul\":15275:15299   */\n      tag_464\n        /* \"#utility.yul\":15293:15298   */\n      dup2\n        /* \"#utility.yul\":15275:15299   */\n      tag_266\n      jump\t// in\n    tag_464:\n        /* \"#utility.yul\":15268:15273   */\n      dup2\n        /* \"#utility.yul\":15265:15300   */\n      eq\n        /* \"#utility.yul\":15255:15318   */\n      tag_465\n      jumpi\n        /* \"#utility.yul\":15314:15315   */\n      0x00\n        /* \"#utility.yul\":15311:15312   */\n      dup1\n        /* \"#utility.yul\":15304:15316   */\n      revert\n        /* \"#utility.yul\":15255:15318   */\n    tag_465:\n        /* \"#utility.yul\":15202:15324   */\n      pop\n      jump\t// out\n        /* \"#utility.yul\":15330:15469   */\n    tag_290:\n        /* \"#utility.yul\":15376:15381   */\n      0x00\n        /* \"#utility.yul\":15414:15420   */\n      dup2\n        /* \"#utility.yul\":15401:15421   */\n      calldataload\n        /* \"#utility.yul\":15392:15421   */\n      swap1\n      pop\n        /* \"#utility.yul\":15430:15463   */\n      tag_467\n        /* \"#utility.yul\":15457:15462   */\n      dup2\n        /* \"#utility.yul\":15430:15463   */\n      tag_289\n      jump\t// in\n    tag_467:\n        /* \"#utility.yul\":15330:15469   */\n      swap3\n      swap2\n      pop\n      pop\n      jump\t// out\n        /* \"#utility.yul\":15475:15804   */\n    tag_44:\n        /* \"#utility.yul\":15534:15540   */\n      0x00\n        /* \"#utility.yul\":15583:15585   */\n      0x20\n        /* \"#utility.yul\":15571:15580   */\n      dup3\n        /* \"#utility.yul\":15562:15569   */\n      dup5\n        /* \"#utility.yul\":15558:15581   */\n      sub\n        /* \"#utility.yul\":15554:15586   */\n      slt\n        /* \"#utility.yul\":15551:15670   */\n      iszero\n      tag_469\n      jumpi\n        /* \"#utility.yul\":15589:15668   */\n      tag_470\n      tag_244\n      jump\t// in\n    tag_470:\n        /* \"#utility.yul\":15551:15670   */\n    tag_469:\n        /* \"#utility.yul\":15709:15710   */\n      0x00\n        /* \"#utility.yul\":15734:15787   */\n      tag_471\n        /* \"#utility.yul\":15779:15786   */\n      dup5\n        /* \"#utility.yul\":15770:15776   */\n      dup3\n        /* \"#utility.yul\":15759:15768   */\n      dup6\n        /* \"#utility.yul\":15755:15777   */\n      add\n        /* \"#utility.yul\":15734:15787   */\n      tag_290\n      jump\t// in\n    tag_471:\n        /* \"#utility.yul\":15724:15787   */\n      swap2\n      pop\n        /* \"#utility.yul\":15680:15797   */\n      pop\n        /* \"#utility.yul\":15475:15804   */\n      swap3\n      swap2\n      pop\n      pop\n      jump\t// out\n        /* \"#utility.yul\":15810:15979   */\n    tag_291:\n        /* \"#utility.yul\":15894:15905   */\n      0x00\n        /* \"#utility.yul\":15928:15934   */\n      dup3\n        /* \"#utility.yul\":15923:15926   */\n      dup3\n        /* \"#utility.yul\":15916:15935   */\n      mstore\n        /* \"#utility.yul\":15968:15972   */\n      0x20\n        /* \"#utility.yul\":15963:15966   */\n      dup3\n        /* \"#utility.yul\":15959:15973   */\n      add\n        /* \"#utility.yul\":15944:15973   */\n      swap1\n      pop\n        /* \"#utility.yul\":15810:15979   */\n      swap3\n      swap2\n      pop\n      pop\n      jump\t// out\n        /* \"#utility.yul\":15985:16222   */\n    tag_292:\n        /* \"#utility.yul\":16125:16159   */\n      0x54686520616d6f756e74206f6620626f6f6b7320746f20626520616464656420\n        /* \"#utility.yul\":16121:16122   */\n      0x00\n        /* \"#utility.yul\":16113:16119   */\n      dup3\n        /* \"#utility.yul\":16109:16123   */\n      add\n        /* \"#utility.yul\":16102:16160   */\n      mstore\n        /* \"#utility.yul\":16194:16214   */\n      0x73686f756c6420626520706f7369746976650000000000000000000000000000\n        /* \"#utility.yul\":16189:16191   */\n      0x20\n        /* \"#utility.yul\":16181:16187   */\n      dup3\n        /* \"#utility.yul\":16177:16192   */\n      add\n        /* \"#utility.yul\":16170:16215   */\n      mstore\n        /* \"#utility.yul\":15985:16222   */\n      pop\n      jump\t// out\n        /* \"#utility.yul\":16228:16594   */\n    tag_293:\n        /* \"#utility.yul\":16370:16373   */\n      0x00\n        /* \"#utility.yul\":16391:16458   */\n      tag_475\n        /* \"#utility.yul\":16455:16457   */\n      0x32\n        /* \"#utility.yul\":16450:16453   */\n      dup4\n        /* \"#utility.yul\":16391:16458   */\n      tag_291\n      jump\t// in\n    tag_475:\n        /* \"#utility.yul\":16384:16458   */\n      swap2\n      pop\n        /* \"#utility.yul\":16467:16560   */\n      tag_476\n        /* \"#utility.yul\":16556:16559   */\n      dup3\n        /* \"#utility.yul\":16467:16560   */\n      tag_292\n      jump\t// in\n    tag_476:\n        /* \"#utility.yul\":16585:16587   */\n      0x40\n        /* \"#utility.yul\":16580:16583   */\n      dup3\n        /* \"#utility.yul\":16576:16588   */\n      add\n        /* \"#utility.yul\":16569:16588   */\n      swap1\n      pop\n        /* \"#utility.yul\":16228:16594   */\n      swap2\n      swap1\n      pop\n      jump\t// out\n        /* \"#utility.yul\":16600:17019   */\n    tag_52:\n        /* \"#utility.yul\":16766:16770   */\n      0x00\n        /* \"#utility.yul\":16804:16806   */\n      0x20\n        /* \"#utility.yul\":16793:16802   */\n      dup3\n        /* \"#utility.yul\":16789:16807   */\n      add\n        /* \"#utility.yul\":16781:16807   */\n      swap1\n      pop\n        /* \"#utility.yul\":16853:16862   */\n      dup2\n        /* \"#utility.yul\":16847:16851   */\n      dup2\n        /* \"#utility.yul\":16843:16863   */\n      sub\n        /* \"#utility.yul\":16839:16840   */\n      0x00\n        /* \"#utility.yul\":16828:16837   */\n      dup4\n        /* \"#utility.yul\":16824:16841   */\n      add\n        /* \"#utility.yul\":16817:16864   */\n      mstore\n        /* \"#utility.yul\":16881:17012   */\n      tag_478\n        /* \"#utility.yul\":17007:17011   */\n      dup2\n        /* \"#utility.yul\":16881:17012   */\n      tag_293\n      jump\t// in\n    tag_478:\n        /* \"#utility.yul\":16873:17012   */\n      swap1\n      pop\n        /* \"#utility.yul\":16600:17019   */\n      swap2\n      swap1\n      pop\n      jump\t// out\n        /* \"#utility.yul\":17025:17205   */\n    tag_294:\n        /* \"#utility.yul\":17073:17150   */\n      0x4e487b7100000000000000000000000000000000000000000000000000000000\n        /* \"#utility.yul\":17070:17071   */\n      0x00\n        /* \"#utility.yul\":17063:17151   */\n      mstore\n        /* \"#utility.yul\":17170:17174   */\n      0x22\n        /* \"#utility.yul\":17167:17168   */\n      0x04\n        /* \"#utility.yul\":17160:17175   */\n      mstore\n        /* \"#utility.yul\":17194:17198   */\n      0x24\n        /* \"#utility.yul\":17191:17192   */\n      0x00\n        /* \"#utility.yul\":17184:17199   */\n      revert\n        /* \"#utility.yul\":17211:17531   */\n    tag_67:\n        /* \"#utility.yul\":17255:17261   */\n      0x00\n        /* \"#utility.yul\":17292:17293   */\n      0x02\n        /* \"#utility.yul\":17286:17290   */\n      dup3\n        /* \"#utility.yul\":17282:17294   */\n      div\n        /* \"#utility.yul\":17272:17294   */\n      swap1\n      pop\n        /* \"#utility.yul\":17339:17340   */\n      0x01\n        /* \"#utility.yul\":17333:17337   */\n      dup3\n        /* \"#utility.yul\":17329:17341   */\n      and\n        /* \"#utility.yul\":17360:17378   */\n      dup1\n        /* \"#utility.yul\":17350:17431   */\n      tag_481\n      jumpi\n        /* \"#utility.yul\":17416:17420   */\n      0x7f\n        /* \"#utility.yul\":17408:17414   */\n      dup3\n        /* \"#utility.yul\":17404:17421   */\n      and\n        /* \"#utility.yul\":17394:17421   */\n      swap2\n      pop\n        /* \"#utility.yul\":17350:17431   */\n    tag_481:\n        /* \"#utility.yul\":17478:17480   */\n      0x20\n        /* \"#utility.yul\":17470:17476   */\n      dup3\n        /* \"#utility.yul\":17467:17481   */\n      lt\n        /* \"#utility.yul\":17447:17465   */\n      dup2\n        /* \"#utility.yul\":17444:17482   */\n      sub\n        /* \"#utility.yul\":17441:17525   */\n      tag_482\n      jumpi\n        /* \"#utility.yul\":17497:17515   */\n      tag_483\n      tag_294\n      jump\t// in\n    tag_483:\n        /* \"#utility.yul\":17441:17525   */\n    tag_482:\n        /* \"#utility.yul\":17262:17531   */\n      pop\n        /* \"#utility.yul\":17211:17531   */\n      swap2\n      swap1\n      pop\n      jump\t// out\n        /* \"#utility.yul\":17537:17678   */\n    tag_295:\n        /* \"#utility.yul\":17586:17590   */\n      0x00\n        /* \"#utility.yul\":17609:17612   */\n      dup2\n        /* \"#utility.yul\":17601:17612   */\n      swap1\n      pop\n        /* \"#utility.yul\":17632:17635   */\n      dup2\n        /* \"#utility.yul\":17629:17630   */\n      0x00\n        /* \"#utility.yul\":17622:17636   */\n      mstore\n        /* \"#utility.yul\":17666:17670   */\n      0x20\n        /* \"#utility.yul\":17663:17664   */\n      0x00\n        /* \"#utility.yul\":17653:17671   */\n      keccak256\n        /* \"#utility.yul\":17645:17671   */\n      swap1\n      pop\n        /* \"#utility.yul\":17537:17678   */\n      swap2\n      swap1\n      pop\n      jump\t// out\n        /* \"#utility.yul\":17684:17777   */\n    tag_296:\n        /* \"#utility.yul\":17721:17727   */\n      0x00\n        /* \"#utility.yul\":17768:17770   */\n      0x20\n        /* \"#utility.yul\":17763:17765   */\n      0x1f\n        /* \"#utility.yul\":17756:17761   */\n      dup4\n        /* \"#utility.yul\":17752:17766   */\n      add\n        /* \"#utility.yul\":17748:17771   */\n      div\n        /* \"#utility.yul\":17738:17771   */\n      swap1\n      pop\n        /* \"#utility.yul\":17684:17777   */\n      swap2\n      swap1\n      pop\n      jump\t// out\n        /* \"#utility.yul\":17783:17890   */\n    tag_297:\n        /* \"#utility.yul\":17827:17835   */\n      0x00\n        /* \"#utility.yul\":17877:17882   */\n      dup3\n        /* \"#utility.yul\":17871:17875   */\n      dup3\n        /* \"#utility.yul\":17867:17883   */\n      shl\n        /* \"#utility.yul\":17846:17883   */\n      swap1\n      pop\n        /* \"#utility.yul\":17783:17890   */\n      swap3\n      swap2\n      pop\n      pop\n      jump\t// out\n        /* \"#utility.yul\":17896:18289   */\n    tag_298:\n        /* \"#utility.yul\":17965:17971   */\n      0x00\n        /* \"#utility.yul\":18015:18016   */\n      0x08\n        /* \"#utility.yul\":18003:18013   */\n      dup4\n        /* \"#utility.yul\":17999:18017   */\n      mul\n        /* \"#utility.yul\":18038:18135   */\n      tag_488\n        /* \"#utility.yul\":18068:18134   */\n      0xffffffffffffffffffffffffffffffffffffffffffffffffffffffffffffffff\n        /* \"#utility.yul\":18057:18066   */\n      dup3\n        /* \"#utility.yul\":18038:18135   */\n      tag_297\n      jump\t// in\n    tag_488:\n        /* \"#utility.yul\":18156:18195   */\n      tag_489\n        /* \"#utility.yul\":18186:18194   */\n      dup7\n        /* \"#utility.yul\":18175:18184   */\n      dup4\n        /* \"#utility.yul\":18156:18195   */\n      tag_297\n      jump\t// in\n    tag_489:\n        /* \"#utility.yul\":18144:18195   */\n      swap6\n      pop\n        /* \"#utility.yul\":18228:18232   */\n      dup1\n        /* \"#utility.yul\":18224:18233   */\n      not\n        /* \"#utility.yul\":18217:18222   */\n      dup5\n        /* \"#utility.yul\":18213:18234   */\n      and\n        /* \"#utility.yul\":18204:18234   */\n      swap4\n      pop\n        /* \"#utility.yul\":18277:18281   */\n      dup1\n        /* \"#utility.yul\":18267:18275   */\n      dup7\n        /* \"#utility.yul\":18263:18282   */\n      and\n        /* \"#utility.yul\":18256:18261   */\n      dup5\n        /* \"#utility.yul\":18253:18283   */\n      or\n        /* \"#utility.yul\":18243:18283   */\n      swap3\n      pop\n        /* \"#utility.yul\":17972:18289   */\n      pop\n      pop\n        /* \"#utility.yul\":17896:18289   */\n      swap4\n      swap3\n      pop\n      pop\n      pop\n      jump\t// out\n        /* \"#utility.yul\":18295:18355   */\n    tag_299:\n        /* \"#utility.yul\":18323:18326   */\n      0x00\n        /* \"#utility.yul\":18344:18349   */\n      dup2\n        /* \"#utility.yul\":18337:18349   */\n      swap1\n      pop\n        /* \"#utility.yul\":18295:18355   */\n      swap2\n      swap1\n      pop\n      jump\t// out\n        /* \"#utility.yul\":18361:18503   */\n    tag_300:\n        /* \"#utility.yul\":18411:18420   */\n      0x00\n        /* \"#utility.yul\":18444:18497   */\n      tag_492\n        /* \"#utility.yul\":18462:18496   */\n      tag_493\n        /* \"#utility.yul\":18471:18495   */\n      tag_494\n        /* \"#utility.yul\":18489:18494   */\n      dup5\n        /* \"#utility.yul\":18471:18495   */\n      tag_255\n      jump\t// in\n    tag_494:\n        /* \"#utility.yul\":18462:18496   */\n      tag_299\n      jump\t// in\n    tag_493:\n        /* \"#utility.yul\":18444:18497   */\n      tag_255\n      jump\t// in\n    tag_492:\n        /* \"#utility.yul\":18431:18497   */\n      swap1\n      pop\n        /* \"#utility.yul\":18361:18503   */\n      swap2\n      swap1\n      pop\n      jump\t// out\n        /* \"#utility.yul\":18509:18584   */\n    tag_301:\n        /* \"#utility.yul\":18552:18555   */\n      0x00\n        /* \"#utility.yul\":18573:18578   */\n      dup2\n        /* \"#utility.yul\":18566:18578   */\n      swap1\n      pop\n        /* \"#utility.yul\":18509:18584   */\n      swap2\n      swap1\n      pop\n      jump\t// out\n        /* \"#utility.yul\":18590:18859   */\n    tag_302:\n        /* \"#utility.yul\":18700:18739   */\n      tag_497\n        /* \"#utility.yul\":18731:18738   */\n      dup4\n        /* \"#utility.yul\":18700:18739   */\n      tag_300\n      jump\t// in\n    tag_497:\n        /* \"#utility.yul\":18761:18852   */\n      tag_498\n        /* \"#utility.yul\":18810:18851   */\n      tag_499\n        /* \"#utility.yul\":18834:18850   */\n      dup3\n        /* \"#utility.yul\":18810:18851   */\n      tag_301\n      jump\t// in\n    tag_499:\n        /* \"#utility.yul\":18802:18808   */\n      dup5\n        /* \"#utility.yul\":18795:18799   */\n      dup5\n        /* \"#utility.yul\":18789:18800   */\n      sload\n        /* \"#utility.yul\":18761:18852   */\n      tag_298\n      jump\t// in\n    tag_498:\n        /* \"#utility.yul\":18755:18759   */\n      dup3\n        /* \"#utility.yul\":18748:18853   */\n      sstore\n        /* \"#utility.yul\":18666:18859   */\n      pop\n        /* \"#utility.yul\":18590:18859   */\n      pop\n      pop\n      pop\n      jump\t// out\n        /* \"#utility.yul\":18865:18938   */\n    tag_303:\n        /* \"#utility.yul\":18910:18913   */\n      0x00\n        /* \"#utility.yul\":18865:18938   */\n      swap1\n      jump\t// out\n        /* \"#utility.yul\":18944:19133   */\n    tag_304:\n        /* \"#utility.yul\":19021:19053   */\n      tag_502\n      tag_303\n      jump\t// in\n    tag_502:\n        /* \"#utility.yul\":19062:19127   */\n      tag_503\n        /* \"#utility.yul\":19120:19126   */\n      dup2\n        /* \"#utility.yul\":19112:19118   */\n      dup5\n        /* \"#utility.yul\":19106:19110   */\n      dup5\n        /* \"#utility.yul\":19062:19127   */\n      tag_302\n      jump\t// in\n    tag_503:\n        /* \"#utility.yul\":18997:19133   */\n      pop\n        /* \"#utility.yul\":18944:19133   */\n      pop\n      pop\n      jump\t// out\n        /* \"#utility.yul\":19139:19325   */\n    tag_305:\n        /* \"#utility.yul\":19199:19319   */\n    tag_505:\n        /* \"#utility.yul\":19216:19219   */\n      dup2\n        /* \"#utility.yul\":19209:19214   */\n      dup2\n        /* \"#utility.yul\":19206:19220   */\n      lt\n        /* \"#utility.yul\":19199:19319   */\n      iszero\n      tag_507\n      jumpi\n        /* \"#utility.yul\":19270:19309   */\n      tag_508\n        /* \"#utility.yul\":19307:19308   */\n      0x00\n        /* \"#utility.yul\":19300:19305   */\n      dup3\n        /* \"#utility.yul\":19270:19309   */\n      tag_304\n      jump\t// in\n    tag_508:\n        /* \"#utility.yul\":19243:19244   */\n      0x01\n        /* \"#utility.yul\":19236:19241   */\n      dup2\n        /* \"#utility.yul\":19232:19245   */\n      add\n        /* \"#utility.yul\":19223:19245   */\n      swap1\n      pop\n        /* \"#utility.yul\":19199:19319   */\n      jump(tag_505)\n    tag_507:\n        /* \"#utility.yul\":19139:19325   */\n      pop\n      pop\n      jump\t// out\n        /* \"#utility.yul\":19331:19874   */\n    tag_306:\n        /* \"#utility.yul\":19432:19434   */\n      0x1f\n        /* \"#utility.yul\":19427:19430   */\n      dup3\n        /* \"#utility.yul\":19424:19435   */\n      gt\n        /* \"#utility.yul\":19421:19867   */\n      iszero\n      tag_510\n      jumpi\n        /* \"#utility.yul\":19466:19504   */\n      tag_511\n        /* \"#utility.yul\":19498:19503   */\n      dup2\n        /* \"#utility.yul\":19466:19504   */\n      tag_295\n      jump\t// in\n    tag_511:\n        /* \"#utility.yul\":19550:19579   */\n      tag_512\n        /* \"#utility.yul\":19568:19578   */\n      dup5\n        /* \"#utility.yul\":19550:19579   */\n      tag_296\n      jump\t// in\n    tag_512:\n        /* \"#utility.yul\":19540:19548   */\n      dup2\n        /* \"#utility.yul\":19536:19580   */\n      add\n        /* \"#utility.yul\":19733:19735   */\n      0x20\n        /* \"#utility.yul\":19721:19731   */\n      dup6\n        /* \"#utility.yul\":19718:19736   */\n      lt\n        /* \"#utility.yul\":19715:19764   */\n      iszero\n      tag_513\n      jumpi\n        /* \"#utility.yul\":19754:19762   */\n      dup2\n        /* \"#utility.yul\":19739:19762   */\n      swap1\n      pop\n        /* \"#utility.yul\":19715:19764   */\n    tag_513:\n        /* \"#utility.yul\":19777:19857   */\n      tag_514\n        /* \"#utility.yul\":19833:19855   */\n      tag_515\n        /* \"#utility.yul\":19851:19854   */\n      dup6\n        /* \"#utility.yul\":19833:19855   */\n      tag_296\n      jump\t// in\n    tag_515:\n        /* \"#utility.yul\":19823:19831   */\n      dup4\n        /* \"#utility.yul\":19819:19856   */\n      add\n        /* \"#utility.yul\":19806:19817   */\n      dup3\n        /* \"#utility.yul\":19777:19857   */\n      tag_305\n      jump\t// in\n    tag_514:\n        /* \"#utility.yul\":19436:19867   */\n      pop\n      pop\n        /* \"#utility.yul\":19421:19867   */\n    tag_510:\n        /* \"#utility.yul\":19331:19874   */\n      pop\n      pop\n      pop\n      jump\t// out\n        /* \"#utility.yul\":19880:19997   */\n    tag_307:\n        /* \"#utility.yul\":19934:19942   */\n      0x00\n        /* \"#utility.yul\":19984:19989   */\n      dup3\n        /* \"#utility.yul\":19978:19982   */\n      dup3\n        /* \"#utility.yul\":19974:19990   */\n      shr\n        /* \"#utility.yul\":19953:19990   */\n      swap1\n      pop\n        /* \"#utility.yul\":19880:19997   */\n      swap3\n      swap2\n      pop\n      pop\n      jump\t// out\n        /* \"#utility.yul\":20003:20172   */\n    tag_308:\n        /* \"#utility.yul\":20047:20053   */\n      0x00\n        /* \"#utility.yul\":20080:20131   */\n      tag_518\n        /* \"#utility.yul\":20128:20129   */\n      0x00\n        /* \"#utility.yul\":20124:20130   */\n      not\n        /* \"#utility.yul\":20116:20121   */\n      dup5\n        /* \"#utility.yul\":20113:20114   */\n      0x08\n        /* \"#utility.yul\":20109:20122   */\n      mul\n        /* \"#utility.yul\":20080:20131   */\n      tag_307\n      jump\t// in\n    tag_518:\n        /* \"#utility.yul\":20076:20132   */\n      not\n        /* \"#utility.yul\":20161:20165   */\n      dup1\n        /* \"#utility.yul\":20155:20159   */\n      dup4\n        /* \"#utility.yul\":20151:20166   */\n      and\n        /* \"#utility.yul\":20141:20166   */\n      swap2\n      pop\n        /* \"#utility.yul\":20054:20172   */\n      pop\n        /* \"#utility.yul\":20003:20172   */\n      swap3\n      swap2\n      pop\n      pop\n      jump\t// out\n        /* \"#utility.yul\":20177:20472   */\n    tag_309:\n        /* \"#utility.yul\":20253:20257   */\n      0x00\n        /* \"#utility.yul\":20399:20428   */\n      tag_520\n        /* \"#utility.yul\":20424:20427   */\n      dup4\n        /* \"#utility.yul\":20418:20422   */\n      dup4\n        /* \"#utility.yul\":20399:20428   */\n      tag_308\n      jump\t// in\n    tag_520:\n        /* \"#utility.yul\":20391:20428   */\n      swap2\n      pop\n        /* \"#utility.yul\":20461:20464   */\n      dup3\n        /* \"#utility.yul\":20458:20459   */\n      0x02\n        /* \"#utility.yul\":20454:20465   */\n      mul\n        /* \"#utility.yul\":20448:20452   */\n      dup3\n        /* \"#utility.yul\":20445:20466   */\n      or\n        /* \"#utility.yul\":20437:20466   */\n      swap1\n      pop\n        /* \"#utility.yul\":20177:20472   */\n      swap3\n      swap2\n      pop\n      pop\n      jump\t// out\n        /* \"#utility.yul\":20477:21872   */\n    tag_57:\n        /* \"#utility.yul\":20594:20631   */\n      tag_522\n        /* \"#utility.yul\":20627:20630   */\n      dup3\n        /* \"#utility.yul\":20594:20631   */\n      tag_271\n      jump\t// in\n    tag_522:\n        /* \"#utility.yul\":20696:20714   */\n      0xffffffffffffffff\n        /* \"#utility.yul\":20688:20694   */\n      dup2\n        /* \"#utility.yul\":20685:20715   */\n      gt\n        /* \"#utility.yul\":20682:20738   */\n      iszero\n      tag_523\n      jumpi\n        /* \"#utility.yul\":20718:20736   */\n      tag_524\n      tag_89\n      jump\t// in\n    tag_524:\n        /* \"#utility.yul\":20682:20738   */\n    tag_523:\n        /* \"#utility.yul\":20762:20800   */\n      tag_525\n        /* \"#utility.yul\":20794:20798   */\n      dup3\n        /* \"#utility.yul\":20788:20799   */\n      sload\n        /* \"#utility.yul\":20762:20800   */\n      tag_67\n      jump\t// in\n    tag_525:\n        /* \"#utility.yul\":20847:20914   */\n      tag_526\n        /* \"#utility.yul\":20907:20913   */\n      dup3\n        /* \"#utility.yul\":20899:20905   */\n      dup3\n        /* \"#utility.yul\":20893:20897   */\n      dup6\n        /* \"#utility.yul\":20847:20914   */\n      tag_306\n      jump\t// in\n    tag_526:\n        /* \"#utility.yul\":20941:20942   */\n      0x00\n        /* \"#utility.yul\":20965:20969   */\n      0x20\n        /* \"#utility.yul\":20952:20969   */\n      swap1\n      pop\n        /* \"#utility.yul\":20997:20999   */\n      0x1f\n        /* \"#utility.yul\":20989:20995   */\n      dup4\n        /* \"#utility.yul\":20986:21000   */\n      gt\n        /* \"#utility.yul\":21014:21015   */\n      0x01\n        /* \"#utility.yul\":21009:21627   */\n      dup2\n      eq\n      tag_528\n      jumpi\n        /* \"#utility.yul\":21671:21672   */\n      0x00\n        /* \"#utility.yul\":21688:21694   */\n      dup5\n        /* \"#utility.yul\":21685:21762   */\n      iszero\n      tag_529\n      jumpi\n        /* \"#utility.yul\":21737:21746   */\n      dup3\n        /* \"#utility.yul\":21732:21735   */\n      dup8\n        /* \"#utility.yul\":21728:21747   */\n      add\n        /* \"#utility.yul\":21722:21748   */\n      mload\n        /* \"#utility.yul\":21713:21748   */\n      swap1\n      pop\n        /* \"#utility.yul\":21685:21762   */\n    tag_529:\n        /* \"#utility.yul\":21788:21855   */\n      tag_530\n        /* \"#utility.yul\":21848:21854   */\n      dup6\n        /* \"#utility.yul\":21841:21846   */\n      dup3\n        /* \"#utility.yul\":21788:21855   */\n      tag_309\n      jump\t// in\n    tag_530:\n        /* \"#utility.yul\":21782:21786   */\n      dup7\n        /* \"#utility.yul\":21775:21856   */\n      sstore\n        /* \"#utility.yul\":21644:21866   */\n      pop\n        /* \"#utility.yul\":20979:21866   */\n      jump(tag_527)\n        /* \"#utility.yul\":21009:21627   */\n    tag_528:\n        /* \"#utility.yul\":21061:21065   */\n      0x1f\n        /* \"#utility.yul\":21057:21066   */\n      not\n        /* \"#utility.yul\":21049:21055   */\n      dup5\n        /* \"#utility.yul\":21045:21067   */\n      and\n        /* \"#utility.yul\":21095:21132   */\n      tag_531\n        /* \"#utility.yul\":21127:21131   */\n      dup7\n        /* \"#utility.yul\":21095:21132   */\n      tag_295\n      jump\t// in\n    tag_531:\n        /* \"#utility.yul\":21154:21155   */\n      0x00\n        /* \"#utility.yul\":21168:21376   */\n    tag_532:\n        /* \"#utility.yul\":21182:21189   */\n      dup3\n        /* \"#utility.yul\":21179:21180   */\n      dup2\n        /* \"#utility.yul\":21176:21190   */\n      lt\n        /* \"#utility.yul\":21168:21376   */\n      iszero\n      tag_534\n      jumpi\n        /* \"#utility.yul\":21261:21270   */\n      dup5\n        /* \"#utility.yul\":21256:21259   */\n      dup10\n        /* \"#utility.yul\":21252:21271   */\n      add\n        /* \"#utility.yul\":21246:21272   */\n      mload\n        /* \"#utility.yul\":21238:21244   */\n      dup3\n        /* \"#utility.yul\":21231:21273   */\n      sstore\n        /* \"#utility.yul\":21312:21313   */\n      0x01\n        /* \"#utility.yul\":21304:21310   */\n      dup3\n        /* \"#utility.yul\":21300:21314   */\n      add\n        /* \"#utility.yul\":21290:21314   */\n      swap2\n      pop\n        /* \"#utility.yul\":21359:21361   */\n      0x20\n        /* \"#utility.yul\":21348:21357   */\n      dup6\n        /* \"#utility.yul\":21344:21362   */\n      add\n        /* \"#utility.yul\":21331:21362   */\n      swap5\n      pop\n        /* \"#utility.yul\":21205:21209   */\n      0x20\n        /* \"#utility.yul\":21202:21203   */\n      dup2\n        /* \"#utility.yul\":21198:21210   */\n      add\n        /* \"#utility.yul\":21193:21210   */\n      swap1\n      pop\n        /* \"#utility.yul\":21168:21376   */\n      jump(tag_532)\n    tag_534:\n        /* \"#utility.yul\":21404:21410   */\n      dup7\n        /* \"#utility.yul\":21395:21402   */\n      dup4\n        /* \"#utility.yul\":21392:21411   */\n      lt\n        /* \"#utility.yul\":21389:21568   */\n      iszero\n      tag_535\n      jumpi\n        /* \"#utility.yul\":21462:21471   */\n      dup5\n        /* \"#utility.yul\":21457:21460   */\n      dup10\n        /* \"#utility.yul\":21453:21472   */\n      add\n        /* \"#utility.yul\":21447:21473   */\n      mload\n        /* \"#utility.yul\":21505:21553   */\n      tag_536\n        /* \"#utility.yul\":21547:21551   */\n      0x1f\n        /* \"#utility.yul\":21539:21545   */\n      dup10\n        /* \"#utility.yul\":21535:21552   */\n      and\n        /* \"#utility.yul\":21524:21533   */\n      dup3\n        /* \"#utility.yul\":21505:21553   */\n      tag_308\n      jump\t// in\n    tag_536:\n        /* \"#utility.yul\":21497:21503   */\n      dup4\n        /* \"#utility.yul\":21490:21554   */\n      sstore\n        /* \"#utility.yul\":21412:21568   */\n      pop\n        /* \"#utility.yul\":21389:21568   */\n    tag_535:\n        /* \"#utility.yul\":21614:21615   */\n      0x01\n        /* \"#utility.yul\":21610:21611   */\n      0x02\n        /* \"#utility.yul\":21602:21608   */\n      dup9\n        /* \"#utility.yul\":21598:21612   */\n      mul\n        /* \"#utility.yul\":21594:21616   */\n      add\n        /* \"#utility.yul\":21588:21592   */\n      dup9\n        /* \"#utility.yul\":21581:21617   */\n      sstore\n        /* \"#utility.yul\":21016:21627   */\n      pop\n      pop\n      pop\n        /* \"#utility.yul\":20979:21866   */\n    tag_527:\n      pop\n        /* \"#utility.yul\":20569:21872   */\n      pop\n      pop\n      pop\n        /* \"#utility.yul\":20477:21872   */\n      pop\n      pop\n      jump\t// out\n        /* \"#utility.yul\":21878:22058   */\n    tag_310:\n        /* \"#utility.yul\":21926:22003   */\n      0x4e487b7100000000000000000000000000000000000000000000000000000000\n        /* \"#utility.yul\":21923:21924   */\n      0x00\n        /* \"#utility.yul\":21916:22004   */\n      mstore\n        /* \"#utility.yul\":22023:22027   */\n      0x11\n        /* \"#utility.yul\":22020:22021   */\n      0x04\n        /* \"#utility.yul\":22013:22028   */\n      mstore\n        /* \"#utility.yul\":22047:22051   */\n      0x24\n        /* \"#utility.yul\":22044:22045   */\n      0x00\n        /* \"#utility.yul\":22037:22052   */\n      revert\n        /* \"#utility.yul\":22064:22255   */\n    tag_59:\n        /* \"#utility.yul\":22104:22107   */\n      0x00\n        /* \"#utility.yul\":22123:22143   */\n      tag_539\n        /* \"#utility.yul\":22141:22142   */\n      dup3\n        /* \"#utility.yul\":22123:22143   */\n      tag_255\n      jump\t// in\n    tag_539:\n        /* \"#utility.yul\":22118:22143   */\n      swap2\n      pop\n        /* \"#utility.yul\":22157:22177   */\n      tag_540\n        /* \"#utility.yul\":22175:22176   */\n      dup4\n        /* \"#utility.yul\":22157:22177   */\n      tag_255\n      jump\t// in\n    tag_540:\n        /* \"#utility.yul\":22152:22177   */\n      swap3\n      pop\n        /* \"#utility.yul\":22200:22201   */\n      dup3\n        /* \"#utility.yul\":22197:22198   */\n      dup3\n        /* \"#utility.yul\":22193:22202   */\n      add\n        /* \"#utility.yul\":22186:22202   */\n      swap1\n      pop\n        /* \"#utility.yul\":22221:22224   */\n      dup1\n        /* \"#utility.yul\":22218:22219   */\n      dup3\n        /* \"#utility.yul\":22215:22225   */\n      gt\n        /* \"#utility.yul\":22212:22248   */\n      iszero\n      tag_541\n      jumpi\n        /* \"#utility.yul\":22228:22246   */\n      tag_542\n      tag_310\n      jump\t// in\n    tag_542:\n        /* \"#utility.yul\":22212:22248   */\n    tag_541:\n        /* \"#utility.yul\":22064:22255   */\n      swap3\n      swap2\n      pop\n      pop\n      jump\t// out\n        /* \"#utility.yul\":22261:22438   */\n    tag_311:\n        /* \"#utility.yul\":22401:22430   */\n      0x5573657220686173206e6f20626f6f6b7320746f2072657475726e0000000000\n        /* \"#utility.yul\":22397:22398   */\n      0x00\n        /* \"#utility.yul\":22389:22395   */\n      dup3\n        /* \"#utility.yul\":22385:22399   */\n      add\n        /* \"#utility.yul\":22378:22431   */\n      mstore\n        /* \"#utility.yul\":22261:22438   */\n      pop\n      jump\t// out\n        /* \"#utility.yul\":22444:22810   */\n    tag_312:\n        /* \"#utility.yul\":22586:22589   */\n      0x00\n        /* \"#utility.yul\":22607:22674   */\n      tag_545\n        /* \"#utility.yul\":22671:22673   */\n      0x1b\n        /* \"#utility.yul\":22666:22669   */\n      dup4\n        /* \"#utility.yul\":22607:22674   */\n      tag_291\n      jump\t// in\n    tag_545:\n        /* \"#utility.yul\":22600:22674   */\n      swap2\n      pop\n        /* \"#utility.yul\":22683:22776   */\n      tag_546\n        /* \"#utility.yul\":22772:22775   */\n      dup3\n        /* \"#utility.yul\":22683:22776   */\n      tag_311\n      jump\t// in\n    tag_546:\n        /* \"#utility.yul\":22801:22803   */\n      0x20\n        /* \"#utility.yul\":22796:22799   */\n      dup3\n        /* \"#utility.yul\":22792:22804   */\n      add\n        /* \"#utility.yul\":22785:22804   */\n      swap1\n      pop\n        /* \"#utility.yul\":22444:22810   */\n      swap2\n      swap1\n      pop\n      jump\t// out\n        /* \"#utility.yul\":22816:23235   */\n    tag_84:\n        /* \"#utility.yul\":22982:22986   */\n      0x00\n        /* \"#utility.yul\":23020:23022   */\n      0x20\n        /* \"#utility.yul\":23009:23018   */\n      dup3\n        /* \"#utility.yul\":23005:23023   */\n      add\n        /* \"#utility.yul\":22997:23023   */\n      swap1\n      pop\n        /* \"#utility.yul\":23069:23078   */\n      dup2\n        /* \"#utility.yul\":23063:23067   */\n      dup2\n        /* \"#utility.yul\":23059:23079   */\n      sub\n        /* \"#utility.yul\":23055:23056   */\n      0x00\n        /* \"#utility.yul\":23044:23053   */\n      dup4\n        /* \"#utility.yul\":23040:23057   */\n      add\n        /* \"#utility.yul\":23033:23080   */\n      mstore\n        /* \"#utility.yul\":23097:23228   */\n      tag_548\n        /* \"#utility.yul\":23223:23227   */\n      dup2\n        /* \"#utility.yul\":23097:23228   */\n      tag_312\n      jump\t// in\n    tag_548:\n        /* \"#utility.yul\":23089:23228   */\n      swap1\n      pop\n        /* \"#utility.yul\":22816:23235   */\n      swap2\n      swap1\n      pop\n      jump\t// out\n        /* \"#utility.yul\":23241:23435   */\n    tag_86:\n        /* \"#utility.yul\":23281:23285   */\n      0x00\n        /* \"#utility.yul\":23301:23321   */\n      tag_550\n        /* \"#utility.yul\":23319:23320   */\n      dup3\n        /* \"#utility.yul\":23301:23321   */\n      tag_255\n      jump\t// in\n    tag_550:\n        /* \"#utility.yul\":23296:23321   */\n      swap2\n      pop\n        /* \"#utility.yul\":23335:23355   */\n      tag_551\n        /* \"#utility.yul\":23353:23354   */\n      dup4\n        /* \"#utility.yul\":23335:23355   */\n      tag_255\n      jump\t// in\n    tag_551:\n        /* \"#utility.yul\":23330:23355   */\n      swap3\n      pop\n        /* \"#utility.yul\":23379:23380   */\n      dup3\n        /* \"#utility.yul\":23376:23377   */\n      dup3\n        /* \"#utility.yul\":23372:23381   */\n      sub\n        /* \"#utility.yul\":23364:23381   */\n      swap1\n      pop\n        /* \"#utility.yul\":23403:23404   */\n      dup2\n        /* \"#utility.yul\":23397:23401   */\n      dup2\n        /* \"#utility.yul\":23394:23405   */\n      gt\n        /* \"#utility.yul\":23391:23428   */\n      iszero\n      tag_552\n      jumpi\n        /* \"#utility.yul\":23408:23426   */\n      tag_553\n      tag_310\n      jump\t// in\n    tag_553:\n        /* \"#utility.yul\":23391:23428   */\n    tag_552:\n        /* \"#utility.yul\":23241:23435   */\n      swap3\n      swap2\n      pop\n      pop\n      jump\t// out\n        /* \"#utility.yul\":23441:23621   */\n    tag_96:\n        /* \"#utility.yul\":23489:23566   */\n      0x4e487b7100000000000000000000000000000000000000000000000000000000\n        /* \"#utility.yul\":23486:23487   */\n      0x00\n        /* \"#utility.yul\":23479:23567   */\n      mstore\n        /* \"#utility.yul\":23586:23590   */\n      0x32\n        /* \"#utility.yul\":23583:23584   */\n      0x04\n        /* \"#utility.yul\":23576:23591   */\n      mstore\n        /* \"#utility.yul\":23610:23614   */\n      0x24\n        /* \"#utility.yul\":23607:23608   */\n      0x00\n        /* \"#utility.yul\":23600:23615   */\n      revert\n        /* \"#utility.yul\":23627:23860   */\n    tag_107:\n        /* \"#utility.yul\":23666:23669   */\n      0x00\n        /* \"#utility.yul\":23689:23713   */\n      tag_556\n        /* \"#utility.yul\":23707:23712   */\n      dup3\n        /* \"#utility.yul\":23689:23713   */\n      tag_255\n      jump\t// in\n    tag_556:\n        /* \"#utility.yul\":23680:23713   */\n      swap2\n      pop\n        /* \"#utility.yul\":23735:23801   */\n      0xffffffffffffffffffffffffffffffffffffffffffffffffffffffffffffffff\n        /* \"#utility.yul\":23728:23733   */\n      dup3\n        /* \"#utility.yul\":23725:23802   */\n      sub\n        /* \"#utility.yul\":23722:23825   */\n      tag_557\n      jumpi\n        /* \"#utility.yul\":23805:23823   */\n      tag_558\n      tag_310\n      jump\t// in\n    tag_558:\n        /* \"#utility.yul\":23722:23825   */\n    tag_557:\n        /* \"#utility.yul\":23852:23853   */\n      0x01\n        /* \"#utility.yul\":23845:23850   */\n      dup3\n        /* \"#utility.yul\":23841:23854   */\n      add\n        /* \"#utility.yul\":23834:23854   */\n      swap1\n      pop\n        /* \"#utility.yul\":23627:23860   */\n      swap2\n      swap1\n      pop\n      jump\t// out\n        /* \"#utility.yul\":23866:24092   */\n    tag_313:\n        /* \"#utility.yul\":24006:24040   */\n      0x5573657220686173206e6f7420726573657276656420626f6f6b207769746820\n        /* \"#utility.yul\":24002:24003   */\n      0x00\n        /* \"#utility.yul\":23994:24000   */\n      dup3\n        /* \"#utility.yul\":23990:24004   */\n      add\n        /* \"#utility.yul\":23983:24041   */\n      mstore\n        /* \"#utility.yul\":24075:24084   */\n      0x7375636820696400000000000000000000000000000000000000000000000000\n        /* \"#utility.yul\":24070:24072   */\n      0x20\n        /* \"#utility.yul\":24062:24068   */\n      dup3\n        /* \"#utility.yul\":24058:24073   */\n      add\n        /* \"#utility.yul\":24051:24085   */\n      mstore\n        /* \"#utility.yul\":23866:24092   */\n      pop\n      jump\t// out\n        /* \"#utility.yul\":24098:24464   */\n    tag_314:\n        /* \"#utility.yul\":24240:24243   */\n      0x00\n        /* \"#utility.yul\":24261:24328   */\n      tag_561\n        /* \"#utility.yul\":24325:24327   */\n      0x27\n        /* \"#utility.yul\":24320:24323   */\n      dup4\n        /* \"#utility.yul\":24261:24328   */\n      tag_291\n      jump\t// in\n    tag_561:\n        /* \"#utility.yul\":24254:24328   */\n      swap2\n      pop\n        /* \"#utility.yul\":24337:24430   */\n      tag_562\n        /* \"#utility.yul\":24426:24429   */\n      dup3\n        /* \"#utility.yul\":24337:24430   */\n      tag_313\n      jump\t// in\n    tag_562:\n        /* \"#utility.yul\":24455:24457   */\n      0x40\n        /* \"#utility.yul\":24450:24453   */\n      dup3\n        /* \"#utility.yul\":24446:24458   */\n      add\n        /* \"#utility.yul\":24439:24458   */\n      swap1\n      pop\n        /* \"#utility.yul\":24098:24464   */\n      swap2\n      swap1\n      pop\n      jump\t// out\n        /* \"#utility.yul\":24470:24889   */\n    tag_110:\n        /* \"#utility.yul\":24636:24640   */\n      0x00\n        /* \"#utility.yul\":24674:24676   */\n      0x20\n        /* \"#utility.yul\":24663:24672   */\n      dup3\n        /* \"#utility.yul\":24659:24677   */\n      add\n        /* \"#utility.yul\":24651:24677   */\n      swap1\n      pop\n        /* \"#utility.yul\":24723:24732   */\n      dup2\n        /* \"#utility.yul\":24717:24721   */\n      dup2\n        /* \"#utility.yul\":24713:24733   */\n      sub\n        /* \"#utility.yul\":24709:24710   */\n      0x00\n        /* \"#utility.yul\":24698:24707   */\n      dup4\n        /* \"#utility.yul\":24694:24711   */\n      add\n        /* \"#utility.yul\":24687:24734   */\n      mstore\n        /* \"#utility.yul\":24751:24882   */\n      tag_564\n        /* \"#utility.yul\":24877:24881   */\n      dup2\n        /* \"#utility.yul\":24751:24882   */\n      tag_314\n      jump\t// in\n    tag_564:\n        /* \"#utility.yul\":24743:24882   */\n      swap1\n      pop\n        /* \"#utility.yul\":24470:24889   */\n      swap2\n      swap1\n      pop\n      jump\t// out\n        /* \"#utility.yul\":24895:25066   */\n    tag_315:\n        /* \"#utility.yul\":25035:25058   */\n      0x5468657265206973206e6f207375636820626f6f6b0000000000000000000000\n        /* \"#utility.yul\":25031:25032   */\n      0x00\n        /* \"#utility.yul\":25023:25029   */\n      dup3\n        /* \"#utility.yul\":25019:25033   */\n      add\n        /* \"#utility.yul\":25012:25059   */\n      mstore\n        /* \"#utility.yul\":24895:25066   */\n      pop\n      jump\t// out\n        /* \"#utility.yul\":25072:25438   */\n    tag_316:\n        /* \"#utility.yul\":25214:25217   */\n      0x00\n        /* \"#utility.yul\":25235:25302   */\n      tag_567\n        /* \"#utility.yul\":25299:25301   */\n      0x15\n        /* \"#utility.yul\":25294:25297   */\n      dup4\n        /* \"#utility.yul\":25235:25302   */\n      tag_291\n      jump\t// in\n    tag_567:\n        /* \"#utility.yul\":25228:25302   */\n      swap2\n      pop\n        /* \"#utility.yul\":25311:25404   */\n      tag_568\n        /* \"#utility.yul\":25400:25403   */\n      dup3\n        /* \"#utility.yul\":25311:25404   */\n      tag_315\n      jump\t// in\n    tag_568:\n        /* \"#utility.yul\":25429:25431   */\n      0x20\n        /* \"#utility.yul\":25424:25427   */\n      dup3\n        /* \"#utility.yul\":25420:25432   */\n      add\n        /* \"#utility.yul\":25413:25432   */\n      swap1\n      pop\n        /* \"#utility.yul\":25072:25438   */\n      swap2\n      swap1\n      pop\n      jump\t// out\n        /* \"#utility.yul\":25444:25863   */\n    tag_123:\n        /* \"#utility.yul\":25610:25614   */\n      0x00\n        /* \"#utility.yul\":25648:25650   */\n      0x20\n        /* \"#utility.yul\":25637:25646   */\n      dup3\n        /* \"#utility.yul\":25633:25651   */\n      add\n        /* \"#utility.yul\":25625:25651   */\n      swap1\n      pop\n        /* \"#utility.yul\":25697:25706   */\n      dup2\n        /* \"#utility.yul\":25691:25695   */\n      dup2\n        /* \"#utility.yul\":25687:25707   */\n      sub\n        /* \"#utility.yul\":25683:25684   */\n      0x00\n        /* \"#utility.yul\":25672:25681   */\n      dup4\n        /* \"#utility.yul\":25668:25685   */\n      add\n        /* \"#utility.yul\":25661:25708   */\n      mstore\n        /* \"#utility.yul\":25725:25856   */\n      tag_570\n        /* \"#utility.yul\":25851:25855   */\n      dup2\n        /* \"#utility.yul\":25725:25856   */\n      tag_316\n      jump\t// in\n    tag_570:\n        /* \"#utility.yul\":25717:25856   */\n      swap1\n      pop\n        /* \"#utility.yul\":25444:25863   */\n      swap2\n      swap1\n      pop\n      jump\t// out\n        /* \"#utility.yul\":25869:26039   */\n    tag_317:\n        /* \"#utility.yul\":26009:26031   */\n      0x416c6c20636f70696573206172652074616b656e000000000000000000000000\n        /* \"#utility.yul\":26005:26006   */\n      0x00\n        /* \"#utility.yul\":25997:26003   */\n      dup3\n        /* \"#utility.yul\":25993:26007   */\n      add\n        /* \"#utility.yul\":25986:26032   */\n      mstore\n        /* \"#utility.yul\":25869:26039   */\n      pop\n      jump\t// out\n        /* \"#utility.yul\":26045:26411   */\n    tag_318:\n        /* \"#utility.yul\":26187:26190   */\n      0x00\n        /* \"#utility.yul\":26208:26275   */\n      tag_573\n        /* \"#utility.yul\":26272:26274   */\n      0x14\n        /* \"#utility.yul\":26267:26270   */\n      dup4\n        /* \"#utility.yul\":26208:26275   */\n      tag_291\n      jump\t// in\n    tag_573:\n        /* \"#utility.yul\":26201:26275   */\n      swap2\n      pop\n        /* \"#utility.yul\":26284:26377   */\n      tag_574\n        /* \"#utility.yul\":26373:26376   */\n      dup3\n        /* \"#utility.yul\":26284:26377   */\n      tag_317\n      jump\t// in\n    tag_574:\n        /* \"#utility.yul\":26402:26404   */\n      0x20\n        /* \"#utility.yul\":26397:26400   */\n      dup3\n        /* \"#utility.yul\":26393:26405   */\n      add\n        /* \"#utility.yul\":26386:26405   */\n      swap1\n      pop\n        /* \"#utility.yul\":26045:26411   */\n      swap2\n      swap1\n      pop\n      jump\t// out\n        /* \"#utility.yul\":26417:26836   */\n    tag_162:\n        /* \"#utility.yul\":26583:26587   */\n      0x00\n        /* \"#utility.yul\":26621:26623   */\n      0x20\n        /* \"#utility.yul\":26610:26619   */\n      dup3\n        /* \"#utility.yul\":26606:26624   */\n      add\n        /* \"#utility.yul\":26598:26624   */\n      swap1\n      pop\n        /* \"#utility.yul\":26670:26679   */\n      dup2\n        /* \"#utility.yul\":26664:26668   */\n      dup2\n        /* \"#utility.yul\":26660:26680   */\n      sub\n        /* \"#utility.yul\":26656:26657   */\n      0x00\n        /* \"#utility.yul\":26645:26654   */\n      dup4\n        /* \"#utility.yul\":26641:26658   */\n      add\n        /* \"#utility.yul\":26634:26681   */\n      mstore\n        /* \"#utility.yul\":26698:26829   */\n      tag_576\n        /* \"#utility.yul\":26824:26828   */\n      dup2\n        /* \"#utility.yul\":26698:26829   */\n      tag_318\n      jump\t// in\n    tag_576:\n        /* \"#utility.yul\":26690:26829   */\n      swap1\n      pop\n        /* \"#utility.yul\":26417:26836   */\n      swap2\n      swap1\n      pop\n      jump\t// out\n        /* \"#utility.yul\":26842:27068   */\n    tag_319:\n        /* \"#utility.yul\":26982:27016   */\n      0x546865207573657220616c726561647920686173206120636f7079206f662074\n        /* \"#utility.yul\":26978:26979   */\n      0x00\n        /* \"#utility.yul\":26970:26976   */\n      dup3\n        /* \"#utility.yul\":26966:26980   */\n      add\n        /* \"#utility.yul\":26959:27017   */\n      mstore\n        /* \"#utility.yul\":27051:27060   */\n      0x686520626f6f6b00000000000000000000000000000000000000000000000000\n        /* \"#utility.yul\":27046:27048   */\n      0x20\n        /* \"#utility.yul\":27038:27044   */\n      dup3\n        /* \"#utility.yul\":27034:27049   */\n      add\n        /* \"#utility.yul\":27027:27061   */\n      mstore\n        /* \"#utility.yul\":26842:27068   */\n      pop\n      jump\t// out\n        /* \"#utility.yul\":27074:27440   */\n    tag_320:\n        /* \"#utility.yul\":27216:27219   */\n      0x00\n        /* \"#utility.yul\":27237:27304   */\n      tag_579\n        /* \"#utility.yul\":27301:27303   */\n      0x27\n        /* \"#utility.yul\":27296:27299   */\n      dup4\n        /* \"#utility.yul\":27237:27304   */\n      tag_291\n      jump\t// in\n    tag_579:\n        /* \"#utility.yul\":27230:27304   */\n      swap2\n      pop\n        /* \"#utility.yul\":27313:27406   */\n      tag_580\n        /* \"#utility.yul\":27402:27405   */\n      dup3\n        /* \"#utility.yul\":27313:27406   */\n      tag_319\n      jump\t// in\n    tag_580:\n        /* \"#utility.yul\":27431:27433   */\n      0x40\n        /* \"#utility.yul\":27426:27429   */\n      dup3\n        /* \"#utility.yul\":27422:27434   */\n      add\n        /* \"#utility.yul\":27415:27434   */\n      swap1\n      pop\n        /* \"#utility.yul\":27074:27440   */\n      swap2\n      swap1\n      pop\n      jump\t// out\n        /* \"#utility.yul\":27446:27865   */\n    tag_171:\n        /* \"#utility.yul\":27612:27616   */\n      0x00\n        /* \"#utility.yul\":27650:27652   */\n      0x20\n        /* \"#utility.yul\":27639:27648   */\n      dup3\n        /* \"#utility.yul\":27635:27653   */\n      add\n        /* \"#utility.yul\":27627:27653   */\n      swap1\n      pop\n        /* \"#utility.yul\":27699:27708   */\n      dup2\n        /* \"#utility.yul\":27693:27697   */\n      dup2\n        /* \"#utility.yul\":27689:27709   */\n      sub\n        /* \"#utility.yul\":27685:27686   */\n      0x00\n        /* \"#utility.yul\":27674:27683   */\n      dup4\n        /* \"#utility.yul\":27670:27687   */\n      add\n        /* \"#utility.yul\":27663:27710   */\n      mstore\n        /* \"#utility.yul\":27727:27858   */\n      tag_582\n        /* \"#utility.yul\":27853:27857   */\n      dup2\n        /* \"#utility.yul\":27727:27858   */\n      tag_320\n      jump\t// in\n    tag_582:\n        /* \"#utility.yul\":27719:27858   */\n      swap1\n      pop\n        /* \"#utility.yul\":27446:27865   */\n      swap2\n      swap1\n      pop\n      jump\t// out\n        /* \"#utility.yul\":27871:28096   */\n    tag_321:\n        /* \"#utility.yul\":28011:28045   */\n      0x4f776e61626c653a206e6577206f776e657220697320746865207a65726f2061\n        /* \"#utility.yul\":28007:28008   */\n      0x00\n        /* \"#utility.yul\":27999:28005   */\n      dup3\n        /* \"#utility.yul\":27995:28009   */\n      add\n        /* \"#utility.yul\":27988:28046   */\n      mstore\n        /* \"#utility.yul\":28080:28088   */\n      0x6464726573730000000000000000000000000000000000000000000000000000\n        /* \"#utility.yul\":28075:28077   */\n      0x20\n        /* \"#utility.yul\":28067:28073   */\n      dup3\n        /* \"#utility.yul\":28063:28078   */\n      add\n        /* \"#utility.yul\":28056:28089   */\n      mstore\n        /* \"#utility.yul\":27871:28096   */\n      pop\n      jump\t// out\n        /* \"#utility.yul\":28102:28468   */\n    tag_322:\n        /* \"#utility.yul\":28244:28247   */\n      0x00\n        /* \"#utility.yul\":28265:28332   */\n      tag_585\n        /* \"#utility.yul\":28329:28331   */\n      0x26\n        /* \"#utility.yul\":28324:28327   */\n      dup4\n        /* \"#utility.yul\":28265:28332   */\n      tag_291\n      jump\t// in\n    tag_585:\n        /* \"#utility.yul\":28258:28332   */\n      swap2\n      pop\n        /* \"#utility.yul\":28341:28434   */\n      tag_586\n        /* \"#utility.yul\":28430:28433   */\n      dup3\n        /* \"#utility.yul\":28341:28434   */\n      tag_321\n      jump\t// in\n    tag_586:\n        /* \"#utility.yul\":28459:28461   */\n      0x40\n        /* \"#utility.yul\":28454:28457   */\n      dup3\n        /* \"#utility.yul\":28450:28462   */\n      add\n        /* \"#utility.yul\":28443:28462   */\n      swap1\n      pop\n        /* \"#utility.yul\":28102:28468   */\n      swap2\n      swap1\n      pop\n      jump\t// out\n        /* \"#utility.yul\":28474:28893   */\n    tag_221:\n        /* \"#utility.yul\":28640:28644   */\n      0x00\n        /* \"#utility.yul\":28678:28680   */\n      0x20\n        /* \"#utility.yul\":28667:28676   */\n      dup3\n        /* \"#utility.yul\":28663:28681   */\n      add\n        /* \"#utility.yul\":28655:28681   */\n      swap1\n      pop\n        /* \"#utility.yul\":28727:28736   */\n      dup2\n        /* \"#utility.yul\":28721:28725   */\n      dup2\n        /* \"#utility.yul\":28717:28737   */\n      sub\n        /* \"#utility.yul\":28713:28714   */\n      0x00\n        /* \"#utility.yul\":28702:28711   */\n      dup4\n        /* \"#utility.yul\":28698:28715   */\n      add\n        /* \"#utility.yul\":28691:28738   */\n      mstore\n        /* \"#utility.yul\":28755:28886   */\n      tag_588\n        /* \"#utility.yul\":28881:28885   */\n      dup2\n        /* \"#utility.yul\":28755:28886   */\n      tag_322\n      jump\t// in\n    tag_588:\n        /* \"#utility.yul\":28747:28886   */\n      swap1\n      pop\n        /* \"#utility.yul\":28474:28893   */\n      swap2\n      swap1\n      pop\n      jump\t// out\n        /* \"#utility.yul\":28899:29081   */\n    tag_323:\n        /* \"#utility.yul\":29039:29073   */\n      0x4f776e61626c653a2063616c6c6572206973206e6f7420746865206f776e6572\n        /* \"#utility.yul\":29035:29036   */\n      0x00\n        /* \"#utility.yul\":29027:29033   */\n      dup3\n        /* \"#utility.yul\":29023:29037   */\n      add\n        /* \"#utility.yul\":29016:29074   */\n      mstore\n        /* \"#utility.yul\":28899:29081   */\n      pop\n      jump\t// out\n        /* \"#utility.yul\":29087:29453   */\n    tag_324:\n        /* \"#utility.yul\":29229:29232   */\n      0x00\n        /* \"#utility.yul\":29250:29317   */\n      tag_591\n        /* \"#utility.yul\":29314:29316   */\n      0x20\n        /* \"#utility.yul\":29309:29312   */\n      dup4\n        /* \"#utility.yul\":29250:29317   */\n      tag_291\n      jump\t// in\n    tag_591:\n        /* \"#utility.yul\":29243:29317   */\n      swap2\n      pop\n        /* \"#utility.yul\":29326:29419   */\n      tag_592\n        /* \"#utility.yul\":29415:29418   */\n      dup3\n        /* \"#utility.yul\":29326:29419   */\n      tag_323\n      jump\t// in\n    tag_592:\n        /* \"#utility.yul\":29444:29446   */\n      0x20\n        /* \"#utility.yul\":29439:29442   */\n      dup3\n        /* \"#utility.yul\":29435:29447   */\n      add\n        /* \"#utility.yul\":29428:29447   */\n      swap1\n      pop\n        /* \"#utility.yul\":29087:29453   */\n      swap2\n      swap1\n      pop\n      jump\t// out\n        /* \"#utility.yul\":29459:29878   */\n    tag_229:\n        /* \"#utility.yul\":29625:29629   */\n      0x00\n        /* \"#utility.yul\":29663:29665   */\n      0x20\n        /* \"#utility.yul\":29652:29661   */\n      dup3\n        /* \"#utility.yul\":29648:29666   */\n      add\n        /* \"#utility.yul\":29640:29666   */\n      swap1\n      pop\n        /* \"#utility.yul\":29712:29721   */\n      dup2\n        /* \"#utility.yul\":29706:29710   */\n      dup2\n        /* \"#utility.yul\":29702:29722   */\n      sub\n        /* \"#utility.yul\":29698:29699   */\n      0x00\n        /* \"#utility.yul\":29687:29696   */\n      dup4\n        /* \"#utility.yul\":29683:29700   */\n      add\n        /* \"#utility.yul\":29676:29723   */\n      mstore\n        /* \"#utility.yul\":29740:29871   */\n      tag_594\n        /* \"#utility.yul\":29866:29870   */\n      dup2\n        /* \"#utility.yul\":29740:29871   */\n      tag_324\n      jump\t// in\n    tag_594:\n        /* \"#utility.yul\":29732:29871   */\n      swap1\n      pop\n        /* \"#utility.yul\":29459:29878   */\n      swap2\n      swap1\n      pop\n      jump\t// out\n\n    auxdata: 0xa26469706673582212202e5089dea47dcbdd4bdaffce4cf705df58580dc7717cf6e669bdf3ab8a6cc12064736f6c63430008130033\n}\n",
				"bytecode": {
					"linkReferences": {},
					"object": "608060405234801561001057600080fd5b5061002d61002261003a60201b60201c565b61004260201b60201c565b6000600181905550610106565b600033905090565b60008060009054906101000a900473ffffffffffffffffffffffffffffffffffffffff169050816000806101000a81548173ffffffffffffffffffffffffffffffffffffffff021916908373ffffffffffffffffffffffffffffffffffffffff1602179055508173ffffffffffffffffffffffffffffffffffffffff168173ffffffffffffffffffffffffffffffffffffffff167f8be0079c531659141344cd1fd0a4f28419497f9722a3daafe3b4186f6b6457e060405160405180910390a35050565b61210280620001166000396000f3fe608060405234801561001057600080fd5b50600436106100935760003560e01c80638da5cb5b116100665780638da5cb5b146100fa578063ca5140c914610118578063ce966b2b14610134578063d6c084d914610150578063f2fde38b1461016e57610093565b8063264f2ecf1461009857806351fede2b146100b45780636265f92f146100d2578063715018a6146100f0575b600080fd5b6100b260048036038101906100ad919061134d565b61018a565b005b6100bc61028c565b6040516100c99190611653565b60405180910390f35b6100da61041f565b6040516100e791906116e4565b60405180910390f35b6100f86104ad565b005b6101026104c1565b60405161010f9190611715565b60405180910390f35b610132600480360381019061012d9190611730565b6104ea565b005b61014e60048036038101906101499190611730565b610988565b005b610158610cfd565b604051610165919061185c565b60405180910390f35b610188600480360381019061018391906118aa565b610ee2565b005b610192610f65565b600081116101d5576040517f08c379a00000000000000000000000000000000000000000000000000000000081526004016101cc9061195a565b60405180910390fd5b6060600460405180608001604052806001548152602001848152602001838152602001858152509080600181540180825580915050600190039060005260206000209060040201600090919091909150600082015181600001556020820151816001015560408201518160020190805190602001906102559291906110af565b50606082015181600301908161026b9190611b86565b50505060018060008282546102809190611c87565b92505081905550505050565b60606004805480602002602001604051908101604052809291908181526020016000905b82821015610416578382906000526020600020906004020160405180608001604052908160008201548152602001600182015481526020016002820180548060200260200160405190810160405280929190818152602001828054801561036c57602002820191906000526020600020905b8160009054906101000a900473ffffffffffffffffffffffffffffffffffffffff1673ffffffffffffffffffffffffffffffffffffffff1681526020019060010190808311610322575b50505050508152602001600382018054610385906119a9565b80601f01602080910402602001604051908101604052809291908181526020018280546103b1906119a9565b80156103fe5780601f106103d3576101008083540402835291602001916103fe565b820191906000526020600020905b8154815290600101906020018083116103e157829003601f168201915b505050505081525050815260200190600101906102b0565b50505050905090565b606060028054806020026020016040519081016040528092919081815260200182805480156104a357602002820191906000526020600020905b8160009054906101000a900473ffffffffffffffffffffffffffffffffffffffff1673ffffffffffffffffffffffffffffffffffffffff1681526020019060010190808311610459575b5050505050905090565b6104b5610f65565b6104bf6000610fe3565b565b60008060009054906101000a900473ffffffffffffffffffffffffffffffffffffffff16905090565b6000600360003373ffffffffffffffffffffffffffffffffffffffff1673ffffffffffffffffffffffffffffffffffffffff16815260200190815260200160002090506000818054905011610574576040517f08c379a000000000000000000000000000000000000000000000000000000000815260040161056b90611d07565b60405180910390fd5b600080600183805490506105889190611d27565b67ffffffffffffffff8111156105a1576105a06111ec565b5b6040519080825280602002602001820160405280156105cf5781602001602082028036833780820191505090505b5090506000805b848054905081101561066f57858582815481106105f6576105f5611d5b565b5b90600052602060002001540361060f576001935061065c565b84818154811061062257610621611d5b565b5b90600052602060002001548383815181106106405761063f611d5b565b5b6020026020010181815250506001826106599190611c87565b91505b808061066790611d8a565b9150506105d6565b5060011515831515146106b7576040517f08c379a00000000000000000000000000000000000000000000000000000000081526004016106ae90611e44565b60405180910390fd5b81600360003373ffffffffffffffffffffffffffffffffffffffff1673ffffffffffffffffffffffffffffffffffffffff168152602001908152602001600020908051906020019061070a929190611139565b506000805b60048054905081101561076457866004828154811061073157610730611d5b565b5b906000526020600020906004020160000154036107515760019150610764565b808061075c90611d8a565b91505061070f565b50806107a5576040517f08c379a000000000000000000000000000000000000000000000000000000000815260040161079c90611eb0565b60405180910390fd5b6000600487815481106107bb576107ba611d5b565b5b906000526020600020906004020190506000600182600201805490506107e19190611d27565b67ffffffffffffffff8111156107fa576107f96111ec565b5b6040519080825280602002602001820160405280156108285781602001602082028036833780820191505090505b5090506000935060005b8260020180549050811015610964573373ffffffffffffffffffffffffffffffffffffffff1683600201828154811061086e5761086d611d5b565b5b9060005260206000200160009054906101000a900473ffffffffffffffffffffffffffffffffffffffff1673ffffffffffffffffffffffffffffffffffffffff1614610951578260020181815481106108ca576108c9611d5b565b5b9060005260206000200160009054906101000a900473ffffffffffffffffffffffffffffffffffffffff1682868151811061090857610907611d5b565b5b602002602001019073ffffffffffffffffffffffffffffffffffffffff16908173ffffffffffffffffffffffffffffffffffffffff1681525050848061094d90611d8a565b9550505b808061095c90611d8a565b915050610832565b508082600201908051906020019061097d9291906110af565b505050505050505050565b6000805b6004805490508110156109e15782600482815481106109ae576109ad611d5b565b5b906000526020600020906004020160000154036109ce57600191506109e1565b80806109d990611d8a565b91505061098c565b5080610a22576040517f08c379a0000000000000000000000000000000000000000000000000000000008152600401610a1990611eb0565b60405180910390fd5b600060048381548110610a3857610a37611d5b565b5b906000526020600020906004020190508060020180549050816001015411610a95576040517f08c379a0000000000000000000000000000000000000000000000000000000008152600401610a8c90611f1c565b60405180910390fd5b6000600360003373ffffffffffffffffffffffffffffffffffffffff1673ffffffffffffffffffffffffffffffffffffffff168152602001908152602001600020905060005b8180549050811015610b595784828281548110610afb57610afa611d5b565b5b906000526020600020015403610b46576040517f08c379a0000000000000000000000000000000000000000000000000000000008152600401610b3d90611fae565b60405180910390fd5b8080610b5190611d8a565b915050610adb565b5081600201339080600181540180825580915050600190039060005260206000200160009091909190916101000a81548173ffffffffffffffffffffffffffffffffffffffff021916908373ffffffffffffffffffffffffffffffffffffffff160217905550808490806001815401808255809150506001900390600052602060002001600090919091909150556000805b600280549050811015610c85573373ffffffffffffffffffffffffffffffffffffffff1660028281548110610c2357610c22611d5b565b5b9060005260206000200160009054906101000a900473ffffffffffffffffffffffffffffffffffffffff1673ffffffffffffffffffffffffffffffffffffffff1603610c725760019150610c85565b8080610c7d90611d8a565b915050610beb565b506000151581151503610cf6576002339080600181540180825580915050600190039060005260206000200160009091909190916101000a81548173ffffffffffffffffffffffffffffffffffffffff021916908373ffffffffffffffffffffffffffffffffffffffff1602179055505b5050505050565b6060600060048054905067ffffffffffffffff811115610d2057610d1f6111ec565b5b604051908082528060200260200182016040528015610d5957816020015b610d46611186565b815260200190600190039081610d3e5790505b50905060005b600480549050811015610eda5760048181548110610d8057610d7f611d5b565b5b90600052602060002090600402016002018054905060048281548110610da957610da8611d5b565b5b9060005260206000209060040201600101541115610ec757604051806040016040528060048381548110610de057610ddf611d5b565b5b906000526020600020906004020160000154815260200160048381548110610e0b57610e0a611d5b565b5b90600052602060002090600402016003018054610e27906119a9565b80601f0160208091040260200160405190810160405280929190818152602001828054610e53906119a9565b8015610ea05780601f10610e7557610100808354040283529160200191610ea0565b820191906000526020600020905b815481529060010190602001808311610e8357829003601f168201915b5050505050815250828281518110610ebb57610eba611d5b565b5b60200260200101819052505b8080610ed290611d8a565b915050610d5f565b508091505090565b610eea610f65565b600073ffffffffffffffffffffffffffffffffffffffff168173ffffffffffffffffffffffffffffffffffffffff1603610f59576040517f08c379a0000000000000000000000000000000000000000000000000000000008152600401610f5090612040565b60405180910390fd5b610f6281610fe3565b50565b610f6d6110a7565b73ffffffffffffffffffffffffffffffffffffffff16610f8b6104c1565b73ffffffffffffffffffffffffffffffffffffffff1614610fe1576040517f08c379a0000000000000000000000000000000000000000000000000000000008152600401610fd8906120ac565b60405180910390fd5b565b60008060009054906101000a900473ffffffffffffffffffffffffffffffffffffffff169050816000806101000a81548173ffffffffffffffffffffffffffffffffffffffff021916908373ffffffffffffffffffffffffffffffffffffffff1602179055508173ffffffffffffffffffffffffffffffffffffffff168173ffffffffffffffffffffffffffffffffffffffff167f8be0079c531659141344cd1fd0a4f28419497f9722a3daafe3b4186f6b6457e060405160405180910390a35050565b600033905090565b828054828255906000526020600020908101928215611128579160200282015b828111156111275782518260006101000a81548173ffffffffffffffffffffffffffffffffffffffff021916908373ffffffffffffffffffffffffffffffffffffffff160217905550916020019190600101906110cf565b5b50905061113591906111a0565b5090565b828054828255906000526020600020908101928215611175579160200282015b82811115611174578251825591602001919060010190611159565b5b50905061118291906111a0565b5090565b604051806040016040528060008152602001606081525090565b5b808211156111b95760008160009055506001016111a1565b5090565b6000604051905090565b600080fd5b600080fd5b600080fd5b600080fd5b6000601f19601f8301169050919050565b7f4e487b7100000000000000000000000000000000000000000000000000000000600052604160045260246000fd5b611224826111db565b810181811067ffffffffffffffff82111715611243576112426111ec565b5b80604052505050565b60006112566111bd565b9050611262828261121b565b919050565b600067ffffffffffffffff821115611282576112816111ec565b5b61128b826111db565b9050602081019050919050565b82818337600083830152505050565b60006112ba6112b584611267565b61124c565b9050828152602081018484840111156112d6576112d56111d6565b5b6112e1848285611298565b509392505050565b600082601f8301126112fe576112fd6111d1565b5b813561130e8482602086016112a7565b91505092915050565b6000819050919050565b61132a81611317565b811461133557600080fd5b50565b60008135905061134781611321565b92915050565b60008060408385031215611364576113636111c7565b5b600083013567ffffffffffffffff811115611382576113816111cc565b5b61138e858286016112e9565b925050602061139f85828601611338565b9150509250929050565b600081519050919050565b600082825260208201905092915050565b6000819050602082019050919050565b6113de81611317565b82525050565b600081519050919050565b600082825260208201905092915050565b6000819050602082019050919050565b600073ffffffffffffffffffffffffffffffffffffffff82169050919050565b600061143b82611410565b9050919050565b61144b81611430565b82525050565b600061145d8383611442565b60208301905092915050565b6000602082019050919050565b6000611481826113e4565b61148b81856113ef565b935061149683611400565b8060005b838110156114c75781516114ae8882611451565b97506114b983611469565b92505060018101905061149a565b5085935050505092915050565b600081519050919050565b600082825260208201905092915050565b60005b8381101561150e5780820151818401526020810190506114f3565b60008484015250505050565b6000611525826114d4565b61152f81856114df565b935061153f8185602086016114f0565b611548816111db565b840191505092915050565b600060808301600083015161156b60008601826113d5565b50602083015161157e60208601826113d5565b50604083015184820360408601526115968282611476565b915050606083015184820360608601526115b0828261151a565b9150508091505092915050565b60006115c98383611553565b905092915050565b6000602082019050919050565b60006115e9826113a9565b6115f381856113b4565b935083602082028501611605856113c5565b8060005b85811015611641578484038952815161162285826115bd565b945061162d836115d1565b925060208a01995050600181019050611609565b50829750879550505050505092915050565b6000602082019050818103600083015261166d81846115de565b905092915050565b600082825260208201905092915050565b6000611691826113e4565b61169b8185611675565b93506116a683611400565b8060005b838110156116d75781516116be8882611451565b97506116c983611469565b9250506001810190506116aa565b5085935050505092915050565b600060208201905081810360008301526116fe8184611686565b905092915050565b61170f81611430565b82525050565b600060208201905061172a6000830184611706565b92915050565b600060208284031215611746576117456111c7565b5b600061175484828501611338565b91505092915050565b600081519050919050565b600082825260208201905092915050565b6000819050602082019050919050565b60006040830160008301516117a160008601826113d5565b50602083015184820360208601526117b9828261151a565b9150508091505092915050565b60006117d28383611789565b905092915050565b6000602082019050919050565b60006117f28261175d565b6117fc8185611768565b93508360208202850161180e85611779565b8060005b8581101561184a578484038952815161182b85826117c6565b9450611836836117da565b925060208a01995050600181019050611812565b50829750879550505050505092915050565b6000602082019050818103600083015261187681846117e7565b905092915050565b61188781611430565b811461189257600080fd5b50565b6000813590506118a48161187e565b92915050565b6000602082840312156118c0576118bf6111c7565b5b60006118ce84828501611895565b91505092915050565b600082825260208201905092915050565b7f54686520616d6f756e74206f6620626f6f6b7320746f2062652061646465642060008201527f73686f756c6420626520706f7369746976650000000000000000000000000000602082015250565b60006119446032836118d7565b915061194f826118e8565b604082019050919050565b6000602082019050818103600083015261197381611937565b9050919050565b7f4e487b7100000000000000000000000000000000000000000000000000000000600052602260045260246000fd5b600060028204905060018216806119c157607f821691505b6020821081036119d4576119d361197a565b5b50919050565b60008190508160005260206000209050919050565b60006020601f8301049050919050565b600082821b905092915050565b600060088302611a3c7fffffffffffffffffffffffffffffffffffffffffffffffffffffffffffffffff826119ff565b611a4686836119ff565b95508019841693508086168417925050509392505050565b6000819050919050565b6000611a83611a7e611a7984611317565b611a5e565b611317565b9050919050565b6000819050919050565b611a9d83611a68565b611ab1611aa982611a8a565b848454611a0c565b825550505050565b600090565b611ac6611ab9565b611ad1818484611a94565b505050565b5b81811015611af557611aea600082611abe565b600181019050611ad7565b5050565b601f821115611b3a57611b0b816119da565b611b14846119ef565b81016020851015611b23578190505b611b37611b2f856119ef565b830182611ad6565b50505b505050565b600082821c905092915050565b6000611b5d60001984600802611b3f565b1980831691505092915050565b6000611b768383611b4c565b9150826002028217905092915050565b611b8f826114d4565b67ffffffffffffffff811115611ba857611ba76111ec565b5b611bb282546119a9565b611bbd828285611af9565b600060209050601f831160018114611bf05760008415611bde578287015190505b611be88582611b6a565b865550611c50565b601f198416611bfe866119da565b60005b82811015611c2657848901518255600182019150602085019450602081019050611c01565b86831015611c435784890151611c3f601f891682611b4c565b8355505b6001600288020188555050505b505050505050565b7f4e487b7100000000000000000000000000000000000000000000000000000000600052601160045260246000fd5b6000611c9282611317565b9150611c9d83611317565b9250828201905080821115611cb557611cb4611c58565b5b92915050565b7f5573657220686173206e6f20626f6f6b7320746f2072657475726e0000000000600082015250565b6000611cf1601b836118d7565b9150611cfc82611cbb565b602082019050919050565b60006020820190508181036000830152611d2081611ce4565b9050919050565b6000611d3282611317565b9150611d3d83611317565b9250828203905081811115611d5557611d54611c58565b5b92915050565b7f4e487b7100000000000000000000000000000000000000000000000000000000600052603260045260246000fd5b6000611d9582611317565b91507fffffffffffffffffffffffffffffffffffffffffffffffffffffffffffffffff8203611dc757611dc6611c58565b5b600182019050919050565b7f5573657220686173206e6f7420726573657276656420626f6f6b20776974682060008201527f7375636820696400000000000000000000000000000000000000000000000000602082015250565b6000611e2e6027836118d7565b9150611e3982611dd2565b604082019050919050565b60006020820190508181036000830152611e5d81611e21565b9050919050565b7f5468657265206973206e6f207375636820626f6f6b0000000000000000000000600082015250565b6000611e9a6015836118d7565b9150611ea582611e64565b602082019050919050565b60006020820190508181036000830152611ec981611e8d565b9050919050565b7f416c6c20636f70696573206172652074616b656e000000000000000000000000600082015250565b6000611f066014836118d7565b9150611f1182611ed0565b602082019050919050565b60006020820190508181036000830152611f3581611ef9565b9050919050565b7f546865207573657220616c726561647920686173206120636f7079206f66207460008201527f686520626f6f6b00000000000000000000000000000000000000000000000000602082015250565b6000611f986027836118d7565b9150611fa382611f3c565b604082019050919050565b60006020820190508181036000830152611fc781611f8b565b9050919050565b7f4f776e61626c653a206e6577206f776e657220697320746865207a65726f206160008201527f6464726573730000000000000000000000000000000000000000000000000000602082015250565b600061202a6026836118d7565b915061203582611fce565b604082019050919050565b600060208201905081810360008301526120598161201d565b9050919050565b7f4f776e61626c653a2063616c6c6572206973206e6f7420746865206f776e6572600082015250565b60006120966020836118d7565b91506120a182612060565b602082019050919050565b600060208201905081810360008301526120c581612089565b905091905056fea26469706673582212202e5089dea47dcbdd4bdaffce4cf705df58580dc7717cf6e669bdf3ab8a6cc12064736f6c63430008130033",
					"opcodes": "PUSH1 0x80 PUSH1 0x40 MSTORE CALLVALUE DUP1 ISZERO PUSH2 0x10 JUMPI PUSH1 0x0 DUP1 REVERT JUMPDEST POP PUSH2 0x2D PUSH2 0x22 PUSH2 0x3A PUSH1 0x20 SHL PUSH1 0x20 SHR JUMP JUMPDEST PUSH2 0x42 PUSH1 0x20 SHL PUSH1 0x20 SHR JUMP JUMPDEST PUSH1 0x0 PUSH1 0x1 DUP2 SWAP1 SSTORE POP PUSH2 0x106 JUMP JUMPDEST PUSH1 0x0 CALLER SWAP1 POP SWAP1 JUMP JUMPDEST PUSH1 0x0 DUP1 PUSH1 0x0 SWAP1 SLOAD SWAP1 PUSH2 0x100 EXP SWAP1 DIV PUSH20 0xFFFFFFFFFFFFFFFFFFFFFFFFFFFFFFFFFFFFFFFF AND SWAP1 POP DUP2 PUSH1 0x0 DUP1 PUSH2 0x100 EXP DUP2 SLOAD DUP2 PUSH20 0xFFFFFFFFFFFFFFFFFFFFFFFFFFFFFFFFFFFFFFFF MUL NOT AND SWAP1 DUP4 PUSH20 0xFFFFFFFFFFFFFFFFFFFFFFFFFFFFFFFFFFFFFFFF AND MUL OR SWAP1 SSTORE POP DUP2 PUSH20 0xFFFFFFFFFFFFFFFFFFFFFFFFFFFFFFFFFFFFFFFF AND DUP2 PUSH20 0xFFFFFFFFFFFFFFFFFFFFFFFFFFFFFFFFFFFFFFFF AND PUSH32 0x8BE0079C531659141344CD1FD0A4F28419497F9722A3DAAFE3B4186F6B6457E0 PUSH1 0x40 MLOAD PUSH1 0x40 MLOAD DUP1 SWAP2 SUB SWAP1 LOG3 POP POP JUMP JUMPDEST PUSH2 0x2102 DUP1 PUSH3 0x116 PUSH1 0x0 CODECOPY PUSH1 0x0 RETURN INVALID PUSH1 0x80 PUSH1 0x40 MSTORE CALLVALUE DUP1 ISZERO PUSH2 0x10 JUMPI PUSH1 0x0 DUP1 REVERT JUMPDEST POP PUSH1 0x4 CALLDATASIZE LT PUSH2 0x93 JUMPI PUSH1 0x0 CALLDATALOAD PUSH1 0xE0 SHR DUP1 PUSH4 0x8DA5CB5B GT PUSH2 0x66 JUMPI DUP1 PUSH4 0x8DA5CB5B EQ PUSH2 0xFA JUMPI DUP1 PUSH4 0xCA5140C9 EQ PUSH2 0x118 JUMPI DUP1 PUSH4 0xCE966B2B EQ PUSH2 0x134 JUMPI DUP1 PUSH4 0xD6C084D9 EQ PUSH2 0x150 JUMPI DUP1 PUSH4 0xF2FDE38B EQ PUSH2 0x16E JUMPI PUSH2 0x93 JUMP JUMPDEST DUP1 PUSH4 0x264F2ECF EQ PUSH2 0x98 JUMPI DUP1 PUSH4 0x51FEDE2B EQ PUSH2 0xB4 JUMPI DUP1 PUSH4 0x6265F92F EQ PUSH2 0xD2 JUMPI DUP1 PUSH4 0x715018A6 EQ PUSH2 0xF0 JUMPI JUMPDEST PUSH1 0x0 DUP1 REVERT JUMPDEST PUSH2 0xB2 PUSH1 0x4 DUP1 CALLDATASIZE SUB DUP2 ADD SWAP1 PUSH2 0xAD SWAP2 SWAP1 PUSH2 0x134D JUMP JUMPDEST PUSH2 0x18A JUMP JUMPDEST STOP JUMPDEST PUSH2 0xBC PUSH2 0x28C JUMP JUMPDEST PUSH1 0x40 MLOAD PUSH2 0xC9 SWAP2 SWAP1 PUSH2 0x1653 JUMP JUMPDEST PUSH1 0x40 MLOAD DUP1 SWAP2 SUB SWAP1 RETURN JUMPDEST PUSH2 0xDA PUSH2 0x41F JUMP JUMPDEST PUSH1 0x40 MLOAD PUSH2 0xE7 SWAP2 SWAP1 PUSH2 0x16E4 JUMP JUMPDEST PUSH1 0x40 MLOAD DUP1 SWAP2 SUB SWAP1 RETURN JUMPDEST PUSH2 0xF8 PUSH2 0x4AD JUMP JUMPDEST STOP JUMPDEST PUSH2 0x102 PUSH2 0x4C1 JUMP JUMPDEST PUSH1 0x40 MLOAD PUSH2 0x10F SWAP2 SWAP1 PUSH2 0x1715 JUMP JUMPDEST PUSH1 0x40 MLOAD DUP1 SWAP2 SUB SWAP1 RETURN JUMPDEST PUSH2 0x132 PUSH1 0x4 DUP1 CALLDATASIZE SUB DUP2 ADD SWAP1 PUSH2 0x12D SWAP2 SWAP1 PUSH2 0x1730 JUMP JUMPDEST PUSH2 0x4EA JUMP JUMPDEST STOP JUMPDEST PUSH2 0x14E PUSH1 0x4 DUP1 CALLDATASIZE SUB DUP2 ADD SWAP1 PUSH2 0x149 SWAP2 SWAP1 PUSH2 0x1730 JUMP JUMPDEST PUSH2 0x988 JUMP JUMPDEST STOP JUMPDEST PUSH2 0x158 PUSH2 0xCFD JUMP JUMPDEST PUSH1 0x40 MLOAD PUSH2 0x165 SWAP2 SWAP1 PUSH2 0x185C JUMP JUMPDEST PUSH1 0x40 MLOAD DUP1 SWAP2 SUB SWAP1 RETURN JUMPDEST PUSH2 0x188 PUSH1 0x4 DUP1 CALLDATASIZE SUB DUP2 ADD SWAP1 PUSH2 0x183 SWAP2 SWAP1 PUSH2 0x18AA JUMP JUMPDEST PUSH2 0xEE2 JUMP JUMPDEST STOP JUMPDEST PUSH2 0x192 PUSH2 0xF65 JUMP JUMPDEST PUSH1 0x0 DUP2 GT PUSH2 0x1D5 JUMPI PUSH1 0x40 MLOAD PUSH32 0x8C379A000000000000000000000000000000000000000000000000000000000 DUP2 MSTORE PUSH1 0x4 ADD PUSH2 0x1CC SWAP1 PUSH2 0x195A JUMP JUMPDEST PUSH1 0x40 MLOAD DUP1 SWAP2 SUB SWAP1 REVERT JUMPDEST PUSH1 0x60 PUSH1 0x4 PUSH1 0x40 MLOAD DUP1 PUSH1 0x80 ADD PUSH1 0x40 MSTORE DUP1 PUSH1 0x1 SLOAD DUP2 MSTORE PUSH1 0x20 ADD DUP5 DUP2 MSTORE PUSH1 0x20 ADD DUP4 DUP2 MSTORE PUSH1 0x20 ADD DUP6 DUP2 MSTORE POP SWAP1 DUP1 PUSH1 0x1 DUP2 SLOAD ADD DUP1 DUP3 SSTORE DUP1 SWAP2 POP POP PUSH1 0x1 SWAP1 SUB SWAP1 PUSH1 0x0 MSTORE PUSH1 0x20 PUSH1 0x0 KECCAK256 SWAP1 PUSH1 0x4 MUL ADD PUSH1 0x0 SWAP1 SWAP2 SWAP1 SWAP2 SWAP1 SWAP2 POP PUSH1 0x0 DUP3 ADD MLOAD DUP2 PUSH1 0x0 ADD SSTORE PUSH1 0x20 DUP3 ADD MLOAD DUP2 PUSH1 0x1 ADD SSTORE PUSH1 0x40 DUP3 ADD MLOAD DUP2 PUSH1 0x2 ADD SWAP1 DUP1 MLOAD SWAP1 PUSH1 0x20 ADD SWAP1 PUSH2 0x255 SWAP3 SWAP2 SWAP1 PUSH2 0x10AF JUMP JUMPDEST POP PUSH1 0x60 DUP3 ADD MLOAD DUP2 PUSH1 0x3 ADD SWAP1 DUP2 PUSH2 0x26B SWAP2 SWAP1 PUSH2 0x1B86 JUMP JUMPDEST POP POP POP PUSH1 0x1 DUP1 PUSH1 0x0 DUP3 DUP3 SLOAD PUSH2 0x280 SWAP2 SWAP1 PUSH2 0x1C87 JUMP JUMPDEST SWAP3 POP POP DUP2 SWAP1 SSTORE POP POP POP POP JUMP JUMPDEST PUSH1 0x60 PUSH1 0x4 DUP1 SLOAD DUP1 PUSH1 0x20 MUL PUSH1 0x20 ADD PUSH1 0x40 MLOAD SWAP1 DUP2 ADD PUSH1 0x40 MSTORE DUP1 SWAP3 SWAP2 SWAP1 DUP2 DUP2 MSTORE PUSH1 0x20 ADD PUSH1 0x0 SWAP1 JUMPDEST DUP3 DUP3 LT ISZERO PUSH2 0x416 JUMPI DUP4 DUP3 SWAP1 PUSH1 0x0 MSTORE PUSH1 0x20 PUSH1 0x0 KECCAK256 SWAP1 PUSH1 0x4 MUL ADD PUSH1 0x40 MLOAD DUP1 PUSH1 0x80 ADD PUSH1 0x40 MSTORE SWAP1 DUP2 PUSH1 0x0 DUP3 ADD SLOAD DUP2 MSTORE PUSH1 0x20 ADD PUSH1 0x1 DUP3 ADD SLOAD DUP2 MSTORE PUSH1 0x20 ADD PUSH1 0x2 DUP3 ADD DUP1 SLOAD DUP1 PUSH1 0x20 MUL PUSH1 0x20 ADD PUSH1 0x40 MLOAD SWAP1 DUP2 ADD PUSH1 0x40 MSTORE DUP1 SWAP3 SWAP2 SWAP1 DUP2 DUP2 MSTORE PUSH1 0x20 ADD DUP3 DUP1 SLOAD DUP1 ISZERO PUSH2 0x36C JUMPI PUSH1 0x20 MUL DUP3 ADD SWAP2 SWAP1 PUSH1 0x0 MSTORE PUSH1 0x20 PUSH1 0x0 KECCAK256 SWAP1 JUMPDEST DUP2 PUSH1 0x0 SWAP1 SLOAD SWAP1 PUSH2 0x100 EXP SWAP1 DIV PUSH20 0xFFFFFFFFFFFFFFFFFFFFFFFFFFFFFFFFFFFFFFFF AND PUSH20 0xFFFFFFFFFFFFFFFFFFFFFFFFFFFFFFFFFFFFFFFF AND DUP2 MSTORE PUSH1 0x20 ADD SWAP1 PUSH1 0x1 ADD SWAP1 DUP1 DUP4 GT PUSH2 0x322 JUMPI JUMPDEST POP POP POP POP POP DUP2 MSTORE PUSH1 0x20 ADD PUSH1 0x3 DUP3 ADD DUP1 SLOAD PUSH2 0x385 SWAP1 PUSH2 0x19A9 JUMP JUMPDEST DUP1 PUSH1 0x1F ADD PUSH1 0x20 DUP1 SWAP2 DIV MUL PUSH1 0x20 ADD PUSH1 0x40 MLOAD SWAP1 DUP2 ADD PUSH1 0x40 MSTORE DUP1 SWAP3 SWAP2 SWAP1 DUP2 DUP2 MSTORE PUSH1 0x20 ADD DUP3 DUP1 SLOAD PUSH2 0x3B1 SWAP1 PUSH2 0x19A9 JUMP JUMPDEST DUP1 ISZERO PUSH2 0x3FE JUMPI DUP1 PUSH1 0x1F LT PUSH2 0x3D3 JUMPI PUSH2 0x100 DUP1 DUP4 SLOAD DIV MUL DUP4 MSTORE SWAP2 PUSH1 0x20 ADD SWAP2 PUSH2 0x3FE JUMP JUMPDEST DUP3 ADD SWAP2 SWAP1 PUSH1 0x0 MSTORE PUSH1 0x20 PUSH1 0x0 KECCAK256 SWAP1 JUMPDEST DUP2 SLOAD DUP2 MSTORE SWAP1 PUSH1 0x1 ADD SWAP1 PUSH1 0x20 ADD DUP1 DUP4 GT PUSH2 0x3E1 JUMPI DUP3 SWAP1 SUB PUSH1 0x1F AND DUP3 ADD SWAP2 JUMPDEST POP POP POP POP POP DUP2 MSTORE POP POP DUP2 MSTORE PUSH1 0x20 ADD SWAP1 PUSH1 0x1 ADD SWAP1 PUSH2 0x2B0 JUMP JUMPDEST POP POP POP POP SWAP1 POP SWAP1 JUMP JUMPDEST PUSH1 0x60 PUSH1 0x2 DUP1 SLOAD DUP1 PUSH1 0x20 MUL PUSH1 0x20 ADD PUSH1 0x40 MLOAD SWAP1 DUP2 ADD PUSH1 0x40 MSTORE DUP1 SWAP3 SWAP2 SWAP1 DUP2 DUP2 MSTORE PUSH1 0x20 ADD DUP3 DUP1 SLOAD DUP1 ISZERO PUSH2 0x4A3 JUMPI PUSH1 0x20 MUL DUP3 ADD SWAP2 SWAP1 PUSH1 0x0 MSTORE PUSH1 0x20 PUSH1 0x0 KECCAK256 SWAP1 JUMPDEST DUP2 PUSH1 0x0 SWAP1 SLOAD SWAP1 PUSH2 0x100 EXP SWAP1 DIV PUSH20 0xFFFFFFFFFFFFFFFFFFFFFFFFFFFFFFFFFFFFFFFF AND PUSH20 0xFFFFFFFFFFFFFFFFFFFFFFFFFFFFFFFFFFFFFFFF AND DUP2 MSTORE PUSH1 0x20 ADD SWAP1 PUSH1 0x1 ADD SWAP1 DUP1 DUP4 GT PUSH2 0x459 JUMPI JUMPDEST POP POP POP POP POP SWAP1 POP SWAP1 JUMP JUMPDEST PUSH2 0x4B5 PUSH2 0xF65 JUMP JUMPDEST PUSH2 0x4BF PUSH1 0x0 PUSH2 0xFE3 JUMP JUMPDEST JUMP JUMPDEST PUSH1 0x0 DUP1 PUSH1 0x0 SWAP1 SLOAD SWAP1 PUSH2 0x100 EXP SWAP1 DIV PUSH20 0xFFFFFFFFFFFFFFFFFFFFFFFFFFFFFFFFFFFFFFFF AND SWAP1 POP SWAP1 JUMP JUMPDEST PUSH1 0x0 PUSH1 0x3 PUSH1 0x0 CALLER PUSH20 0xFFFFFFFFFFFFFFFFFFFFFFFFFFFFFFFFFFFFFFFF AND PUSH20 0xFFFFFFFFFFFFFFFFFFFFFFFFFFFFFFFFFFFFFFFF AND DUP2 MSTORE PUSH1 0x20 ADD SWAP1 DUP2 MSTORE PUSH1 0x20 ADD PUSH1 0x0 KECCAK256 SWAP1 POP PUSH1 0x0 DUP2 DUP1 SLOAD SWAP1 POP GT PUSH2 0x574 JUMPI PUSH1 0x40 MLOAD PUSH32 0x8C379A000000000000000000000000000000000000000000000000000000000 DUP2 MSTORE PUSH1 0x4 ADD PUSH2 0x56B SWAP1 PUSH2 0x1D07 JUMP JUMPDEST PUSH1 0x40 MLOAD DUP1 SWAP2 SUB SWAP1 REVERT JUMPDEST PUSH1 0x0 DUP1 PUSH1 0x1 DUP4 DUP1 SLOAD SWAP1 POP PUSH2 0x588 SWAP2 SWAP1 PUSH2 0x1D27 JUMP JUMPDEST PUSH8 0xFFFFFFFFFFFFFFFF DUP2 GT ISZERO PUSH2 0x5A1 JUMPI PUSH2 0x5A0 PUSH2 0x11EC JUMP JUMPDEST JUMPDEST PUSH1 0x40 MLOAD SWAP1 DUP1 DUP3 MSTORE DUP1 PUSH1 0x20 MUL PUSH1 0x20 ADD DUP3 ADD PUSH1 0x40 MSTORE DUP1 ISZERO PUSH2 0x5CF JUMPI DUP2 PUSH1 0x20 ADD PUSH1 0x20 DUP3 MUL DUP1 CALLDATASIZE DUP4 CALLDATACOPY DUP1 DUP3 ADD SWAP2 POP POP SWAP1 POP JUMPDEST POP SWAP1 POP PUSH1 0x0 DUP1 JUMPDEST DUP5 DUP1 SLOAD SWAP1 POP DUP2 LT ISZERO PUSH2 0x66F JUMPI DUP6 DUP6 DUP3 DUP2 SLOAD DUP2 LT PUSH2 0x5F6 JUMPI PUSH2 0x5F5 PUSH2 0x1D5B JUMP JUMPDEST JUMPDEST SWAP1 PUSH1 0x0 MSTORE PUSH1 0x20 PUSH1 0x0 KECCAK256 ADD SLOAD SUB PUSH2 0x60F JUMPI PUSH1 0x1 SWAP4 POP PUSH2 0x65C JUMP JUMPDEST DUP5 DUP2 DUP2 SLOAD DUP2 LT PUSH2 0x622 JUMPI PUSH2 0x621 PUSH2 0x1D5B JUMP JUMPDEST JUMPDEST SWAP1 PUSH1 0x0 MSTORE PUSH1 0x20 PUSH1 0x0 KECCAK256 ADD SLOAD DUP4 DUP4 DUP2 MLOAD DUP2 LT PUSH2 0x640 JUMPI PUSH2 0x63F PUSH2 0x1D5B JUMP JUMPDEST JUMPDEST PUSH1 0x20 MUL PUSH1 0x20 ADD ADD DUP2 DUP2 MSTORE POP POP PUSH1 0x1 DUP3 PUSH2 0x659 SWAP2 SWAP1 PUSH2 0x1C87 JUMP JUMPDEST SWAP2 POP JUMPDEST DUP1 DUP1 PUSH2 0x667 SWAP1 PUSH2 0x1D8A JUMP JUMPDEST SWAP2 POP POP PUSH2 0x5D6 JUMP JUMPDEST POP PUSH1 0x1 ISZERO ISZERO DUP4 ISZERO ISZERO EQ PUSH2 0x6B7 JUMPI PUSH1 0x40 MLOAD PUSH32 0x8C379A000000000000000000000000000000000000000000000000000000000 DUP2 MSTORE PUSH1 0x4 ADD PUSH2 0x6AE SWAP1 PUSH2 0x1E44 JUMP JUMPDEST PUSH1 0x40 MLOAD DUP1 SWAP2 SUB SWAP1 REVERT JUMPDEST DUP2 PUSH1 0x3 PUSH1 0x0 CALLER PUSH20 0xFFFFFFFFFFFFFFFFFFFFFFFFFFFFFFFFFFFFFFFF AND PUSH20 0xFFFFFFFFFFFFFFFFFFFFFFFFFFFFFFFFFFFFFFFF AND DUP2 MSTORE PUSH1 0x20 ADD SWAP1 DUP2 MSTORE PUSH1 0x20 ADD PUSH1 0x0 KECCAK256 SWAP1 DUP1 MLOAD SWAP1 PUSH1 0x20 ADD SWAP1 PUSH2 0x70A SWAP3 SWAP2 SWAP1 PUSH2 0x1139 JUMP JUMPDEST POP PUSH1 0x0 DUP1 JUMPDEST PUSH1 0x4 DUP1 SLOAD SWAP1 POP DUP2 LT ISZERO PUSH2 0x764 JUMPI DUP7 PUSH1 0x4 DUP3 DUP2 SLOAD DUP2 LT PUSH2 0x731 JUMPI PUSH2 0x730 PUSH2 0x1D5B JUMP JUMPDEST JUMPDEST SWAP1 PUSH1 0x0 MSTORE PUSH1 0x20 PUSH1 0x0 KECCAK256 SWAP1 PUSH1 0x4 MUL ADD PUSH1 0x0 ADD SLOAD SUB PUSH2 0x751 JUMPI PUSH1 0x1 SWAP2 POP PUSH2 0x764 JUMP JUMPDEST DUP1 DUP1 PUSH2 0x75C SWAP1 PUSH2 0x1D8A JUMP JUMPDEST SWAP2 POP POP PUSH2 0x70F JUMP JUMPDEST POP DUP1 PUSH2 0x7A5 JUMPI PUSH1 0x40 MLOAD PUSH32 0x8C379A000000000000000000000000000000000000000000000000000000000 DUP2 MSTORE PUSH1 0x4 ADD PUSH2 0x79C SWAP1 PUSH2 0x1EB0 JUMP JUMPDEST PUSH1 0x40 MLOAD DUP1 SWAP2 SUB SWAP1 REVERT JUMPDEST PUSH1 0x0 PUSH1 0x4 DUP8 DUP2 SLOAD DUP2 LT PUSH2 0x7BB JUMPI PUSH2 0x7BA PUSH2 0x1D5B JUMP JUMPDEST JUMPDEST SWAP1 PUSH1 0x0 MSTORE PUSH1 0x20 PUSH1 0x0 KECCAK256 SWAP1 PUSH1 0x4 MUL ADD SWAP1 POP PUSH1 0x0 PUSH1 0x1 DUP3 PUSH1 0x2 ADD DUP1 SLOAD SWAP1 POP PUSH2 0x7E1 SWAP2 SWAP1 PUSH2 0x1D27 JUMP JUMPDEST PUSH8 0xFFFFFFFFFFFFFFFF DUP2 GT ISZERO PUSH2 0x7FA JUMPI PUSH2 0x7F9 PUSH2 0x11EC JUMP JUMPDEST JUMPDEST PUSH1 0x40 MLOAD SWAP1 DUP1 DUP3 MSTORE DUP1 PUSH1 0x20 MUL PUSH1 0x20 ADD DUP3 ADD PUSH1 0x40 MSTORE DUP1 ISZERO PUSH2 0x828 JUMPI DUP2 PUSH1 0x20 ADD PUSH1 0x20 DUP3 MUL DUP1 CALLDATASIZE DUP4 CALLDATACOPY DUP1 DUP3 ADD SWAP2 POP POP SWAP1 POP JUMPDEST POP SWAP1 POP PUSH1 0x0 SWAP4 POP PUSH1 0x0 JUMPDEST DUP3 PUSH1 0x2 ADD DUP1 SLOAD SWAP1 POP DUP2 LT ISZERO PUSH2 0x964 JUMPI CALLER PUSH20 0xFFFFFFFFFFFFFFFFFFFFFFFFFFFFFFFFFFFFFFFF AND DUP4 PUSH1 0x2 ADD DUP3 DUP2 SLOAD DUP2 LT PUSH2 0x86E JUMPI PUSH2 0x86D PUSH2 0x1D5B JUMP JUMPDEST JUMPDEST SWAP1 PUSH1 0x0 MSTORE PUSH1 0x20 PUSH1 0x0 KECCAK256 ADD PUSH1 0x0 SWAP1 SLOAD SWAP1 PUSH2 0x100 EXP SWAP1 DIV PUSH20 0xFFFFFFFFFFFFFFFFFFFFFFFFFFFFFFFFFFFFFFFF AND PUSH20 0xFFFFFFFFFFFFFFFFFFFFFFFFFFFFFFFFFFFFFFFF AND EQ PUSH2 0x951 JUMPI DUP3 PUSH1 0x2 ADD DUP2 DUP2 SLOAD DUP2 LT PUSH2 0x8CA JUMPI PUSH2 0x8C9 PUSH2 0x1D5B JUMP JUMPDEST JUMPDEST SWAP1 PUSH1 0x0 MSTORE PUSH1 0x20 PUSH1 0x0 KECCAK256 ADD PUSH1 0x0 SWAP1 SLOAD SWAP1 PUSH2 0x100 EXP SWAP1 DIV PUSH20 0xFFFFFFFFFFFFFFFFFFFFFFFFFFFFFFFFFFFFFFFF AND DUP3 DUP7 DUP2 MLOAD DUP2 LT PUSH2 0x908 JUMPI PUSH2 0x907 PUSH2 0x1D5B JUMP JUMPDEST JUMPDEST PUSH1 0x20 MUL PUSH1 0x20 ADD ADD SWAP1 PUSH20 0xFFFFFFFFFFFFFFFFFFFFFFFFFFFFFFFFFFFFFFFF AND SWAP1 DUP2 PUSH20 0xFFFFFFFFFFFFFFFFFFFFFFFFFFFFFFFFFFFFFFFF AND DUP2 MSTORE POP POP DUP5 DUP1 PUSH2 0x94D SWAP1 PUSH2 0x1D8A JUMP JUMPDEST SWAP6 POP POP JUMPDEST DUP1 DUP1 PUSH2 0x95C SWAP1 PUSH2 0x1D8A JUMP JUMPDEST SWAP2 POP POP PUSH2 0x832 JUMP JUMPDEST POP DUP1 DUP3 PUSH1 0x2 ADD SWAP1 DUP1 MLOAD SWAP1 PUSH1 0x20 ADD SWAP1 PUSH2 0x97D SWAP3 SWAP2 SWAP1 PUSH2 0x10AF JUMP JUMPDEST POP POP POP POP POP POP POP POP POP JUMP JUMPDEST PUSH1 0x0 DUP1 JUMPDEST PUSH1 0x4 DUP1 SLOAD SWAP1 POP DUP2 LT ISZERO PUSH2 0x9E1 JUMPI DUP3 PUSH1 0x4 DUP3 DUP2 SLOAD DUP2 LT PUSH2 0x9AE JUMPI PUSH2 0x9AD PUSH2 0x1D5B JUMP JUMPDEST JUMPDEST SWAP1 PUSH1 0x0 MSTORE PUSH1 0x20 PUSH1 0x0 KECCAK256 SWAP1 PUSH1 0x4 MUL ADD PUSH1 0x0 ADD SLOAD SUB PUSH2 0x9CE JUMPI PUSH1 0x1 SWAP2 POP PUSH2 0x9E1 JUMP JUMPDEST DUP1 DUP1 PUSH2 0x9D9 SWAP1 PUSH2 0x1D8A JUMP JUMPDEST SWAP2 POP POP PUSH2 0x98C JUMP JUMPDEST POP DUP1 PUSH2 0xA22 JUMPI PUSH1 0x40 MLOAD PUSH32 0x8C379A000000000000000000000000000000000000000000000000000000000 DUP2 MSTORE PUSH1 0x4 ADD PUSH2 0xA19 SWAP1 PUSH2 0x1EB0 JUMP JUMPDEST PUSH1 0x40 MLOAD DUP1 SWAP2 SUB SWAP1 REVERT JUMPDEST PUSH1 0x0 PUSH1 0x4 DUP4 DUP2 SLOAD DUP2 LT PUSH2 0xA38 JUMPI PUSH2 0xA37 PUSH2 0x1D5B JUMP JUMPDEST JUMPDEST SWAP1 PUSH1 0x0 MSTORE PUSH1 0x20 PUSH1 0x0 KECCAK256 SWAP1 PUSH1 0x4 MUL ADD SWAP1 POP DUP1 PUSH1 0x2 ADD DUP1 SLOAD SWAP1 POP DUP2 PUSH1 0x1 ADD SLOAD GT PUSH2 0xA95 JUMPI PUSH1 0x40 MLOAD PUSH32 0x8C379A000000000000000000000000000000000000000000000000000000000 DUP2 MSTORE PUSH1 0x4 ADD PUSH2 0xA8C SWAP1 PUSH2 0x1F1C JUMP JUMPDEST PUSH1 0x40 MLOAD DUP1 SWAP2 SUB SWAP1 REVERT JUMPDEST PUSH1 0x0 PUSH1 0x3 PUSH1 0x0 CALLER PUSH20 0xFFFFFFFFFFFFFFFFFFFFFFFFFFFFFFFFFFFFFFFF AND PUSH20 0xFFFFFFFFFFFFFFFFFFFFFFFFFFFFFFFFFFFFFFFF AND DUP2 MSTORE PUSH1 0x20 ADD SWAP1 DUP2 MSTORE PUSH1 0x20 ADD PUSH1 0x0 KECCAK256 SWAP1 POP PUSH1 0x0 JUMPDEST DUP2 DUP1 SLOAD SWAP1 POP DUP2 LT ISZERO PUSH2 0xB59 JUMPI DUP5 DUP3 DUP3 DUP2 SLOAD DUP2 LT PUSH2 0xAFB JUMPI PUSH2 0xAFA PUSH2 0x1D5B JUMP JUMPDEST JUMPDEST SWAP1 PUSH1 0x0 MSTORE PUSH1 0x20 PUSH1 0x0 KECCAK256 ADD SLOAD SUB PUSH2 0xB46 JUMPI PUSH1 0x40 MLOAD PUSH32 0x8C379A000000000000000000000000000000000000000000000000000000000 DUP2 MSTORE PUSH1 0x4 ADD PUSH2 0xB3D SWAP1 PUSH2 0x1FAE JUMP JUMPDEST PUSH1 0x40 MLOAD DUP1 SWAP2 SUB SWAP1 REVERT JUMPDEST DUP1 DUP1 PUSH2 0xB51 SWAP1 PUSH2 0x1D8A JUMP JUMPDEST SWAP2 POP POP PUSH2 0xADB JUMP JUMPDEST POP DUP2 PUSH1 0x2 ADD CALLER SWAP1 DUP1 PUSH1 0x1 DUP2 SLOAD ADD DUP1 DUP3 SSTORE DUP1 SWAP2 POP POP PUSH1 0x1 SWAP1 SUB SWAP1 PUSH1 0x0 MSTORE PUSH1 0x20 PUSH1 0x0 KECCAK256 ADD PUSH1 0x0 SWAP1 SWAP2 SWAP1 SWAP2 SWAP1 SWAP2 PUSH2 0x100 EXP DUP2 SLOAD DUP2 PUSH20 0xFFFFFFFFFFFFFFFFFFFFFFFFFFFFFFFFFFFFFFFF MUL NOT AND SWAP1 DUP4 PUSH20 0xFFFFFFFFFFFFFFFFFFFFFFFFFFFFFFFFFFFFFFFF AND MUL OR SWAP1 SSTORE POP DUP1 DUP5 SWAP1 DUP1 PUSH1 0x1 DUP2 SLOAD ADD DUP1 DUP3 SSTORE DUP1 SWAP2 POP POP PUSH1 0x1 SWAP1 SUB SWAP1 PUSH1 0x0 MSTORE PUSH1 0x20 PUSH1 0x0 KECCAK256 ADD PUSH1 0x0 SWAP1 SWAP2 SWAP1 SWAP2 SWAP1 SWAP2 POP SSTORE PUSH1 0x0 DUP1 JUMPDEST PUSH1 0x2 DUP1 SLOAD SWAP1 POP DUP2 LT ISZERO PUSH2 0xC85 JUMPI CALLER PUSH20 0xFFFFFFFFFFFFFFFFFFFFFFFFFFFFFFFFFFFFFFFF AND PUSH1 0x2 DUP3 DUP2 SLOAD DUP2 LT PUSH2 0xC23 JUMPI PUSH2 0xC22 PUSH2 0x1D5B JUMP JUMPDEST JUMPDEST SWAP1 PUSH1 0x0 MSTORE PUSH1 0x20 PUSH1 0x0 KECCAK256 ADD PUSH1 0x0 SWAP1 SLOAD SWAP1 PUSH2 0x100 EXP SWAP1 DIV PUSH20 0xFFFFFFFFFFFFFFFFFFFFFFFFFFFFFFFFFFFFFFFF AND PUSH20 0xFFFFFFFFFFFFFFFFFFFFFFFFFFFFFFFFFFFFFFFF AND SUB PUSH2 0xC72 JUMPI PUSH1 0x1 SWAP2 POP PUSH2 0xC85 JUMP JUMPDEST DUP1 DUP1 PUSH2 0xC7D SWAP1 PUSH2 0x1D8A JUMP JUMPDEST SWAP2 POP POP PUSH2 0xBEB JUMP JUMPDEST POP PUSH1 0x0 ISZERO ISZERO DUP2 ISZERO ISZERO SUB PUSH2 0xCF6 JUMPI PUSH1 0x2 CALLER SWAP1 DUP1 PUSH1 0x1 DUP2 SLOAD ADD DUP1 DUP3 SSTORE DUP1 SWAP2 POP POP PUSH1 0x1 SWAP1 SUB SWAP1 PUSH1 0x0 MSTORE PUSH1 0x20 PUSH1 0x0 KECCAK256 ADD PUSH1 0x0 SWAP1 SWAP2 SWAP1 SWAP2 SWAP1 SWAP2 PUSH2 0x100 EXP DUP2 SLOAD DUP2 PUSH20 0xFFFFFFFFFFFFFFFFFFFFFFFFFFFFFFFFFFFFFFFF MUL NOT AND SWAP1 DUP4 PUSH20 0xFFFFFFFFFFFFFFFFFFFFFFFFFFFFFFFFFFFFFFFF AND MUL OR SWAP1 SSTORE POP JUMPDEST POP POP POP POP POP JUMP JUMPDEST PUSH1 0x60 PUSH1 0x0 PUSH1 0x4 DUP1 SLOAD SWAP1 POP PUSH8 0xFFFFFFFFFFFFFFFF DUP2 GT ISZERO PUSH2 0xD20 JUMPI PUSH2 0xD1F PUSH2 0x11EC JUMP JUMPDEST JUMPDEST PUSH1 0x40 MLOAD SWAP1 DUP1 DUP3 MSTORE DUP1 PUSH1 0x20 MUL PUSH1 0x20 ADD DUP3 ADD PUSH1 0x40 MSTORE DUP1 ISZERO PUSH2 0xD59 JUMPI DUP2 PUSH1 0x20 ADD JUMPDEST PUSH2 0xD46 PUSH2 0x1186 JUMP JUMPDEST DUP2 MSTORE PUSH1 0x20 ADD SWAP1 PUSH1 0x1 SWAP1 SUB SWAP1 DUP2 PUSH2 0xD3E JUMPI SWAP1 POP JUMPDEST POP SWAP1 POP PUSH1 0x0 JUMPDEST PUSH1 0x4 DUP1 SLOAD SWAP1 POP DUP2 LT ISZERO PUSH2 0xEDA JUMPI PUSH1 0x4 DUP2 DUP2 SLOAD DUP2 LT PUSH2 0xD80 JUMPI PUSH2 0xD7F PUSH2 0x1D5B JUMP JUMPDEST JUMPDEST SWAP1 PUSH1 0x0 MSTORE PUSH1 0x20 PUSH1 0x0 KECCAK256 SWAP1 PUSH1 0x4 MUL ADD PUSH1 0x2 ADD DUP1 SLOAD SWAP1 POP PUSH1 0x4 DUP3 DUP2 SLOAD DUP2 LT PUSH2 0xDA9 JUMPI PUSH2 0xDA8 PUSH2 0x1D5B JUMP JUMPDEST JUMPDEST SWAP1 PUSH1 0x0 MSTORE PUSH1 0x20 PUSH1 0x0 KECCAK256 SWAP1 PUSH1 0x4 MUL ADD PUSH1 0x1 ADD SLOAD GT ISZERO PUSH2 0xEC7 JUMPI PUSH1 0x40 MLOAD DUP1 PUSH1 0x40 ADD PUSH1 0x40 MSTORE DUP1 PUSH1 0x4 DUP4 DUP2 SLOAD DUP2 LT PUSH2 0xDE0 JUMPI PUSH2 0xDDF PUSH2 0x1D5B JUMP JUMPDEST JUMPDEST SWAP1 PUSH1 0x0 MSTORE PUSH1 0x20 PUSH1 0x0 KECCAK256 SWAP1 PUSH1 0x4 MUL ADD PUSH1 0x0 ADD SLOAD DUP2 MSTORE PUSH1 0x20 ADD PUSH1 0x4 DUP4 DUP2 SLOAD DUP2 LT PUSH2 0xE0B JUMPI PUSH2 0xE0A PUSH2 0x1D5B JUMP JUMPDEST JUMPDEST SWAP1 PUSH1 0x0 MSTORE PUSH1 0x20 PUSH1 0x0 KECCAK256 SWAP1 PUSH1 0x4 MUL ADD PUSH1 0x3 ADD DUP1 SLOAD PUSH2 0xE27 SWAP1 PUSH2 0x19A9 JUMP JUMPDEST DUP1 PUSH1 0x1F ADD PUSH1 0x20 DUP1 SWAP2 DIV MUL PUSH1 0x20 ADD PUSH1 0x40 MLOAD SWAP1 DUP2 ADD PUSH1 0x40 MSTORE DUP1 SWAP3 SWAP2 SWAP1 DUP2 DUP2 MSTORE PUSH1 0x20 ADD DUP3 DUP1 SLOAD PUSH2 0xE53 SWAP1 PUSH2 0x19A9 JUMP JUMPDEST DUP1 ISZERO PUSH2 0xEA0 JUMPI DUP1 PUSH1 0x1F LT PUSH2 0xE75 JUMPI PUSH2 0x100 DUP1 DUP4 SLOAD DIV MUL DUP4 MSTORE SWAP2 PUSH1 0x20 ADD SWAP2 PUSH2 0xEA0 JUMP JUMPDEST DUP3 ADD SWAP2 SWAP1 PUSH1 0x0 MSTORE PUSH1 0x20 PUSH1 0x0 KECCAK256 SWAP1 JUMPDEST DUP2 SLOAD DUP2 MSTORE SWAP1 PUSH1 0x1 ADD SWAP1 PUSH1 0x20 ADD DUP1 DUP4 GT PUSH2 0xE83 JUMPI DUP3 SWAP1 SUB PUSH1 0x1F AND DUP3 ADD SWAP2 JUMPDEST POP POP POP POP POP DUP2 MSTORE POP DUP3 DUP3 DUP2 MLOAD DUP2 LT PUSH2 0xEBB JUMPI PUSH2 0xEBA PUSH2 0x1D5B JUMP JUMPDEST JUMPDEST PUSH1 0x20 MUL PUSH1 0x20 ADD ADD DUP2 SWAP1 MSTORE POP JUMPDEST DUP1 DUP1 PUSH2 0xED2 SWAP1 PUSH2 0x1D8A JUMP JUMPDEST SWAP2 POP POP PUSH2 0xD5F JUMP JUMPDEST POP DUP1 SWAP2 POP POP SWAP1 JUMP JUMPDEST PUSH2 0xEEA PUSH2 0xF65 JUMP JUMPDEST PUSH1 0x0 PUSH20 0xFFFFFFFFFFFFFFFFFFFFFFFFFFFFFFFFFFFFFFFF AND DUP2 PUSH20 0xFFFFFFFFFFFFFFFFFFFFFFFFFFFFFFFFFFFFFFFF AND SUB PUSH2 0xF59 JUMPI PUSH1 0x40 MLOAD PUSH32 0x8C379A000000000000000000000000000000000000000000000000000000000 DUP2 MSTORE PUSH1 0x4 ADD PUSH2 0xF50 SWAP1 PUSH2 0x2040 JUMP JUMPDEST PUSH1 0x40 MLOAD DUP1 SWAP2 SUB SWAP1 REVERT JUMPDEST PUSH2 0xF62 DUP2 PUSH2 0xFE3 JUMP JUMPDEST POP JUMP JUMPDEST PUSH2 0xF6D PUSH2 0x10A7 JUMP JUMPDEST PUSH20 0xFFFFFFFFFFFFFFFFFFFFFFFFFFFFFFFFFFFFFFFF AND PUSH2 0xF8B PUSH2 0x4C1 JUMP JUMPDEST PUSH20 0xFFFFFFFFFFFFFFFFFFFFFFFFFFFFFFFFFFFFFFFF AND EQ PUSH2 0xFE1 JUMPI PUSH1 0x40 MLOAD PUSH32 0x8C379A000000000000000000000000000000000000000000000000000000000 DUP2 MSTORE PUSH1 0x4 ADD PUSH2 0xFD8 SWAP1 PUSH2 0x20AC JUMP JUMPDEST PUSH1 0x40 MLOAD DUP1 SWAP2 SUB SWAP1 REVERT JUMPDEST JUMP JUMPDEST PUSH1 0x0 DUP1 PUSH1 0x0 SWAP1 SLOAD SWAP1 PUSH2 0x100 EXP SWAP1 DIV PUSH20 0xFFFFFFFFFFFFFFFFFFFFFFFFFFFFFFFFFFFFFFFF AND SWAP1 POP DUP2 PUSH1 0x0 DUP1 PUSH2 0x100 EXP DUP2 SLOAD DUP2 PUSH20 0xFFFFFFFFFFFFFFFFFFFFFFFFFFFFFFFFFFFFFFFF MUL NOT AND SWAP1 DUP4 PUSH20 0xFFFFFFFFFFFFFFFFFFFFFFFFFFFFFFFFFFFFFFFF AND MUL OR SWAP1 SSTORE POP DUP2 PUSH20 0xFFFFFFFFFFFFFFFFFFFFFFFFFFFFFFFFFFFFFFFF AND DUP2 PUSH20 0xFFFFFFFFFFFFFFFFFFFFFFFFFFFFFFFFFFFFFFFF AND PUSH32 0x8BE0079C531659141344CD1FD0A4F28419497F9722A3DAAFE3B4186F6B6457E0 PUSH1 0x40 MLOAD PUSH1 0x40 MLOAD DUP1 SWAP2 SUB SWAP1 LOG3 POP POP JUMP JUMPDEST PUSH1 0x0 CALLER SWAP1 POP SWAP1 JUMP JUMPDEST DUP3 DUP1 SLOAD DUP3 DUP3 SSTORE SWAP1 PUSH1 0x0 MSTORE PUSH1 0x20 PUSH1 0x0 KECCAK256 SWAP1 DUP2 ADD SWAP3 DUP3 ISZERO PUSH2 0x1128 JUMPI SWAP2 PUSH1 0x20 MUL DUP3 ADD JUMPDEST DUP3 DUP2 GT ISZERO PUSH2 0x1127 JUMPI DUP3 MLOAD DUP3 PUSH1 0x0 PUSH2 0x100 EXP DUP2 SLOAD DUP2 PUSH20 0xFFFFFFFFFFFFFFFFFFFFFFFFFFFFFFFFFFFFFFFF MUL NOT AND SWAP1 DUP4 PUSH20 0xFFFFFFFFFFFFFFFFFFFFFFFFFFFFFFFFFFFFFFFF AND MUL OR SWAP1 SSTORE POP SWAP2 PUSH1 0x20 ADD SWAP2 SWAP1 PUSH1 0x1 ADD SWAP1 PUSH2 0x10CF JUMP JUMPDEST JUMPDEST POP SWAP1 POP PUSH2 0x1135 SWAP2 SWAP1 PUSH2 0x11A0 JUMP JUMPDEST POP SWAP1 JUMP JUMPDEST DUP3 DUP1 SLOAD DUP3 DUP3 SSTORE SWAP1 PUSH1 0x0 MSTORE PUSH1 0x20 PUSH1 0x0 KECCAK256 SWAP1 DUP2 ADD SWAP3 DUP3 ISZERO PUSH2 0x1175 JUMPI SWAP2 PUSH1 0x20 MUL DUP3 ADD JUMPDEST DUP3 DUP2 GT ISZERO PUSH2 0x1174 JUMPI DUP3 MLOAD DUP3 SSTORE SWAP2 PUSH1 0x20 ADD SWAP2 SWAP1 PUSH1 0x1 ADD SWAP1 PUSH2 0x1159 JUMP JUMPDEST JUMPDEST POP SWAP1 POP PUSH2 0x1182 SWAP2 SWAP1 PUSH2 0x11A0 JUMP JUMPDEST POP SWAP1 JUMP JUMPDEST PUSH1 0x40 MLOAD DUP1 PUSH1 0x40 ADD PUSH1 0x40 MSTORE DUP1 PUSH1 0x0 DUP2 MSTORE PUSH1 0x20 ADD PUSH1 0x60 DUP2 MSTORE POP SWAP1 JUMP JUMPDEST JUMPDEST DUP1 DUP3 GT ISZERO PUSH2 0x11B9 JUMPI PUSH1 0x0 DUP2 PUSH1 0x0 SWAP1 SSTORE POP PUSH1 0x1 ADD PUSH2 0x11A1 JUMP JUMPDEST POP SWAP1 JUMP JUMPDEST PUSH1 0x0 PUSH1 0x40 MLOAD SWAP1 POP SWAP1 JUMP JUMPDEST PUSH1 0x0 DUP1 REVERT JUMPDEST PUSH1 0x0 DUP1 REVERT JUMPDEST PUSH1 0x0 DUP1 REVERT JUMPDEST PUSH1 0x0 DUP1 REVERT JUMPDEST PUSH1 0x0 PUSH1 0x1F NOT PUSH1 0x1F DUP4 ADD AND SWAP1 POP SWAP2 SWAP1 POP JUMP JUMPDEST PUSH32 0x4E487B7100000000000000000000000000000000000000000000000000000000 PUSH1 0x0 MSTORE PUSH1 0x41 PUSH1 0x4 MSTORE PUSH1 0x24 PUSH1 0x0 REVERT JUMPDEST PUSH2 0x1224 DUP3 PUSH2 0x11DB JUMP JUMPDEST DUP2 ADD DUP2 DUP2 LT PUSH8 0xFFFFFFFFFFFFFFFF DUP3 GT OR ISZERO PUSH2 0x1243 JUMPI PUSH2 0x1242 PUSH2 0x11EC JUMP JUMPDEST JUMPDEST DUP1 PUSH1 0x40 MSTORE POP POP POP JUMP JUMPDEST PUSH1 0x0 PUSH2 0x1256 PUSH2 0x11BD JUMP JUMPDEST SWAP1 POP PUSH2 0x1262 DUP3 DUP3 PUSH2 0x121B JUMP JUMPDEST SWAP2 SWAP1 POP JUMP JUMPDEST PUSH1 0x0 PUSH8 0xFFFFFFFFFFFFFFFF DUP3 GT ISZERO PUSH2 0x1282 JUMPI PUSH2 0x1281 PUSH2 0x11EC JUMP JUMPDEST JUMPDEST PUSH2 0x128B DUP3 PUSH2 0x11DB JUMP JUMPDEST SWAP1 POP PUSH1 0x20 DUP2 ADD SWAP1 POP SWAP2 SWAP1 POP JUMP JUMPDEST DUP3 DUP2 DUP4 CALLDATACOPY PUSH1 0x0 DUP4 DUP4 ADD MSTORE POP POP POP JUMP JUMPDEST PUSH1 0x0 PUSH2 0x12BA PUSH2 0x12B5 DUP5 PUSH2 0x1267 JUMP JUMPDEST PUSH2 0x124C JUMP JUMPDEST SWAP1 POP DUP3 DUP2 MSTORE PUSH1 0x20 DUP2 ADD DUP5 DUP5 DUP5 ADD GT ISZERO PUSH2 0x12D6 JUMPI PUSH2 0x12D5 PUSH2 0x11D6 JUMP JUMPDEST JUMPDEST PUSH2 0x12E1 DUP5 DUP3 DUP6 PUSH2 0x1298 JUMP JUMPDEST POP SWAP4 SWAP3 POP POP POP JUMP JUMPDEST PUSH1 0x0 DUP3 PUSH1 0x1F DUP4 ADD SLT PUSH2 0x12FE JUMPI PUSH2 0x12FD PUSH2 0x11D1 JUMP JUMPDEST JUMPDEST DUP2 CALLDATALOAD PUSH2 0x130E DUP5 DUP3 PUSH1 0x20 DUP7 ADD PUSH2 0x12A7 JUMP JUMPDEST SWAP2 POP POP SWAP3 SWAP2 POP POP JUMP JUMPDEST PUSH1 0x0 DUP2 SWAP1 POP SWAP2 SWAP1 POP JUMP JUMPDEST PUSH2 0x132A DUP2 PUSH2 0x1317 JUMP JUMPDEST DUP2 EQ PUSH2 0x1335 JUMPI PUSH1 0x0 DUP1 REVERT JUMPDEST POP JUMP JUMPDEST PUSH1 0x0 DUP2 CALLDATALOAD SWAP1 POP PUSH2 0x1347 DUP2 PUSH2 0x1321 JUMP JUMPDEST SWAP3 SWAP2 POP POP JUMP JUMPDEST PUSH1 0x0 DUP1 PUSH1 0x40 DUP4 DUP6 SUB SLT ISZERO PUSH2 0x1364 JUMPI PUSH2 0x1363 PUSH2 0x11C7 JUMP JUMPDEST JUMPDEST PUSH1 0x0 DUP4 ADD CALLDATALOAD PUSH8 0xFFFFFFFFFFFFFFFF DUP2 GT ISZERO PUSH2 0x1382 JUMPI PUSH2 0x1381 PUSH2 0x11CC JUMP JUMPDEST JUMPDEST PUSH2 0x138E DUP6 DUP3 DUP7 ADD PUSH2 0x12E9 JUMP JUMPDEST SWAP3 POP POP PUSH1 0x20 PUSH2 0x139F DUP6 DUP3 DUP7 ADD PUSH2 0x1338 JUMP JUMPDEST SWAP2 POP POP SWAP3 POP SWAP3 SWAP1 POP JUMP JUMPDEST PUSH1 0x0 DUP2 MLOAD SWAP1 POP SWAP2 SWAP1 POP JUMP JUMPDEST PUSH1 0x0 DUP3 DUP3 MSTORE PUSH1 0x20 DUP3 ADD SWAP1 POP SWAP3 SWAP2 POP POP JUMP JUMPDEST PUSH1 0x0 DUP2 SWAP1 POP PUSH1 0x20 DUP3 ADD SWAP1 POP SWAP2 SWAP1 POP JUMP JUMPDEST PUSH2 0x13DE DUP2 PUSH2 0x1317 JUMP JUMPDEST DUP3 MSTORE POP POP JUMP JUMPDEST PUSH1 0x0 DUP2 MLOAD SWAP1 POP SWAP2 SWAP1 POP JUMP JUMPDEST PUSH1 0x0 DUP3 DUP3 MSTORE PUSH1 0x20 DUP3 ADD SWAP1 POP SWAP3 SWAP2 POP POP JUMP JUMPDEST PUSH1 0x0 DUP2 SWAP1 POP PUSH1 0x20 DUP3 ADD SWAP1 POP SWAP2 SWAP1 POP JUMP JUMPDEST PUSH1 0x0 PUSH20 0xFFFFFFFFFFFFFFFFFFFFFFFFFFFFFFFFFFFFFFFF DUP3 AND SWAP1 POP SWAP2 SWAP1 POP JUMP JUMPDEST PUSH1 0x0 PUSH2 0x143B DUP3 PUSH2 0x1410 JUMP JUMPDEST SWAP1 POP SWAP2 SWAP1 POP JUMP JUMPDEST PUSH2 0x144B DUP2 PUSH2 0x1430 JUMP JUMPDEST DUP3 MSTORE POP POP JUMP JUMPDEST PUSH1 0x0 PUSH2 0x145D DUP4 DUP4 PUSH2 0x1442 JUMP JUMPDEST PUSH1 0x20 DUP4 ADD SWAP1 POP SWAP3 SWAP2 POP POP JUMP JUMPDEST PUSH1 0x0 PUSH1 0x20 DUP3 ADD SWAP1 POP SWAP2 SWAP1 POP JUMP JUMPDEST PUSH1 0x0 PUSH2 0x1481 DUP3 PUSH2 0x13E4 JUMP JUMPDEST PUSH2 0x148B DUP2 DUP6 PUSH2 0x13EF JUMP JUMPDEST SWAP4 POP PUSH2 0x1496 DUP4 PUSH2 0x1400 JUMP JUMPDEST DUP1 PUSH1 0x0 JUMPDEST DUP4 DUP2 LT ISZERO PUSH2 0x14C7 JUMPI DUP2 MLOAD PUSH2 0x14AE DUP9 DUP3 PUSH2 0x1451 JUMP JUMPDEST SWAP8 POP PUSH2 0x14B9 DUP4 PUSH2 0x1469 JUMP JUMPDEST SWAP3 POP POP PUSH1 0x1 DUP2 ADD SWAP1 POP PUSH2 0x149A JUMP JUMPDEST POP DUP6 SWAP4 POP POP POP POP SWAP3 SWAP2 POP POP JUMP JUMPDEST PUSH1 0x0 DUP2 MLOAD SWAP1 POP SWAP2 SWAP1 POP JUMP JUMPDEST PUSH1 0x0 DUP3 DUP3 MSTORE PUSH1 0x20 DUP3 ADD SWAP1 POP SWAP3 SWAP2 POP POP JUMP JUMPDEST PUSH1 0x0 JUMPDEST DUP4 DUP2 LT ISZERO PUSH2 0x150E JUMPI DUP1 DUP3 ADD MLOAD DUP2 DUP5 ADD MSTORE PUSH1 0x20 DUP2 ADD SWAP1 POP PUSH2 0x14F3 JUMP JUMPDEST PUSH1 0x0 DUP5 DUP5 ADD MSTORE POP POP POP POP JUMP JUMPDEST PUSH1 0x0 PUSH2 0x1525 DUP3 PUSH2 0x14D4 JUMP JUMPDEST PUSH2 0x152F DUP2 DUP6 PUSH2 0x14DF JUMP JUMPDEST SWAP4 POP PUSH2 0x153F DUP2 DUP6 PUSH1 0x20 DUP7 ADD PUSH2 0x14F0 JUMP JUMPDEST PUSH2 0x1548 DUP2 PUSH2 0x11DB JUMP JUMPDEST DUP5 ADD SWAP2 POP POP SWAP3 SWAP2 POP POP JUMP JUMPDEST PUSH1 0x0 PUSH1 0x80 DUP4 ADD PUSH1 0x0 DUP4 ADD MLOAD PUSH2 0x156B PUSH1 0x0 DUP7 ADD DUP3 PUSH2 0x13D5 JUMP JUMPDEST POP PUSH1 0x20 DUP4 ADD MLOAD PUSH2 0x157E PUSH1 0x20 DUP7 ADD DUP3 PUSH2 0x13D5 JUMP JUMPDEST POP PUSH1 0x40 DUP4 ADD MLOAD DUP5 DUP3 SUB PUSH1 0x40 DUP7 ADD MSTORE PUSH2 0x1596 DUP3 DUP3 PUSH2 0x1476 JUMP JUMPDEST SWAP2 POP POP PUSH1 0x60 DUP4 ADD MLOAD DUP5 DUP3 SUB PUSH1 0x60 DUP7 ADD MSTORE PUSH2 0x15B0 DUP3 DUP3 PUSH2 0x151A JUMP JUMPDEST SWAP2 POP POP DUP1 SWAP2 POP POP SWAP3 SWAP2 POP POP JUMP JUMPDEST PUSH1 0x0 PUSH2 0x15C9 DUP4 DUP4 PUSH2 0x1553 JUMP JUMPDEST SWAP1 POP SWAP3 SWAP2 POP POP JUMP JUMPDEST PUSH1 0x0 PUSH1 0x20 DUP3 ADD SWAP1 POP SWAP2 SWAP1 POP JUMP JUMPDEST PUSH1 0x0 PUSH2 0x15E9 DUP3 PUSH2 0x13A9 JUMP JUMPDEST PUSH2 0x15F3 DUP2 DUP6 PUSH2 0x13B4 JUMP JUMPDEST SWAP4 POP DUP4 PUSH1 0x20 DUP3 MUL DUP6 ADD PUSH2 0x1605 DUP6 PUSH2 0x13C5 JUMP JUMPDEST DUP1 PUSH1 0x0 JUMPDEST DUP6 DUP2 LT ISZERO PUSH2 0x1641 JUMPI DUP5 DUP5 SUB DUP10 MSTORE DUP2 MLOAD PUSH2 0x1622 DUP6 DUP3 PUSH2 0x15BD JUMP JUMPDEST SWAP5 POP PUSH2 0x162D DUP4 PUSH2 0x15D1 JUMP JUMPDEST SWAP3 POP PUSH1 0x20 DUP11 ADD SWAP10 POP POP PUSH1 0x1 DUP2 ADD SWAP1 POP PUSH2 0x1609 JUMP JUMPDEST POP DUP3 SWAP8 POP DUP8 SWAP6 POP POP POP POP POP POP SWAP3 SWAP2 POP POP JUMP JUMPDEST PUSH1 0x0 PUSH1 0x20 DUP3 ADD SWAP1 POP DUP2 DUP2 SUB PUSH1 0x0 DUP4 ADD MSTORE PUSH2 0x166D DUP2 DUP5 PUSH2 0x15DE JUMP JUMPDEST SWAP1 POP SWAP3 SWAP2 POP POP JUMP JUMPDEST PUSH1 0x0 DUP3 DUP3 MSTORE PUSH1 0x20 DUP3 ADD SWAP1 POP SWAP3 SWAP2 POP POP JUMP JUMPDEST PUSH1 0x0 PUSH2 0x1691 DUP3 PUSH2 0x13E4 JUMP JUMPDEST PUSH2 0x169B DUP2 DUP6 PUSH2 0x1675 JUMP JUMPDEST SWAP4 POP PUSH2 0x16A6 DUP4 PUSH2 0x1400 JUMP JUMPDEST DUP1 PUSH1 0x0 JUMPDEST DUP4 DUP2 LT ISZERO PUSH2 0x16D7 JUMPI DUP2 MLOAD PUSH2 0x16BE DUP9 DUP3 PUSH2 0x1451 JUMP JUMPDEST SWAP8 POP PUSH2 0x16C9 DUP4 PUSH2 0x1469 JUMP JUMPDEST SWAP3 POP POP PUSH1 0x1 DUP2 ADD SWAP1 POP PUSH2 0x16AA JUMP JUMPDEST POP DUP6 SWAP4 POP POP POP POP SWAP3 SWAP2 POP POP JUMP JUMPDEST PUSH1 0x0 PUSH1 0x20 DUP3 ADD SWAP1 POP DUP2 DUP2 SUB PUSH1 0x0 DUP4 ADD MSTORE PUSH2 0x16FE DUP2 DUP5 PUSH2 0x1686 JUMP JUMPDEST SWAP1 POP SWAP3 SWAP2 POP POP JUMP JUMPDEST PUSH2 0x170F DUP2 PUSH2 0x1430 JUMP JUMPDEST DUP3 MSTORE POP POP JUMP JUMPDEST PUSH1 0x0 PUSH1 0x20 DUP3 ADD SWAP1 POP PUSH2 0x172A PUSH1 0x0 DUP4 ADD DUP5 PUSH2 0x1706 JUMP JUMPDEST SWAP3 SWAP2 POP POP JUMP JUMPDEST PUSH1 0x0 PUSH1 0x20 DUP3 DUP5 SUB SLT ISZERO PUSH2 0x1746 JUMPI PUSH2 0x1745 PUSH2 0x11C7 JUMP JUMPDEST JUMPDEST PUSH1 0x0 PUSH2 0x1754 DUP5 DUP3 DUP6 ADD PUSH2 0x1338 JUMP JUMPDEST SWAP2 POP POP SWAP3 SWAP2 POP POP JUMP JUMPDEST PUSH1 0x0 DUP2 MLOAD SWAP1 POP SWAP2 SWAP1 POP JUMP JUMPDEST PUSH1 0x0 DUP3 DUP3 MSTORE PUSH1 0x20 DUP3 ADD SWAP1 POP SWAP3 SWAP2 POP POP JUMP JUMPDEST PUSH1 0x0 DUP2 SWAP1 POP PUSH1 0x20 DUP3 ADD SWAP1 POP SWAP2 SWAP1 POP JUMP JUMPDEST PUSH1 0x0 PUSH1 0x40 DUP4 ADD PUSH1 0x0 DUP4 ADD MLOAD PUSH2 0x17A1 PUSH1 0x0 DUP7 ADD DUP3 PUSH2 0x13D5 JUMP JUMPDEST POP PUSH1 0x20 DUP4 ADD MLOAD DUP5 DUP3 SUB PUSH1 0x20 DUP7 ADD MSTORE PUSH2 0x17B9 DUP3 DUP3 PUSH2 0x151A JUMP JUMPDEST SWAP2 POP POP DUP1 SWAP2 POP POP SWAP3 SWAP2 POP POP JUMP JUMPDEST PUSH1 0x0 PUSH2 0x17D2 DUP4 DUP4 PUSH2 0x1789 JUMP JUMPDEST SWAP1 POP SWAP3 SWAP2 POP POP JUMP JUMPDEST PUSH1 0x0 PUSH1 0x20 DUP3 ADD SWAP1 POP SWAP2 SWAP1 POP JUMP JUMPDEST PUSH1 0x0 PUSH2 0x17F2 DUP3 PUSH2 0x175D JUMP JUMPDEST PUSH2 0x17FC DUP2 DUP6 PUSH2 0x1768 JUMP JUMPDEST SWAP4 POP DUP4 PUSH1 0x20 DUP3 MUL DUP6 ADD PUSH2 0x180E DUP6 PUSH2 0x1779 JUMP JUMPDEST DUP1 PUSH1 0x0 JUMPDEST DUP6 DUP2 LT ISZERO PUSH2 0x184A JUMPI DUP5 DUP5 SUB DUP10 MSTORE DUP2 MLOAD PUSH2 0x182B DUP6 DUP3 PUSH2 0x17C6 JUMP JUMPDEST SWAP5 POP PUSH2 0x1836 DUP4 PUSH2 0x17DA JUMP JUMPDEST SWAP3 POP PUSH1 0x20 DUP11 ADD SWAP10 POP POP PUSH1 0x1 DUP2 ADD SWAP1 POP PUSH2 0x1812 JUMP JUMPDEST POP DUP3 SWAP8 POP DUP8 SWAP6 POP POP POP POP POP POP SWAP3 SWAP2 POP POP JUMP JUMPDEST PUSH1 0x0 PUSH1 0x20 DUP3 ADD SWAP1 POP DUP2 DUP2 SUB PUSH1 0x0 DUP4 ADD MSTORE PUSH2 0x1876 DUP2 DUP5 PUSH2 0x17E7 JUMP JUMPDEST SWAP1 POP SWAP3 SWAP2 POP POP JUMP JUMPDEST PUSH2 0x1887 DUP2 PUSH2 0x1430 JUMP JUMPDEST DUP2 EQ PUSH2 0x1892 JUMPI PUSH1 0x0 DUP1 REVERT JUMPDEST POP JUMP JUMPDEST PUSH1 0x0 DUP2 CALLDATALOAD SWAP1 POP PUSH2 0x18A4 DUP2 PUSH2 0x187E JUMP JUMPDEST SWAP3 SWAP2 POP POP JUMP JUMPDEST PUSH1 0x0 PUSH1 0x20 DUP3 DUP5 SUB SLT ISZERO PUSH2 0x18C0 JUMPI PUSH2 0x18BF PUSH2 0x11C7 JUMP JUMPDEST JUMPDEST PUSH1 0x0 PUSH2 0x18CE DUP5 DUP3 DUP6 ADD PUSH2 0x1895 JUMP JUMPDEST SWAP2 POP POP SWAP3 SWAP2 POP POP JUMP JUMPDEST PUSH1 0x0 DUP3 DUP3 MSTORE PUSH1 0x20 DUP3 ADD SWAP1 POP SWAP3 SWAP2 POP POP JUMP JUMPDEST PUSH32 0x54686520616D6F756E74206F6620626F6F6B7320746F20626520616464656420 PUSH1 0x0 DUP3 ADD MSTORE PUSH32 0x73686F756C6420626520706F7369746976650000000000000000000000000000 PUSH1 0x20 DUP3 ADD MSTORE POP JUMP JUMPDEST PUSH1 0x0 PUSH2 0x1944 PUSH1 0x32 DUP4 PUSH2 0x18D7 JUMP JUMPDEST SWAP2 POP PUSH2 0x194F DUP3 PUSH2 0x18E8 JUMP JUMPDEST PUSH1 0x40 DUP3 ADD SWAP1 POP SWAP2 SWAP1 POP JUMP JUMPDEST PUSH1 0x0 PUSH1 0x20 DUP3 ADD SWAP1 POP DUP2 DUP2 SUB PUSH1 0x0 DUP4 ADD MSTORE PUSH2 0x1973 DUP2 PUSH2 0x1937 JUMP JUMPDEST SWAP1 POP SWAP2 SWAP1 POP JUMP JUMPDEST PUSH32 0x4E487B7100000000000000000000000000000000000000000000000000000000 PUSH1 0x0 MSTORE PUSH1 0x22 PUSH1 0x4 MSTORE PUSH1 0x24 PUSH1 0x0 REVERT JUMPDEST PUSH1 0x0 PUSH1 0x2 DUP3 DIV SWAP1 POP PUSH1 0x1 DUP3 AND DUP1 PUSH2 0x19C1 JUMPI PUSH1 0x7F DUP3 AND SWAP2 POP JUMPDEST PUSH1 0x20 DUP3 LT DUP2 SUB PUSH2 0x19D4 JUMPI PUSH2 0x19D3 PUSH2 0x197A JUMP JUMPDEST JUMPDEST POP SWAP2 SWAP1 POP JUMP JUMPDEST PUSH1 0x0 DUP2 SWAP1 POP DUP2 PUSH1 0x0 MSTORE PUSH1 0x20 PUSH1 0x0 KECCAK256 SWAP1 POP SWAP2 SWAP1 POP JUMP JUMPDEST PUSH1 0x0 PUSH1 0x20 PUSH1 0x1F DUP4 ADD DIV SWAP1 POP SWAP2 SWAP1 POP JUMP JUMPDEST PUSH1 0x0 DUP3 DUP3 SHL SWAP1 POP SWAP3 SWAP2 POP POP JUMP JUMPDEST PUSH1 0x0 PUSH1 0x8 DUP4 MUL PUSH2 0x1A3C PUSH32 0xFFFFFFFFFFFFFFFFFFFFFFFFFFFFFFFFFFFFFFFFFFFFFFFFFFFFFFFFFFFFFFFF DUP3 PUSH2 0x19FF JUMP JUMPDEST PUSH2 0x1A46 DUP7 DUP4 PUSH2 0x19FF JUMP JUMPDEST SWAP6 POP DUP1 NOT DUP5 AND SWAP4 POP DUP1 DUP7 AND DUP5 OR SWAP3 POP POP POP SWAP4 SWAP3 POP POP POP JUMP JUMPDEST PUSH1 0x0 DUP2 SWAP1 POP SWAP2 SWAP1 POP JUMP JUMPDEST PUSH1 0x0 PUSH2 0x1A83 PUSH2 0x1A7E PUSH2 0x1A79 DUP5 PUSH2 0x1317 JUMP JUMPDEST PUSH2 0x1A5E JUMP JUMPDEST PUSH2 0x1317 JUMP JUMPDEST SWAP1 POP SWAP2 SWAP1 POP JUMP JUMPDEST PUSH1 0x0 DUP2 SWAP1 POP SWAP2 SWAP1 POP JUMP JUMPDEST PUSH2 0x1A9D DUP4 PUSH2 0x1A68 JUMP JUMPDEST PUSH2 0x1AB1 PUSH2 0x1AA9 DUP3 PUSH2 0x1A8A JUMP JUMPDEST DUP5 DUP5 SLOAD PUSH2 0x1A0C JUMP JUMPDEST DUP3 SSTORE POP POP POP POP JUMP JUMPDEST PUSH1 0x0 SWAP1 JUMP JUMPDEST PUSH2 0x1AC6 PUSH2 0x1AB9 JUMP JUMPDEST PUSH2 0x1AD1 DUP2 DUP5 DUP5 PUSH2 0x1A94 JUMP JUMPDEST POP POP POP JUMP JUMPDEST JUMPDEST DUP2 DUP2 LT ISZERO PUSH2 0x1AF5 JUMPI PUSH2 0x1AEA PUSH1 0x0 DUP3 PUSH2 0x1ABE JUMP JUMPDEST PUSH1 0x1 DUP2 ADD SWAP1 POP PUSH2 0x1AD7 JUMP JUMPDEST POP POP JUMP JUMPDEST PUSH1 0x1F DUP3 GT ISZERO PUSH2 0x1B3A JUMPI PUSH2 0x1B0B DUP2 PUSH2 0x19DA JUMP JUMPDEST PUSH2 0x1B14 DUP5 PUSH2 0x19EF JUMP JUMPDEST DUP2 ADD PUSH1 0x20 DUP6 LT ISZERO PUSH2 0x1B23 JUMPI DUP2 SWAP1 POP JUMPDEST PUSH2 0x1B37 PUSH2 0x1B2F DUP6 PUSH2 0x19EF JUMP JUMPDEST DUP4 ADD DUP3 PUSH2 0x1AD6 JUMP JUMPDEST POP POP JUMPDEST POP POP POP JUMP JUMPDEST PUSH1 0x0 DUP3 DUP3 SHR SWAP1 POP SWAP3 SWAP2 POP POP JUMP JUMPDEST PUSH1 0x0 PUSH2 0x1B5D PUSH1 0x0 NOT DUP5 PUSH1 0x8 MUL PUSH2 0x1B3F JUMP JUMPDEST NOT DUP1 DUP4 AND SWAP2 POP POP SWAP3 SWAP2 POP POP JUMP JUMPDEST PUSH1 0x0 PUSH2 0x1B76 DUP4 DUP4 PUSH2 0x1B4C JUMP JUMPDEST SWAP2 POP DUP3 PUSH1 0x2 MUL DUP3 OR SWAP1 POP SWAP3 SWAP2 POP POP JUMP JUMPDEST PUSH2 0x1B8F DUP3 PUSH2 0x14D4 JUMP JUMPDEST PUSH8 0xFFFFFFFFFFFFFFFF DUP2 GT ISZERO PUSH2 0x1BA8 JUMPI PUSH2 0x1BA7 PUSH2 0x11EC JUMP JUMPDEST JUMPDEST PUSH2 0x1BB2 DUP3 SLOAD PUSH2 0x19A9 JUMP JUMPDEST PUSH2 0x1BBD DUP3 DUP3 DUP6 PUSH2 0x1AF9 JUMP JUMPDEST PUSH1 0x0 PUSH1 0x20 SWAP1 POP PUSH1 0x1F DUP4 GT PUSH1 0x1 DUP2 EQ PUSH2 0x1BF0 JUMPI PUSH1 0x0 DUP5 ISZERO PUSH2 0x1BDE JUMPI DUP3 DUP8 ADD MLOAD SWAP1 POP JUMPDEST PUSH2 0x1BE8 DUP6 DUP3 PUSH2 0x1B6A JUMP JUMPDEST DUP7 SSTORE POP PUSH2 0x1C50 JUMP JUMPDEST PUSH1 0x1F NOT DUP5 AND PUSH2 0x1BFE DUP7 PUSH2 0x19DA JUMP JUMPDEST PUSH1 0x0 JUMPDEST DUP3 DUP2 LT ISZERO PUSH2 0x1C26 JUMPI DUP5 DUP10 ADD MLOAD DUP3 SSTORE PUSH1 0x1 DUP3 ADD SWAP2 POP PUSH1 0x20 DUP6 ADD SWAP5 POP PUSH1 0x20 DUP2 ADD SWAP1 POP PUSH2 0x1C01 JUMP JUMPDEST DUP7 DUP4 LT ISZERO PUSH2 0x1C43 JUMPI DUP5 DUP10 ADD MLOAD PUSH2 0x1C3F PUSH1 0x1F DUP10 AND DUP3 PUSH2 0x1B4C JUMP JUMPDEST DUP4 SSTORE POP JUMPDEST PUSH1 0x1 PUSH1 0x2 DUP9 MUL ADD DUP9 SSTORE POP POP POP JUMPDEST POP POP POP POP POP POP JUMP JUMPDEST PUSH32 0x4E487B7100000000000000000000000000000000000000000000000000000000 PUSH1 0x0 MSTORE PUSH1 0x11 PUSH1 0x4 MSTORE PUSH1 0x24 PUSH1 0x0 REVERT JUMPDEST PUSH1 0x0 PUSH2 0x1C92 DUP3 PUSH2 0x1317 JUMP JUMPDEST SWAP2 POP PUSH2 0x1C9D DUP4 PUSH2 0x1317 JUMP JUMPDEST SWAP3 POP DUP3 DUP3 ADD SWAP1 POP DUP1 DUP3 GT ISZERO PUSH2 0x1CB5 JUMPI PUSH2 0x1CB4 PUSH2 0x1C58 JUMP JUMPDEST JUMPDEST SWAP3 SWAP2 POP POP JUMP JUMPDEST PUSH32 0x5573657220686173206E6F20626F6F6B7320746F2072657475726E0000000000 PUSH1 0x0 DUP3 ADD MSTORE POP JUMP JUMPDEST PUSH1 0x0 PUSH2 0x1CF1 PUSH1 0x1B DUP4 PUSH2 0x18D7 JUMP JUMPDEST SWAP2 POP PUSH2 0x1CFC DUP3 PUSH2 0x1CBB JUMP JUMPDEST PUSH1 0x20 DUP3 ADD SWAP1 POP SWAP2 SWAP1 POP JUMP JUMPDEST PUSH1 0x0 PUSH1 0x20 DUP3 ADD SWAP1 POP DUP2 DUP2 SUB PUSH1 0x0 DUP4 ADD MSTORE PUSH2 0x1D20 DUP2 PUSH2 0x1CE4 JUMP JUMPDEST SWAP1 POP SWAP2 SWAP1 POP JUMP JUMPDEST PUSH1 0x0 PUSH2 0x1D32 DUP3 PUSH2 0x1317 JUMP JUMPDEST SWAP2 POP PUSH2 0x1D3D DUP4 PUSH2 0x1317 JUMP JUMPDEST SWAP3 POP DUP3 DUP3 SUB SWAP1 POP DUP2 DUP2 GT ISZERO PUSH2 0x1D55 JUMPI PUSH2 0x1D54 PUSH2 0x1C58 JUMP JUMPDEST JUMPDEST SWAP3 SWAP2 POP POP JUMP JUMPDEST PUSH32 0x4E487B7100000000000000000000000000000000000000000000000000000000 PUSH1 0x0 MSTORE PUSH1 0x32 PUSH1 0x4 MSTORE PUSH1 0x24 PUSH1 0x0 REVERT JUMPDEST PUSH1 0x0 PUSH2 0x1D95 DUP3 PUSH2 0x1317 JUMP JUMPDEST SWAP2 POP PUSH32 0xFFFFFFFFFFFFFFFFFFFFFFFFFFFFFFFFFFFFFFFFFFFFFFFFFFFFFFFFFFFFFFFF DUP3 SUB PUSH2 0x1DC7 JUMPI PUSH2 0x1DC6 PUSH2 0x1C58 JUMP JUMPDEST JUMPDEST PUSH1 0x1 DUP3 ADD SWAP1 POP SWAP2 SWAP1 POP JUMP JUMPDEST PUSH32 0x5573657220686173206E6F7420726573657276656420626F6F6B207769746820 PUSH1 0x0 DUP3 ADD MSTORE PUSH32 0x7375636820696400000000000000000000000000000000000000000000000000 PUSH1 0x20 DUP3 ADD MSTORE POP JUMP JUMPDEST PUSH1 0x0 PUSH2 0x1E2E PUSH1 0x27 DUP4 PUSH2 0x18D7 JUMP JUMPDEST SWAP2 POP PUSH2 0x1E39 DUP3 PUSH2 0x1DD2 JUMP JUMPDEST PUSH1 0x40 DUP3 ADD SWAP1 POP SWAP2 SWAP1 POP JUMP JUMPDEST PUSH1 0x0 PUSH1 0x20 DUP3 ADD SWAP1 POP DUP2 DUP2 SUB PUSH1 0x0 DUP4 ADD MSTORE PUSH2 0x1E5D DUP2 PUSH2 0x1E21 JUMP JUMPDEST SWAP1 POP SWAP2 SWAP1 POP JUMP JUMPDEST PUSH32 0x5468657265206973206E6F207375636820626F6F6B0000000000000000000000 PUSH1 0x0 DUP3 ADD MSTORE POP JUMP JUMPDEST PUSH1 0x0 PUSH2 0x1E9A PUSH1 0x15 DUP4 PUSH2 0x18D7 JUMP JUMPDEST SWAP2 POP PUSH2 0x1EA5 DUP3 PUSH2 0x1E64 JUMP JUMPDEST PUSH1 0x20 DUP3 ADD SWAP1 POP SWAP2 SWAP1 POP JUMP JUMPDEST PUSH1 0x0 PUSH1 0x20 DUP3 ADD SWAP1 POP DUP2 DUP2 SUB PUSH1 0x0 DUP4 ADD MSTORE PUSH2 0x1EC9 DUP2 PUSH2 0x1E8D JUMP JUMPDEST SWAP1 POP SWAP2 SWAP1 POP JUMP JUMPDEST PUSH32 0x416C6C20636F70696573206172652074616B656E000000000000000000000000 PUSH1 0x0 DUP3 ADD MSTORE POP JUMP JUMPDEST PUSH1 0x0 PUSH2 0x1F06 PUSH1 0x14 DUP4 PUSH2 0x18D7 JUMP JUMPDEST SWAP2 POP PUSH2 0x1F11 DUP3 PUSH2 0x1ED0 JUMP JUMPDEST PUSH1 0x20 DUP3 ADD SWAP1 POP SWAP2 SWAP1 POP JUMP JUMPDEST PUSH1 0x0 PUSH1 0x20 DUP3 ADD SWAP1 POP DUP2 DUP2 SUB PUSH1 0x0 DUP4 ADD MSTORE PUSH2 0x1F35 DUP2 PUSH2 0x1EF9 JUMP JUMPDEST SWAP1 POP SWAP2 SWAP1 POP JUMP JUMPDEST PUSH32 0x546865207573657220616C726561647920686173206120636F7079206F662074 PUSH1 0x0 DUP3 ADD MSTORE PUSH32 0x686520626F6F6B00000000000000000000000000000000000000000000000000 PUSH1 0x20 DUP3 ADD MSTORE POP JUMP JUMPDEST PUSH1 0x0 PUSH2 0x1F98 PUSH1 0x27 DUP4 PUSH2 0x18D7 JUMP JUMPDEST SWAP2 POP PUSH2 0x1FA3 DUP3 PUSH2 0x1F3C JUMP JUMPDEST PUSH1 0x40 DUP3 ADD SWAP1 POP SWAP2 SWAP1 POP JUMP JUMPDEST PUSH1 0x0 PUSH1 0x20 DUP3 ADD SWAP1 POP DUP2 DUP2 SUB PUSH1 0x0 DUP4 ADD MSTORE PUSH2 0x1FC7 DUP2 PUSH2 0x1F8B JUMP JUMPDEST SWAP1 POP SWAP2 SWAP1 POP JUMP JUMPDEST PUSH32 0x4F776E61626C653A206E6577206F776E657220697320746865207A65726F2061 PUSH1 0x0 DUP3 ADD MSTORE PUSH32 0x6464726573730000000000000000000000000000000000000000000000000000 PUSH1 0x20 DUP3 ADD MSTORE POP JUMP JUMPDEST PUSH1 0x0 PUSH2 0x202A PUSH1 0x26 DUP4 PUSH2 0x18D7 JUMP JUMPDEST SWAP2 POP PUSH2 0x2035 DUP3 PUSH2 0x1FCE JUMP JUMPDEST PUSH1 0x40 DUP3 ADD SWAP1 POP SWAP2 SWAP1 POP JUMP JUMPDEST PUSH1 0x0 PUSH1 0x20 DUP3 ADD SWAP1 POP DUP2 DUP2 SUB PUSH1 0x0 DUP4 ADD MSTORE PUSH2 0x2059 DUP2 PUSH2 0x201D JUMP JUMPDEST SWAP1 POP SWAP2 SWAP1 POP JUMP JUMPDEST PUSH32 0x4F776E61626C653A2063616C6C6572206973206E6F7420746865206F776E6572 PUSH1 0x0 DUP3 ADD MSTORE POP JUMP JUMPDEST PUSH1 0x0 PUSH2 0x2096 PUSH1 0x20 DUP4 PUSH2 0x18D7 JUMP JUMPDEST SWAP2 POP PUSH2 0x20A1 DUP3 PUSH2 0x2060 JUMP JUMPDEST PUSH1 0x20 DUP3 ADD SWAP1 POP SWAP2 SWAP1 POP JUMP JUMPDEST PUSH1 0x0 PUSH1 0x20 DUP3 ADD SWAP1 POP DUP2 DUP2 SUB PUSH1 0x0 DUP4 ADD MSTORE PUSH2 0x20C5 DUP2 PUSH2 0x2089 JUMP JUMPDEST SWAP1 POP SWAP2 SWAP1 POP JUMP INVALID LOG2 PUSH5 0x6970667358 0x22 SLT KECCAK256 0x2E POP DUP10 0xDE LOG4 PUSH30 0xCBDD4BDAFFCE4CF705DF58580DC7717CF6E669BDF3AB8A6CC12064736F6C PUSH4 0x43000813 STOP CALLER "
				},
				"gasEstimates": {
					"creation": {
						"codeDepositCost": "1690000",
						"executionCost": "infinite",
						"totalCost": "infinite"
					},
					"external": {
						"_getAllTimeBorrowers()": "infinite",
						"_getBooks()": "infinite",
						"addBooks(string,uint256)": "infinite",
						"getAvailableBooks()": "infinite",
						"owner()": "2522",
						"renounceOwnership()": "30465",
						"reserveBook(uint256)": "infinite",
						"returnBook(uint256)": "infinite",
						"transferOwnership(address)": "30832"
					}
				},
				"methodIdentifiers": {
					"_getAllTimeBorrowers()": "6265f92f",
					"_getBooks()": "51fede2b",
					"addBooks(string,uint256)": "264f2ecf",
					"getAvailableBooks()": "d6c084d9",
					"owner()": "8da5cb5b",
					"renounceOwnership()": "715018a6",
					"reserveBook(uint256)": "ce966b2b",
					"returnBook(uint256)": "ca5140c9",
					"transferOwnership(address)": "f2fde38b"
				}
			},
			"storageLayout": {
				"storage": [
					{
						"astId": 526,
						"contract": "Library.sol:Library",
						"label": "_owner",
						"offset": 0,
						"slot": "0",
						"type": "t_address"
					},
					{
						"astId": 21,
						"contract": "Library.sol:Library",
						"label": "bookIdNonce",
						"offset": 0,
						"slot": "1",
						"type": "t_uint256"
					},
					{
						"astId": 24,
						"contract": "Library.sol:Library",
						"label": "allTimeHistory",
						"offset": 0,
						"slot": "2",
						"type": "t_array(t_address)dyn_storage"
					},
					{
						"astId": 29,
						"contract": "Library.sol:Library",
						"label": "userToBooks",
						"offset": 0,
						"slot": "3",
						"type": "t_mapping(t_address,t_array(t_uint256)dyn_storage)"
					},
					{
						"astId": 33,
						"contract": "Library.sol:Library",
						"label": "books",
						"offset": 0,
						"slot": "4",
						"type": "t_array(t_struct(Book)12_storage)dyn_storage"
					}
				],
				"types": {
					"t_address": {
						"encoding": "inplace",
						"label": "address",
						"numberOfBytes": "20"
					},
					"t_array(t_address)dyn_storage": {
						"base": "t_address",
						"encoding": "dynamic_array",
						"label": "address[]",
						"numberOfBytes": "32"
					},
					"t_array(t_struct(Book)12_storage)dyn_storage": {
						"base": "t_struct(Book)12_storage",
						"encoding": "dynamic_array",
						"label": "struct Book[]",
						"numberOfBytes": "32"
					},
					"t_array(t_uint256)dyn_storage": {
						"base": "t_uint256",
						"encoding": "dynamic_array",
						"label": "uint256[]",
						"numberOfBytes": "32"
					},
					"t_mapping(t_address,t_array(t_uint256)dyn_storage)": {
						"encoding": "mapping",
						"key": "t_address",
						"label": "mapping(address => uint256[])",
						"numberOfBytes": "32",
						"value": "t_array(t_uint256)dyn_storage"
					},
					"t_string_storage": {
						"encoding": "bytes",
						"label": "string",
						"numberOfBytes": "32"
					},
					"t_struct(Book)12_storage": {
						"encoding": "inplace",
						"label": "struct Book",
						"members": [
							{
								"astId": 4,
								"contract": "Library.sol:Library",
								"label": "bookId",
								"offset": 0,
								"slot": "0",
								"type": "t_uint256"
							},
							{
								"astId": 6,
								"contract": "Library.sol:Library",
								"label": "copies",
								"offset": 0,
								"slot": "1",
								"type": "t_uint256"
							},
							{
								"astId": 9,
								"contract": "Library.sol:Library",
								"label": "usersHavingIt",
								"offset": 0,
								"slot": "2",
								"type": "t_array(t_address)dyn_storage"
							},
							{
								"astId": 11,
								"contract": "Library.sol:Library",
								"label": "name",
								"offset": 0,
								"slot": "3",
								"type": "t_string_storage"
							}
						],
						"numberOfBytes": "128"
					},
					"t_uint256": {
						"encoding": "inplace",
						"label": "uint256",
						"numberOfBytes": "32"
					}
				}
			},
			"userdoc": {
				"kind": "user",
				"methods": {
					"addBooks(string,uint256)": {
						"notice": "The function allows the owner of the contract to add books to the library. The amount of copies has to be a positive number. BookIdNonce is an identifier, which is unique for each book."
					},
					"constructor": {
						"notice": "Initializes the contract. Sets the bookIdNonce to 0"
					},
					"getAvailableBooks()": {
						"notice": "The function returns the books available for borrow. It does that by looping through the array of books and  checking which books have more copies than the amount of users who have currently borrowed the book.  The return object consists of the id an name of the book."
					},
					"reserveBook(uint256)": {
						"notice": "The function reserves the book if the following conditiosn are met: - a book with such id exists - if there are available copies - if the user requesting it does not have a copy of it  If a book is reserved: - the user is pushed in 'usersHavingIt' list of the book - the id of the book is saved in the mapping 'userToBooks' - if it's the first time a book is reserved from the  address of the message sender, it is pushed in 'allTimeHistory'"
					},
					"returnBook(uint256)": {
						"notice": "The function allows the user to return a book. First, it is checked whether has reserved any books at all. That is needed since a memory array is created and it's size can not be less than 0.  Then, it is checked if a book with such id exists and whether the user currently has it. If both conditions are met,  the book is removed from the mapping 'userToBooks\" and  'usersHavingIt' is updated for the book."
					}
				},
				"version": 1
			}
		}
	}
}